{
  "_format": "hh-sol-artifact-1",
  "contractName": "Market",
  "sourceName": "contracts/Market.sol",
  "abi": [
    {
      "inputs": [],
      "stateMutability": "nonpayable",
      "type": "constructor"
    },
    {
      "anonymous": false,
      "inputs": [
        {
          "indexed": false,
          "internalType": "uint256",
          "name": "tokenId",
          "type": "uint256"
        },
        {
          "components": [
            {
              "internalType": "uint256",
              "name": "amount",
              "type": "uint256"
            },
            {
              "internalType": "address",
              "name": "currency",
              "type": "address"
            },
            {
              "components": [
                {
                  "internalType": "uint256",
                  "name": "value",
                  "type": "uint256"
                }
              ],
              "internalType": "struct Decimal.D256",
              "name": "sellOnFee",
              "type": "tuple"
            }
          ],
          "indexed": false,
          "internalType": "struct Market.Ask",
          "name": "ask",
          "type": "tuple"
        }
      ],
      "name": "AskCreated",
      "type": "event"
    },
    {
      "anonymous": false,
      "inputs": [
        {
          "indexed": false,
          "internalType": "uint256",
          "name": "tokenId",
          "type": "uint256"
        },
        {
          "components": [
            {
              "internalType": "uint256",
              "name": "amount",
              "type": "uint256"
            },
            {
              "internalType": "address",
              "name": "currency",
              "type": "address"
            },
            {
              "internalType": "address",
              "name": "bidder",
              "type": "address"
            },
            {
              "internalType": "address",
              "name": "recipient",
              "type": "address"
            },
            {
              "components": [
                {
                  "internalType": "uint256",
                  "name": "value",
                  "type": "uint256"
                }
              ],
              "internalType": "struct Decimal.D256",
              "name": "sellOnFee",
              "type": "tuple"
            }
          ],
          "indexed": false,
          "internalType": "struct Market.Bid",
          "name": "bid",
          "type": "tuple"
        }
      ],
      "name": "BidCreated",
      "type": "event"
    },
    {
      "anonymous": false,
      "inputs": [
        {
          "indexed": false,
          "internalType": "uint256",
          "name": "tokenId",
          "type": "uint256"
        },
        {
          "components": [
            {
              "internalType": "uint256",
              "name": "amount",
              "type": "uint256"
            },
            {
              "internalType": "address",
              "name": "currency",
              "type": "address"
            },
            {
              "internalType": "address",
              "name": "bidder",
              "type": "address"
            },
            {
              "internalType": "address",
              "name": "recipient",
              "type": "address"
            },
            {
              "components": [
                {
                  "internalType": "uint256",
                  "name": "value",
                  "type": "uint256"
                }
              ],
              "internalType": "struct Decimal.D256",
              "name": "sellOnFee",
              "type": "tuple"
            }
          ],
          "indexed": false,
          "internalType": "struct Market.Bid",
          "name": "bid",
          "type": "tuple"
        }
      ],
      "name": "BidFinalized",
      "type": "event"
    },
    {
      "anonymous": false,
      "inputs": [
        {
          "indexed": false,
          "internalType": "uint256",
          "name": "tokenId",
          "type": "uint256"
        },
        {
          "components": [
            {
              "internalType": "uint256",
              "name": "amount",
              "type": "uint256"
            },
            {
              "internalType": "address",
              "name": "currency",
              "type": "address"
            },
            {
              "internalType": "address",
              "name": "bidder",
              "type": "address"
            },
            {
              "internalType": "address",
              "name": "recipient",
              "type": "address"
            },
            {
              "components": [
                {
                  "internalType": "uint256",
                  "name": "value",
                  "type": "uint256"
                }
              ],
              "internalType": "struct Decimal.D256",
              "name": "sellOnFee",
              "type": "tuple"
            }
          ],
          "indexed": false,
          "internalType": "struct Market.Bid",
          "name": "bid",
          "type": "tuple"
        }
      ],
      "name": "BidRemoved",
      "type": "event"
    },
    {
      "anonymous": false,
      "inputs": [
        {
          "indexed": false,
          "internalType": "uint256",
          "name": "tokenId",
          "type": "uint256"
        },
        {
          "components": [
            {
              "components": [
                {
                  "internalType": "uint256",
                  "name": "value",
                  "type": "uint256"
                }
              ],
              "internalType": "struct Decimal.D256",
              "name": "prevOwner",
              "type": "tuple"
            },
            {
              "components": [
                {
                  "internalType": "uint256",
                  "name": "value",
                  "type": "uint256"
                }
              ],
              "internalType": "struct Decimal.D256",
              "name": "creator",
              "type": "tuple"
            },
            {
              "components": [
                {
                  "internalType": "uint256",
                  "name": "value",
                  "type": "uint256"
                }
              ],
              "internalType": "struct Decimal.D256",
              "name": "owner",
              "type": "tuple"
            }
          ],
          "indexed": false,
          "internalType": "struct Market.BidShares",
          "name": "bidShares",
          "type": "tuple"
        }
      ],
      "name": "BidShareUpdated",
      "type": "event"
    },
    {
      "inputs": [
        {
          "components": [
            {
              "internalType": "uint256",
              "name": "value",
              "type": "uint256"
            }
          ],
          "internalType": "struct Decimal.D256",
          "name": "sharePercentage",
          "type": "tuple"
        },
        {
          "internalType": "uint256",
          "name": "amount",
          "type": "uint256"
        }
      ],
      "name": "_splitShare",
      "outputs": [
        {
          "internalType": "uint256",
          "name": "",
          "type": "uint256"
        }
      ],
      "stateMutability": "pure",
      "type": "function"
    },
    {
      "inputs": [
        {
          "internalType": "uint256",
          "name": "tokenId",
          "type": "uint256"
        },
        {
          "components": [
            {
              "internalType": "uint256",
              "name": "amount",
              "type": "uint256"
            },
            {
              "internalType": "address",
              "name": "currency",
              "type": "address"
            },
            {
              "internalType": "address",
              "name": "bidder",
              "type": "address"
            },
            {
              "internalType": "address",
              "name": "recipient",
              "type": "address"
            },
            {
              "components": [
                {
                  "internalType": "uint256",
                  "name": "value",
                  "type": "uint256"
                }
              ],
              "internalType": "struct Decimal.D256",
              "name": "sellOnFee",
              "type": "tuple"
            }
          ],
          "internalType": "struct Market.Bid",
          "name": "expectedBid",
          "type": "tuple"
        }
      ],
      "name": "acceptBid",
      "outputs": [],
      "stateMutability": "nonpayable",
      "type": "function"
    },
    {
      "inputs": [
        {
          "internalType": "uint256",
          "name": "tokenId",
          "type": "uint256"
        },
        {
          "components": [
            {
              "components": [
                {
                  "internalType": "uint256",
                  "name": "value",
                  "type": "uint256"
                }
              ],
              "internalType": "struct Decimal.D256",
              "name": "prevOwner",
              "type": "tuple"
            },
            {
              "components": [
                {
                  "internalType": "uint256",
                  "name": "value",
                  "type": "uint256"
                }
              ],
              "internalType": "struct Decimal.D256",
              "name": "creator",
              "type": "tuple"
            },
            {
              "components": [
                {
                  "internalType": "uint256",
                  "name": "value",
                  "type": "uint256"
                }
              ],
              "internalType": "struct Decimal.D256",
              "name": "owner",
              "type": "tuple"
            }
          ],
          "internalType": "struct Market.BidShares",
          "name": "bidShares",
          "type": "tuple"
        }
      ],
      "name": "addBidShares",
      "outputs": [],
      "stateMutability": "nonpayable",
      "type": "function"
    },
    {
      "inputs": [
        {
          "internalType": "uint256",
          "name": "tokenId",
          "type": "uint256"
        },
        {
          "internalType": "address",
          "name": "bidder",
          "type": "address"
        }
      ],
      "name": "bidForTokenBidder",
      "outputs": [
        {
          "components": [
            {
              "internalType": "uint256",
              "name": "amount",
              "type": "uint256"
            },
            {
              "internalType": "address",
              "name": "currency",
              "type": "address"
            },
            {
              "internalType": "address",
              "name": "bidder",
              "type": "address"
            },
            {
              "internalType": "address",
              "name": "recipient",
              "type": "address"
            },
            {
              "components": [
                {
                  "internalType": "uint256",
                  "name": "value",
                  "type": "uint256"
                }
              ],
              "internalType": "struct Decimal.D256",
              "name": "sellOnFee",
              "type": "tuple"
            }
          ],
          "internalType": "struct Market.Bid",
          "name": "",
          "type": "tuple"
        }
      ],
      "stateMutability": "view",
      "type": "function"
    },
    {
      "inputs": [
        {
          "internalType": "uint256",
          "name": "tokenId",
          "type": "uint256"
        }
      ],
      "name": "bidSharesForToken",
      "outputs": [
        {
          "components": [
            {
              "components": [
                {
                  "internalType": "uint256",
                  "name": "value",
                  "type": "uint256"
                }
              ],
              "internalType": "struct Decimal.D256",
              "name": "prevOwner",
              "type": "tuple"
            },
            {
              "components": [
                {
                  "internalType": "uint256",
                  "name": "value",
                  "type": "uint256"
                }
              ],
              "internalType": "struct Decimal.D256",
              "name": "creator",
              "type": "tuple"
            },
            {
              "components": [
                {
                  "internalType": "uint256",
                  "name": "value",
                  "type": "uint256"
                }
              ],
              "internalType": "struct Decimal.D256",
              "name": "owner",
              "type": "tuple"
            }
          ],
          "internalType": "struct Market.BidShares",
          "name": "",
          "type": "tuple"
        }
      ],
      "stateMutability": "view",
      "type": "function"
    },
    {
      "inputs": [
        {
          "internalType": "address",
          "name": "tokenContractAddress",
          "type": "address"
        }
      ],
      "name": "configure",
      "outputs": [],
      "stateMutability": "nonpayable",
      "type": "function"
    },
    {
      "inputs": [
        {
          "internalType": "uint256",
          "name": "tokenId",
          "type": "uint256"
        }
      ],
      "name": "currentAskForToken",
      "outputs": [
        {
          "components": [
            {
              "internalType": "uint256",
              "name": "amount",
              "type": "uint256"
            },
            {
              "internalType": "address",
              "name": "currency",
              "type": "address"
            },
            {
              "components": [
                {
                  "internalType": "uint256",
                  "name": "value",
                  "type": "uint256"
                }
              ],
              "internalType": "struct Decimal.D256",
              "name": "sellOnFee",
              "type": "tuple"
            }
          ],
          "internalType": "struct Market.Ask",
          "name": "",
          "type": "tuple"
        }
      ],
      "stateMutability": "view",
      "type": "function"
    },
    {
      "inputs": [
        {
          "internalType": "uint256",
          "name": "tokenId",
          "type": "uint256"
        },
        {
          "internalType": "uint256",
          "name": "bidAmount",
          "type": "uint256"
        }
      ],
      "name": "isValidBid",
      "outputs": [
        {
          "internalType": "bool",
          "name": "",
          "type": "bool"
        }
      ],
      "stateMutability": "view",
      "type": "function"
    },
    {
      "inputs": [
        {
          "components": [
            {
              "components": [
                {
                  "internalType": "uint256",
                  "name": "value",
                  "type": "uint256"
                }
              ],
              "internalType": "struct Decimal.D256",
              "name": "prevOwner",
              "type": "tuple"
            },
            {
              "components": [
                {
                  "internalType": "uint256",
                  "name": "value",
                  "type": "uint256"
                }
              ],
              "internalType": "struct Decimal.D256",
              "name": "creator",
              "type": "tuple"
            },
            {
              "components": [
                {
                  "internalType": "uint256",
                  "name": "value",
                  "type": "uint256"
                }
              ],
              "internalType": "struct Decimal.D256",
              "name": "owner",
              "type": "tuple"
            }
          ],
          "internalType": "struct Market.BidShares",
          "name": "bidShares",
          "type": "tuple"
        }
      ],
      "name": "isValidBidShares",
      "outputs": [
        {
          "internalType": "bool",
          "name": "",
          "type": "bool"
        }
      ],
      "stateMutability": "pure",
      "type": "function"
    },
    {
      "inputs": [
        {
          "internalType": "uint256",
          "name": "tokenId",
          "type": "uint256"
        },
        {
          "internalType": "address",
          "name": "bidder",
          "type": "address"
        }
      ],
      "name": "removeBid",
      "outputs": [],
      "stateMutability": "nonpayable",
      "type": "function"
    },
    {
      "inputs": [
        {
          "internalType": "uint256",
          "name": "tokenId",
          "type": "uint256"
        },
        {
          "components": [
            {
              "internalType": "uint256",
              "name": "amount",
              "type": "uint256"
            },
            {
              "internalType": "address",
              "name": "currency",
              "type": "address"
            },
            {
              "components": [
                {
                  "internalType": "uint256",
                  "name": "value",
                  "type": "uint256"
                }
              ],
              "internalType": "struct Decimal.D256",
              "name": "sellOnFee",
              "type": "tuple"
            }
          ],
          "internalType": "struct Market.Ask",
          "name": "ask",
          "type": "tuple"
        }
      ],
      "name": "setAsk",
      "outputs": [],
      "stateMutability": "nonpayable",
      "type": "function"
    },
    {
      "inputs": [
        {
          "internalType": "uint256",
          "name": "tokenId",
          "type": "uint256"
        },
        {
          "components": [
            {
              "internalType": "uint256",
              "name": "amount",
              "type": "uint256"
            },
            {
              "internalType": "address",
              "name": "currency",
              "type": "address"
            },
            {
              "internalType": "address",
              "name": "bidder",
              "type": "address"
            },
            {
              "internalType": "address",
              "name": "recipient",
              "type": "address"
            },
            {
              "components": [
                {
                  "internalType": "uint256",
                  "name": "value",
                  "type": "uint256"
                }
              ],
              "internalType": "struct Decimal.D256",
              "name": "sellOnFee",
              "type": "tuple"
            }
          ],
          "internalType": "struct Market.Bid",
          "name": "bid",
          "type": "tuple"
        },
        {
          "internalType": "address",
          "name": "spender",
          "type": "address"
        }
      ],
      "name": "setBid",
      "outputs": [],
      "stateMutability": "nonpayable",
      "type": "function"
    },
    {
      "inputs": [],
      "name": "tokenContract",
      "outputs": [
        {
          "internalType": "address",
          "name": "",
          "type": "address"
        }
      ],
      "stateMutability": "view",
      "type": "function"
    }
  ],
  "bytecode": "0x608060405234801561001057600080fd5b506001805460ff60a01b196001600160a01b031990911633171690556122478061003b6000396000f3fe608060405234801561001057600080fd5b50600436106100cf5760003560e01c806385f7c3541161008c578063ad827dc411610066578063ad827dc4146101b3578063ba339399146101d3578063bdb58698146101e6578063f9ce0582146101f9576100cf565b806385f7c3541461016d57806389923d56146101805780638ca4ce19146101a0576100cf565b806302e8fe13146100d4578063360636eb146100fd57806355a373d614610110578063578064f61461012557806375cb267214610145578063776a08351461015a575b600080fd5b6100e76100e2366004611a76565b610219565b6040516100f49190611b9e565b60405180910390f35b6100e761010b366004611864565b6102af565b6101186102f5565b6040516100f49190611b33565b6101386101333660046118a9565b610304565b6040516100f491906120db565b61015861015336600461180c565b610353565b005b6101586101683660046118d9565b6103dd565b61015861017b366004611908565b610502565b61019361018e36600461187f565b61069c565b6040516100f49190612105565b6101586101ae366004611972565b6106c0565b6101c66101c13660046118d9565b610777565b6040516100f491906120f7565b6101586101e136600461199e565b6107ed565b6101586101f43660046119d4565b610968565b61020c6102073660046118a9565b610f56565b6040516100f491906120e9565b60006102236116ea565b61022c84610f56565b9050610237816102af565b61025c5760405162461bcd60e51b815260040161025390611fdf565b60405180910390fd5b82158015906102a557506102a261027782604001518561069c565b61029661028884600001518761069c565b61029685602001518861069c565b9063ffffffff610fac16565b83145b9150505b92915050565b60006102ca6064670de0b6b3a764000063ffffffff610fd116565b8251516040840151516020850151516102ee9291610296919063ffffffff610fac16565b1492915050565b6000546001600160a01b031681565b61030c61171c565b5060009081526004602090815260409182902082516060810184528154815260018201546001600160a01b0316818401528351928301845260029091015482529182015290565b6001546001600160a01b0316331461037d5760405162461bcd60e51b815260040161025390611e73565b600154600160a01b900460ff16156103a75760405162461bcd60e51b81526004016102539061205a565b600080546001600160a01b039092166001600160a01b03199092169190911790556001805460ff60a01b1916600160a01b179055565b6000546001600160a01b031633146104075760405162461bcd60e51b815260040161025390611f66565b60008281526002602090815260408083206001600160a01b0380861685529252909120805460018201549192909116816104535760405162461bcd60e51b815260040161025390611d89565b60405181907fcbebd567b8a5c57f63ec61dc46746aab28daff6bdd1f4a6a0a305c17fa5465c9906104879088908790612161565b60405180910390a160008681526002602081815260408084206001600160a01b03808b168652925283208381556001810180546001600160a01b03199081169091559281018054841690556003810180549093169092556004909101919091556104fa908216868563ffffffff61100b16565b505050505050565b6000546001600160a01b0316331461052c5760405162461bcd60e51b815260040161025390611f66565b61053a828260000151610219565b6105565760405162461bcd60e51b815260040161025390611d0b565b60006105716064670de0b6b3a764000063ffffffff610fd116565b905061057b6116ea565b5060008381526003602090815260409182902082516080810184528154606082019081528152835180840185526001830154815281840152835192830184526002909101548252918201526105df6064670de0b6b3a764000063ffffffff610fd116565b6040840151516020830151516105fa9163ffffffff610fac16565b11156106185760405162461bcd60e51b815260040161025390611dce565b60008481526004602090815260409182902085518155908501516001820180546001600160a01b0319166001600160a01b039092169190911790558482015151600290910155517f3e1965cc9a7ae4327b07753c6e0b6ba56bcc25c1d799b82bd2d4a51bb0779d0c9061068e9086908690612125565b60405180910390a150505050565b60006106b960646106ad8486611061565b9063ffffffff61107a16565b9392505050565b6000546001600160a01b031633146106ea5760405162461bcd60e51b815260040161025390611f66565b6106f3816102af565b61070f5760405162461bcd60e51b815260040161025390611bdc565b6000828152600360209081526040918290208351518155908301515160018201558183015151600290910155517fdb88d4e96cb8697aaee5e575ee5f460817709a1dfcfbf7ba15192e90b5c86f9f9061076b9084908490612139565b60405180910390a15050565b61077f61173b565b5060009182526002602081815260408085206001600160a01b039485168652825293849020845160a081018652815481526001820154851681840152928101548416838601526003810154909316606083015283519081019093526004909101548252608081019190915290565b6000546001600160a01b031633146108175760405162461bcd60e51b815260040161025390611f66565b61081f61173b565b6000838152600260205260408082209190610840906060860190860161180c565b6001600160a01b0390811682526020808301939093526040918201600020825160a08101845281548152600182015483168186015260028201548316818501526003820154909216606083015282519384019092526004909101548252608081019190915280519091506108c65760405162461bcd60e51b815260040161025390611e3c565b805182351480156108fb57506108e2604083016020840161180c565b6001600160a01b031681602001516001600160a01b0316145b801561090f57506080818101515190830135145b61092b5760405162461bcd60e51b815260040161025390611ee0565b610939838260000151610219565b6109555760405162461bcd60e51b815260040161025390611cc4565b6109638382604001516110bc565b505050565b6000546001600160a01b031633146109925760405162461bcd60e51b815260040161025390611f66565b60208201518251604051636eb1769f60e11b815283929190829082906001600160a01b0383169063dd62ed3e906109cf9088903090600401611b47565b60206040518083038186803b1580156109e757600080fd5b505afa1580156109fb573d6000803e3d6000fd5b505050506040513d601f19601f82011682018060405250810190610a1f91906118c1565b1015610a3d5760405162461bcd60e51b815260040161025390611c27565b6040516370a0823160e01b815282906001600160a01b038316906370a0823190610a6b908890600401611b33565b60206040518083038186803b158015610a8357600080fd5b505afa158015610a97573d6000803e3d6000fd5b505050506040513d601f19601f82011682018060405250810190610abb91906118c1565b1015610ad95760405162461bcd60e51b815260040161025390611c7a565b610ae16116ea565b506000878152600360209081526040918290208251608081018452815460608201908152815283518084018552600183015481528184015283519283018452600290910154825291820152610b456064670de0b6b3a764000063ffffffff610fd116565b608088015151602083015151610b609163ffffffff610fac16565b1115610b7e5760405162461bcd60e51b815260040161025390611f17565b60408701516001600160a01b0316610ba85760405162461bcd60e51b815260040161025390611f9d565b8651610bc65760405162461bcd60e51b815260040161025390611e05565b60008881526002602090815260408083208a8201516001600160a01b031684529091529020805415610c0057610c008989604001516103dd565b60208801516040516370a0823160e01b81526000906001600160a01b038316906370a0823190610c34903090600401611b33565b60206040518083038186803b158015610c4c57600080fd5b505afa158015610c60573d6000803e3d6000fd5b505050506040513d601f19601f82011682018060405250810190610c8491906118c1565b8a51909150610ca7906001600160a01b038416908b90309063ffffffff61149d16565b60208a01516040516370a0823160e01b81526000916001600160a01b0316906370a0823190610cda903090600401611b33565b60206040518083038186803b158015610cf257600080fd5b505afa158015610d06573d6000803e3d6000fd5b505050506040513d601f19601f82011682018060405250810190610d2a91906118c1565b90506040518060a00160405280610d4a84846114c490919063ffffffff16565b81526020018c602001516001600160a01b031681526020018c604001516001600160a01b031681526020018c606001516001600160a01b031681526020018c60800151815250600260008e815260200190815260200160002060008d604001516001600160a01b03166001600160a01b031681526020019081526020016000206000820151816000015560208201518160010160006101000a8154816001600160a01b0302191690836001600160a01b0316021790555060408201518160020160006101000a8154816001600160a01b0302191690836001600160a01b0316021790555060608201518160030160006101000a8154816001600160a01b0302191690836001600160a01b031602179055506080820151816004016000820151816000015550509050507f327bc9021bfbee403a11b13dd6c819999006aff090cc129f07e9f2840af38dd58c8c604051610ea492919061214d565b60405180910390a160008c8152600460205260409020600101546001600160a01b031615801590610ef8575060008c815260046020908152604090912060010154908c01516001600160a01b039081169116145b8015610f13575060008c8152600460205260409020548b5110155b8015610f35575060008c81526004602052604090206002015460808c01515110155b15610f4857610f488c8c604001516110bc565b505050505050505050505050565b610f5e6116ea565b50600090815260036020908152604091829020825160808101845281546060820190815281528351808401855260018301548152818401528351928301845260029091015482529182015290565b6000828201838110156106b95760405162461bcd60e51b815260040161025390611d52565b600082610fe0575060006102a9565b82820282848281610fed57fe5b04146106b95760405162461bcd60e51b815260040161025390611e9f565b6109638363a9059cbb60e01b848460405160240161102a929190611b85565b60408051601f198184030181529190526020810180516001600160e01b03166001600160e01b031990931692909217909152611506565b80516000906106b9908490670de0b6b3a7640000611595565b60006106b983836040518060400160405280601a81526020017f536166654d6174683a206469766973696f6e206279207a65726f0000000000008152506115b3565b6110c461173b565b5060008281526002602081815260408084206001600160a01b038087168652908352818520825160a0810184528154815260018201548316818601908152958201548316818501526003808301548416606083015284518087018652600493840154815260808301528988529094528286209451955492516331a9108f60e11b81529395936111e89390921691636352211e91611163918a9101612105565b60206040518083038186803b15801561117b57600080fd5b505afa15801561118f573d6000803e3d6000fd5b505050506040513d601f19601f820116820180604052508101906111b39190611828565b60408051602081019091526002850154815285516111d1919061069c565b6001600160a01b038416919063ffffffff61100b16565b60005460405163e0fd045f60e01b8152611288916001600160a01b03169063e0fd045f9061121a908990600401612105565b60206040518083038186803b15801561123257600080fd5b505afa158015611246573d6000803e3d6000fd5b505050506040513d601f19601f8201168201806040525081019061126a9190611828565b60408051602081019091526001850154815285516111d1919061069c565b6000546040516304ec739360e51b8152611325916001600160a01b031690639d8e7260906112ba908990600401612105565b60206040518083038186803b1580156112d257600080fd5b505afa1580156112e6573d6000803e3d6000fd5b505050506040513d601f19601f8201168201806040525081019061130a9190611828565b60408051602081019091528454815285516111d1919061069c565b6000546060840151604051630f6b630f60e41b81526001600160a01b039092169163f6b630f09161135b9189919060040161210e565b600060405180830381600087803b15801561137557600080fd5b505af1158015611389573d6000803e3d6000fd5b5050604080516020808201835260808801515160008b81526003909252929020600101549093508392506113df91906113d390816064670de0b6b3a764000063ffffffff610fd116565b9063ffffffff6114c416565b905251600283015560808301515182556040517fb6ef177c7a6f32b283a49b5e0463a39240cdaa278028dfb219480d050e8ee54c90611421908790869061214d565b60405180910390a15050506000918252600460208181526040808520858155600180820180546001600160a01b031990811690915560029283018890558285528388206001600160a01b039790971688529590935290852085815591820180548516905581018054841690556003810180549093169092550155565b6114be846323b872dd60e01b85858560405160240161102a93929190611b61565b50505050565b60006106b983836040518060400160405280601e81526020017f536166654d6174683a207375627472616374696f6e206f766572666c6f7700008152506115ea565b606061155b826040518060400160405280602081526020017f5361666545524332303a206c6f772d6c6576656c2063616c6c206661696c6564815250856001600160a01b03166116169092919063ffffffff16565b80519091501561096357808060200190518101906115799190611844565b6109635760405162461bcd60e51b815260040161025390612091565b60006115ab826106ad868663ffffffff610fd116565b949350505050565b600081836115d45760405162461bcd60e51b81526004016102539190611ba9565b5060008385816115e057fe5b0495945050505050565b6000818484111561160e5760405162461bcd60e51b81526004016102539190611ba9565b505050900390565b60606115ab8484600085606061162b856116e4565b6116475760405162461bcd60e51b815260040161025390612023565b60006060866001600160a01b031685876040516116649190611b17565b60006040518083038185875af1925050503d80600081146116a1576040519150601f19603f3d011682016040523d82523d6000602084013e6116a6565b606091505b509150915081156116ba5791506115ab9050565b8051156116ca5780518082602001fd5b8360405162461bcd60e51b81526004016102539190611ba9565b3b151590565b60405180606001604052806116fd611781565b815260200161170a611781565b8152602001611717611781565b905290565b6040805160608101825260008082526020820152908101611717611781565b6040518060a001604052806000815260200160006001600160a01b0316815260200160006001600160a01b0316815260200160006001600160a01b031681526020016117175b6040518060200160405280600081525090565b6000606082840312156117a5578081fd5b6117af60606121a6565b90506117bb83836117e7565b81526117ca83602084016117e7565b60208201526117dc83604084016117e7565b604082015292915050565b6000602082840312156117f8578081fd5b61180260206121a6565b9135825250919050565b60006020828403121561181d578081fd5b81356106b9816121f9565b600060208284031215611839578081fd5b81516106b9816121f9565b600060208284031215611855578081fd5b815180151581146106b9578182fd5b600060608284031215611875578081fd5b6106b98383611794565b60008060408385031215611891578081fd5b61189b84846117e7565b946020939093013593505050565b6000602082840312156118ba578081fd5b5035919050565b6000602082840312156118d2578081fd5b5051919050565b600080604083850312156118eb578182fd5b8235915060208301356118fd816121f9565b809150509250929050565b600080828403608081121561191b578283fd5b833592506060601f1982011215611930578182fd5b5061193b60606121a6565b602084013581526040840135611950816121f9565b602082015261196285606086016117e7565b6040820152809150509250929050565b60008060808385031215611984578182fd5b823591506119958460208501611794565b90509250929050565b60008082840360c08112156119b1578283fd5b8335925060a0601f19820112156119c6578182fd5b506020830190509250929050565b600080600083850360e08112156119e9578182fd5b8435935060a0601f19820112156119fe578182fd5b50611a0960a06121a6565b602085013581526040850135611a1e816121f9565b60208201526060850135611a31816121f9565b60408201526080850135611a44816121f9565b6060820152611a568660a087016117e7565b6080820152915060c0840135611a6b816121f9565b809150509250925092565b60008060408385031215611a88578081fd5b50508035926020909101359150565b805182526020808201516001600160a01b03169083015260409081015151910152565b8051518252602080820151519083015260409081015151910152565b805182526020808201516001600160a01b03908116918401919091526040808301518216908401526060808301519091169083015260809081015151910152565b60008251611b298184602087016121cd565b9190910192915050565b6001600160a01b0391909116815260200190565b6001600160a01b0392831681529116602082015260400190565b6001600160a01b039384168152919092166020820152604081019190915260600190565b6001600160a01b03929092168252602082015260400190565b901515815260200190565b6000602082528251806020840152611bc88160408501602087016121cd565b601f01601f19169190910160400192915050565b6020808252602b908201527f4d61726b65743a20496e76616c696420626964207368617265732c206d75737460408201526a02073756d20746f203130360ac1b606082015260800190565b60208082526033908201527f4d61726b65743a20616c6c6f77616e6365206e6f74206869676820656e6f756760408201527234103a37903a3930b739b332b9103a37b5b2b760691b606082015260800190565b6020808252602a908201527f4d61726b65743a204e6f7420656e6f7567682066756e647320746f207472616e60408201526939b332b9103a37b5b2b760b11b606082015260800190565b60208082526027908201527f4d61726b65743a2042696420696e76616c696420666f722073686172652073706040820152666c697474696e6760c81b606082015260800190565b60208082526027908201527f4d61726b65743a2041736b20696e76616c696420666f722073686172652073706040820152666c697474696e6760c81b606082015260800190565b6020808252601b908201527f536166654d6174683a206164646974696f6e206f766572666c6f770000000000604082015260600190565b60208082526025908201527f4d61726b65743a2063616e6e6f742072656d6f76652062696420616d6f756e746040820152640206f6620360dc1b606082015260800190565b6020808252601b908201527f4d61726b65743a20696e76616c69642073656c6c206f6e206665650000000000604082015260600190565b6020808252601e908201527f4d61726b65743a2063616e6e6f742062696420616d6f756e74206f6620300000604082015260600190565b6020808252601e908201527f4d61726b65743a2063616e6e6f742061636365707420626964206f6620300000604082015260600190565b60208082526012908201527126b0b935b2ba1d1027b7363c9037bbb732b960711b604082015260600190565b60208082526021908201527f536166654d6174683a206d756c7469706c69636174696f6e206f766572666c6f6040820152607760f81b606082015260800190565b6020808252601d908201527f4d61726b65743a20556e65787065637465642062696420666f756e642e000000604082015260600190565b6020808252602f908201527f4d61726b65743a2053656c6c206f6e2066656520696e76616c696420666f722060408201526e73686172652073706c697474696e6760881b606082015260800190565b6020808252601b908201527f4d61726b65743a204f6e6c7920746f6b656e20636f6e74726163740000000000604082015260600190565b60208082526022908201527f4d61726b65743a204269646465722063616e6e6f742062652030206164647265604082015261737360f01b606082015260800190565b60208082526024908201527f4d61726b65743a20496e76616c6964206269642073686172657320666f72207460408201526337b5b2b760e11b606082015260800190565b6020808252601d908201527f416464726573733a2063616c6c20746f206e6f6e2d636f6e7472616374000000604082015260600190565b6020808252601a908201527f4d61726b65743a20416c726561647920636f6e66696775726564000000000000604082015260600190565b6020808252602a908201527f5361666545524332303a204552433230206f7065726174696f6e20646964206e6040820152691bdd081cdd58d8d9595960b21b606082015260800190565b606081016102a98284611a97565b606081016102a98284611aba565b60a081016102a98284611ad6565b90815260200190565b9182526001600160a01b0316602082015260400190565b828152608081016106b96020830184611a97565b828152608081016106b96020830184611aba565b82815260c081016106b96020830184611ad6565b9182528054602083015260018101546001600160a01b03908116604084015260028201548116606084015260038201541660808301526004015460a082015260c00190565b60405181810167ffffffffffffffff811182821017156121c557600080fd5b604052919050565b60005b838110156121e85781810151838201526020016121d0565b838111156114be5750506000910152565b6001600160a01b038116811461220e57600080fd5b5056fea26469706673582212201898d11e9aea3675260a6e5ce7028ffb1daeac2df36f8db21f38c11ebd12071a64736f6c63430006080033",
  "linkReferences": {},
  "deployedLinkReferences": {}
}