{
  "_format": "hh-sol-artifact-1",
  "contractName": "Market",
  "sourceName": "contracts/Market.sol",
  "abi": [
    {
      "inputs": [],
      "stateMutability": "nonpayable",
      "type": "constructor"
    },
    {
      "anonymous": false,
      "inputs": [
        {
          "indexed": false,
          "internalType": "uint256",
          "name": "tokenId",
          "type": "uint256"
        },
        {
          "components": [
            {
              "internalType": "uint256",
              "name": "amount",
              "type": "uint256"
            },
            {
              "internalType": "address",
              "name": "currency",
              "type": "address"
            },
            {
              "components": [
                {
                  "internalType": "uint256",
                  "name": "value",
                  "type": "uint256"
                }
              ],
              "internalType": "struct Decimal.D256",
              "name": "sellOnFee",
              "type": "tuple"
            }
          ],
          "indexed": false,
          "internalType": "struct Market.Ask",
          "name": "ask",
          "type": "tuple"
        }
      ],
      "name": "AskCreated",
      "type": "event"
    },
    {
      "anonymous": false,
      "inputs": [
        {
          "indexed": false,
          "internalType": "uint256",
          "name": "tokenId",
          "type": "uint256"
        },
        {
          "components": [
            {
              "internalType": "uint256",
              "name": "amount",
              "type": "uint256"
            },
            {
              "internalType": "address",
              "name": "currency",
              "type": "address"
            },
            {
              "internalType": "address",
              "name": "bidder",
              "type": "address"
            },
            {
              "internalType": "address",
              "name": "recipient",
              "type": "address"
            },
            {
              "components": [
                {
                  "internalType": "uint256",
                  "name": "value",
                  "type": "uint256"
                }
              ],
              "internalType": "struct Decimal.D256",
              "name": "sellOnFee",
              "type": "tuple"
            }
          ],
          "indexed": false,
          "internalType": "struct Market.Bid",
          "name": "bid",
          "type": "tuple"
        }
      ],
      "name": "BidCreated",
      "type": "event"
    },
    {
      "anonymous": false,
      "inputs": [
        {
          "indexed": false,
          "internalType": "uint256",
          "name": "tokenId",
          "type": "uint256"
        },
        {
          "components": [
            {
              "internalType": "uint256",
              "name": "amount",
              "type": "uint256"
            },
            {
              "internalType": "address",
              "name": "currency",
              "type": "address"
            },
            {
              "internalType": "address",
              "name": "bidder",
              "type": "address"
            },
            {
              "internalType": "address",
              "name": "recipient",
              "type": "address"
            },
            {
              "components": [
                {
                  "internalType": "uint256",
                  "name": "value",
                  "type": "uint256"
                }
              ],
              "internalType": "struct Decimal.D256",
              "name": "sellOnFee",
              "type": "tuple"
            }
          ],
          "indexed": false,
          "internalType": "struct Market.Bid",
          "name": "bid",
          "type": "tuple"
        }
      ],
      "name": "BidFinalized",
      "type": "event"
    },
    {
      "anonymous": false,
      "inputs": [
        {
          "indexed": false,
          "internalType": "uint256",
          "name": "tokenId",
          "type": "uint256"
        },
        {
          "components": [
            {
              "internalType": "uint256",
              "name": "amount",
              "type": "uint256"
            },
            {
              "internalType": "address",
              "name": "currency",
              "type": "address"
            },
            {
              "internalType": "address",
              "name": "bidder",
              "type": "address"
            },
            {
              "internalType": "address",
              "name": "recipient",
              "type": "address"
            },
            {
              "components": [
                {
                  "internalType": "uint256",
                  "name": "value",
                  "type": "uint256"
                }
              ],
              "internalType": "struct Decimal.D256",
              "name": "sellOnFee",
              "type": "tuple"
            }
          ],
          "indexed": false,
          "internalType": "struct Market.Bid",
          "name": "bid",
          "type": "tuple"
        }
      ],
      "name": "BidRemoved",
      "type": "event"
    },
    {
      "anonymous": false,
      "inputs": [
        {
          "indexed": false,
          "internalType": "uint256",
          "name": "tokenId",
          "type": "uint256"
        },
        {
          "components": [
            {
              "components": [
                {
                  "internalType": "uint256",
                  "name": "value",
                  "type": "uint256"
                }
              ],
              "internalType": "struct Decimal.D256",
              "name": "prevOwner",
              "type": "tuple"
            },
            {
              "components": [
                {
                  "internalType": "uint256",
                  "name": "value",
                  "type": "uint256"
                }
              ],
              "internalType": "struct Decimal.D256",
              "name": "creator",
              "type": "tuple"
            },
            {
              "components": [
                {
                  "internalType": "uint256",
                  "name": "value",
                  "type": "uint256"
                }
              ],
              "internalType": "struct Decimal.D256",
              "name": "owner",
              "type": "tuple"
            }
          ],
          "indexed": false,
          "internalType": "struct Market.BidShares",
          "name": "bidShares",
          "type": "tuple"
        }
      ],
      "name": "BidShareUpdated",
      "type": "event"
    },
    {
      "inputs": [
        {
          "components": [
            {
              "internalType": "uint256",
              "name": "value",
              "type": "uint256"
            }
          ],
          "internalType": "struct Decimal.D256",
          "name": "sharePercentage",
          "type": "tuple"
        },
        {
          "internalType": "uint256",
          "name": "amount",
          "type": "uint256"
        }
      ],
      "name": "_splitShare",
      "outputs": [
        {
          "internalType": "uint256",
          "name": "",
          "type": "uint256"
        }
      ],
      "stateMutability": "pure",
      "type": "function"
    },
    {
      "inputs": [
        {
          "internalType": "uint256",
          "name": "tokenId",
          "type": "uint256"
        },
        {
          "components": [
            {
              "internalType": "uint256",
              "name": "amount",
              "type": "uint256"
            },
            {
              "internalType": "address",
              "name": "currency",
              "type": "address"
            },
            {
              "internalType": "address",
              "name": "bidder",
              "type": "address"
            },
            {
              "internalType": "address",
              "name": "recipient",
              "type": "address"
            },
            {
              "components": [
                {
                  "internalType": "uint256",
                  "name": "value",
                  "type": "uint256"
                }
              ],
              "internalType": "struct Decimal.D256",
              "name": "sellOnFee",
              "type": "tuple"
            }
          ],
          "internalType": "struct Market.Bid",
          "name": "expectedBid",
          "type": "tuple"
        }
      ],
      "name": "acceptBid",
      "outputs": [],
      "stateMutability": "nonpayable",
      "type": "function"
    },
    {
      "inputs": [
        {
          "internalType": "uint256",
          "name": "tokenId",
          "type": "uint256"
        },
        {
          "components": [
            {
              "components": [
                {
                  "internalType": "uint256",
                  "name": "value",
                  "type": "uint256"
                }
              ],
              "internalType": "struct Decimal.D256",
              "name": "prevOwner",
              "type": "tuple"
            },
            {
              "components": [
                {
                  "internalType": "uint256",
                  "name": "value",
                  "type": "uint256"
                }
              ],
              "internalType": "struct Decimal.D256",
              "name": "creator",
              "type": "tuple"
            },
            {
              "components": [
                {
                  "internalType": "uint256",
                  "name": "value",
                  "type": "uint256"
                }
              ],
              "internalType": "struct Decimal.D256",
              "name": "owner",
              "type": "tuple"
            }
          ],
          "internalType": "struct Market.BidShares",
          "name": "bidShares",
          "type": "tuple"
        }
      ],
      "name": "addBidShares",
      "outputs": [],
      "stateMutability": "nonpayable",
      "type": "function"
    },
    {
      "inputs": [
        {
          "internalType": "uint256",
          "name": "tokenId",
          "type": "uint256"
        },
        {
          "internalType": "address",
          "name": "bidder",
          "type": "address"
        }
      ],
      "name": "bidForTokenBidder",
      "outputs": [
        {
          "components": [
            {
              "internalType": "uint256",
              "name": "amount",
              "type": "uint256"
            },
            {
              "internalType": "address",
              "name": "currency",
              "type": "address"
            },
            {
              "internalType": "address",
              "name": "bidder",
              "type": "address"
            },
            {
              "internalType": "address",
              "name": "recipient",
              "type": "address"
            },
            {
              "components": [
                {
                  "internalType": "uint256",
                  "name": "value",
                  "type": "uint256"
                }
              ],
              "internalType": "struct Decimal.D256",
              "name": "sellOnFee",
              "type": "tuple"
            }
          ],
          "internalType": "struct Market.Bid",
          "name": "",
          "type": "tuple"
        }
      ],
      "stateMutability": "view",
      "type": "function"
    },
    {
      "inputs": [
        {
          "internalType": "uint256",
          "name": "tokenId",
          "type": "uint256"
        }
      ],
      "name": "bidSharesForToken",
      "outputs": [
        {
          "components": [
            {
              "components": [
                {
                  "internalType": "uint256",
                  "name": "value",
                  "type": "uint256"
                }
              ],
              "internalType": "struct Decimal.D256",
              "name": "prevOwner",
              "type": "tuple"
            },
            {
              "components": [
                {
                  "internalType": "uint256",
                  "name": "value",
                  "type": "uint256"
                }
              ],
              "internalType": "struct Decimal.D256",
              "name": "creator",
              "type": "tuple"
            },
            {
              "components": [
                {
                  "internalType": "uint256",
                  "name": "value",
                  "type": "uint256"
                }
              ],
              "internalType": "struct Decimal.D256",
              "name": "owner",
              "type": "tuple"
            }
          ],
          "internalType": "struct Market.BidShares",
          "name": "",
          "type": "tuple"
        }
      ],
      "stateMutability": "view",
      "type": "function"
    },
    {
      "inputs": [
        {
          "internalType": "address",
          "name": "tokenContractAddress",
          "type": "address"
        }
      ],
      "name": "configure",
      "outputs": [],
      "stateMutability": "nonpayable",
      "type": "function"
    },
    {
      "inputs": [
        {
          "internalType": "uint256",
          "name": "tokenId",
          "type": "uint256"
        }
      ],
      "name": "currentAskForToken",
      "outputs": [
        {
          "components": [
            {
              "internalType": "uint256",
              "name": "amount",
              "type": "uint256"
            },
            {
              "internalType": "address",
              "name": "currency",
              "type": "address"
            },
            {
              "components": [
                {
                  "internalType": "uint256",
                  "name": "value",
                  "type": "uint256"
                }
              ],
              "internalType": "struct Decimal.D256",
              "name": "sellOnFee",
              "type": "tuple"
            }
          ],
          "internalType": "struct Market.Ask",
          "name": "",
          "type": "tuple"
        }
      ],
      "stateMutability": "view",
      "type": "function"
    },
    {
      "inputs": [
        {
          "internalType": "uint256",
          "name": "tokenId",
          "type": "uint256"
        },
        {
          "internalType": "uint256",
          "name": "bidAmount",
          "type": "uint256"
        }
      ],
      "name": "isValidBid",
      "outputs": [
        {
          "internalType": "bool",
          "name": "",
          "type": "bool"
        }
      ],
      "stateMutability": "view",
      "type": "function"
    },
    {
      "inputs": [
        {
          "components": [
            {
              "components": [
                {
                  "internalType": "uint256",
                  "name": "value",
                  "type": "uint256"
                }
              ],
              "internalType": "struct Decimal.D256",
              "name": "prevOwner",
              "type": "tuple"
            },
            {
              "components": [
                {
                  "internalType": "uint256",
                  "name": "value",
                  "type": "uint256"
                }
              ],
              "internalType": "struct Decimal.D256",
              "name": "creator",
              "type": "tuple"
            },
            {
              "components": [
                {
                  "internalType": "uint256",
                  "name": "value",
                  "type": "uint256"
                }
              ],
              "internalType": "struct Decimal.D256",
              "name": "owner",
              "type": "tuple"
            }
          ],
          "internalType": "struct Market.BidShares",
          "name": "bidShares",
          "type": "tuple"
        }
      ],
      "name": "isValidBidShares",
      "outputs": [
        {
          "internalType": "bool",
          "name": "",
          "type": "bool"
        }
      ],
      "stateMutability": "pure",
      "type": "function"
    },
    {
      "inputs": [
        {
          "internalType": "uint256",
          "name": "tokenId",
          "type": "uint256"
        }
      ],
      "name": "minBidForToken",
      "outputs": [
        {
          "internalType": "uint256",
          "name": "",
          "type": "uint256"
        }
      ],
      "stateMutability": "view",
      "type": "function"
    },
    {
      "inputs": [
        {
          "internalType": "uint256",
          "name": "tokenId",
          "type": "uint256"
        },
        {
          "internalType": "address",
          "name": "bidder",
          "type": "address"
        }
      ],
      "name": "removeBid",
      "outputs": [],
      "stateMutability": "nonpayable",
      "type": "function"
    },
    {
      "inputs": [
        {
          "internalType": "uint256",
          "name": "tokenId",
          "type": "uint256"
        },
        {
          "components": [
            {
              "internalType": "uint256",
              "name": "amount",
              "type": "uint256"
            },
            {
              "internalType": "address",
              "name": "currency",
              "type": "address"
            },
            {
              "components": [
                {
                  "internalType": "uint256",
                  "name": "value",
                  "type": "uint256"
                }
              ],
              "internalType": "struct Decimal.D256",
              "name": "sellOnFee",
              "type": "tuple"
            }
          ],
          "internalType": "struct Market.Ask",
          "name": "ask",
          "type": "tuple"
        }
      ],
      "name": "setAsk",
      "outputs": [],
      "stateMutability": "nonpayable",
      "type": "function"
    },
    {
      "inputs": [
        {
          "internalType": "uint256",
          "name": "tokenId",
          "type": "uint256"
        },
        {
          "components": [
            {
              "internalType": "uint256",
              "name": "amount",
              "type": "uint256"
            },
            {
              "internalType": "address",
              "name": "currency",
              "type": "address"
            },
            {
              "internalType": "address",
              "name": "bidder",
              "type": "address"
            },
            {
              "internalType": "address",
              "name": "recipient",
              "type": "address"
            },
            {
              "components": [
                {
                  "internalType": "uint256",
                  "name": "value",
                  "type": "uint256"
                }
              ],
              "internalType": "struct Decimal.D256",
              "name": "sellOnFee",
              "type": "tuple"
            }
          ],
          "internalType": "struct Market.Bid",
          "name": "bid",
          "type": "tuple"
        },
        {
          "internalType": "address",
          "name": "spender",
          "type": "address"
        }
      ],
      "name": "setBid",
      "outputs": [],
      "stateMutability": "nonpayable",
      "type": "function"
    },
    {
      "inputs": [],
      "name": "tokenContract",
      "outputs": [
        {
          "internalType": "address",
          "name": "",
          "type": "address"
        }
      ],
      "stateMutability": "view",
      "type": "function"
    }
  ],
  "bytecode": "0x608060405234801561001057600080fd5b506001805460ff60a01b196001600160a01b031990911633171690556123c48061003b6000396000f3fe608060405234801561001057600080fd5b50600436106100ea5760003560e01c806385f7c3541161008c578063ad827dc411610066578063ad827dc4146101e1578063ba33939914610201578063bdb5869814610214578063f9ce058214610227576100ea565b806385f7c354146101a857806389923d56146101bb5780638ca4ce19146101ce576100ea565b806355a373d6116100c857806355a373d61461014b578063578064f61461016057806375cb267214610180578063776a083514610195576100ea565b806302e8fe13146100ef5780630bc85c7c14610118578063360636eb14610138575b600080fd5b6101026100fd366004611bf3565b610247565b60405161010f9190611d1b565b60405180910390f35b61012b610126366004611a26565b610270565b60405161010f9190612282565b6101026101463660046119e1565b6103f7565b610153610449565b60405161010f9190611cb0565b61017361016e366004611a26565b610458565b60405161010f9190612258565b61019361018e366004611989565b6104a7565b005b6101936101a3366004611a56565b610531565b6101936101b6366004611a85565b610656565b61012b6101c93660046119fc565b6107f0565b6101936101dc366004611aef565b61080d565b6101f46101ef366004611a56565b6108c4565b60405161010f9190612274565b61019361020f366004611b1b565b61093a565b610193610222366004611b51565b610ab5565b61023a610235366004611a26565b6110a3565b60405161010f9190612266565b60008115801590610267575061025c83610270565b828161026457fe5b06155b90505b92915050565b600061027a611867565b5060008281526003602090815260409182902082516080810184528154606082019081528152835180840185526001830154815281840152835192830184526002909101548252918201526102ce816103f7565b6102f35760405162461bcd60e51b81526004016102ea9061215c565b60405180910390fd5b6000808060125b80600a0a8560200151600001518161030e57fe5b066103325761032b60646012839003600a0a63ffffffff6110f916565b935061033b565b600019016102fa565b5060125b80600a0a8560400151600001518161035357fe5b066103775761037060646012839003600a0a63ffffffff6110f916565b9250610380565b6000190161033f565b5060125b845151600a82900a908161039457fe5b066103b8576103b160646012839003600a0a63ffffffff6110f916565b91506103c1565b60001901610384565b5060006103d76103d18585611133565b83611133565b90506103ec68056bc75e2d631000008261114a565b979650505050505050565b60006104126064670de0b6b3a764000063ffffffff6110f916565b8251516040840151516020850151516104429291610436919063ffffffff61115916565b9063ffffffff61115916565b1492915050565b6000546001600160a01b031681565b610460611899565b5060009081526004602090815260409182902082516060810184528154815260018201546001600160a01b0316818401528351928301845260029091015482529182015290565b6001546001600160a01b031633146104d15760405162461bcd60e51b81526004016102ea90611ff0565b600154600160a01b900460ff16156104fb5760405162461bcd60e51b81526004016102ea906121d7565b600080546001600160a01b039092166001600160a01b03199092169190911790556001805460ff60a01b1916600160a01b179055565b6000546001600160a01b0316331461055b5760405162461bcd60e51b81526004016102ea906120e3565b60008281526002602090815260408083206001600160a01b0380861685529252909120805460018201549192909116816105a75760405162461bcd60e51b81526004016102ea90611f06565b60405181907fcbebd567b8a5c57f63ec61dc46746aab28daff6bdd1f4a6a0a305c17fa5465c9906105db90889087906122de565b60405180910390a160008681526002602081815260408084206001600160a01b03808b168652925283208381556001810180546001600160a01b031990811690915592810180548416905560038101805490931690925560049091019190915561064e908216868563ffffffff61117e16565b505050505050565b6000546001600160a01b031633146106805760405162461bcd60e51b81526004016102ea906120e3565b61068e828260000151610247565b6106aa5760405162461bcd60e51b81526004016102ea90611e88565b60006106c56064670de0b6b3a764000063ffffffff6110f916565b90506106cf611867565b5060008381526003602090815260409182902082516080810184528154606082019081528152835180840185526001830154815281840152835192830184526002909101548252918201526107336064670de0b6b3a764000063ffffffff6110f916565b60408401515160208301515161074e9163ffffffff61115916565b111561076c5760405162461bcd60e51b81526004016102ea90611f4b565b60008481526004602090815260409182902085518155908501516001820180546001600160a01b0319166001600160a01b039092169190911790558482015151600290910155517f3e1965cc9a7ae4327b07753c6e0b6ba56bcc25c1d799b82bd2d4a51bb0779d0c906107e290869086906122a2565b60405180910390a150505050565b6000610267606461080184866111d4565b9063ffffffff6111ed16565b6000546001600160a01b031633146108375760405162461bcd60e51b81526004016102ea906120e3565b610840816103f7565b61085c5760405162461bcd60e51b81526004016102ea90611d59565b6000828152600360209081526040918290208351518155908301515160018201558183015151600290910155517fdb88d4e96cb8697aaee5e575ee5f460817709a1dfcfbf7ba15192e90b5c86f9f906108b890849084906122b6565b60405180910390a15050565b6108cc6118b8565b5060009182526002602081815260408085206001600160a01b039485168652825293849020845160a081018652815481526001820154851681840152928101548416838601526003810154909316606083015283519081019093526004909101548252608081019190915290565b6000546001600160a01b031633146109645760405162461bcd60e51b81526004016102ea906120e3565b61096c6118b8565b600083815260026020526040808220919061098d9060608601908601611989565b6001600160a01b0390811682526020808301939093526040918201600020825160a0810184528154815260018201548316818601526002820154831681850152600382015490921660608301528251938401909252600490910154825260808101919091528051909150610a135760405162461bcd60e51b81526004016102ea90611fb9565b80518235148015610a485750610a2f6040830160208401611989565b6001600160a01b031681602001516001600160a01b0316145b8015610a5c57506080818101515190830135145b610a785760405162461bcd60e51b81526004016102ea9061205d565b610a86838260000151610247565b610aa25760405162461bcd60e51b81526004016102ea90611e41565b610ab083826040015161122f565b505050565b6000546001600160a01b03163314610adf5760405162461bcd60e51b81526004016102ea906120e3565b60208201518251604051636eb1769f60e11b815283929190829082906001600160a01b0383169063dd62ed3e90610b1c9088903090600401611cc4565b60206040518083038186803b158015610b3457600080fd5b505afa158015610b48573d6000803e3d6000fd5b505050506040513d601f19601f82011682018060405250810190610b6c9190611a3e565b1015610b8a5760405162461bcd60e51b81526004016102ea90611da4565b6040516370a0823160e01b815282906001600160a01b038316906370a0823190610bb8908890600401611cb0565b60206040518083038186803b158015610bd057600080fd5b505afa158015610be4573d6000803e3d6000fd5b505050506040513d601f19601f82011682018060405250810190610c089190611a3e565b1015610c265760405162461bcd60e51b81526004016102ea90611df7565b610c2e611867565b506000878152600360209081526040918290208251608081018452815460608201908152815283518084018552600183015481528184015283519283018452600290910154825291820152610c926064670de0b6b3a764000063ffffffff6110f916565b608088015151602083015151610cad9163ffffffff61115916565b1115610ccb5760405162461bcd60e51b81526004016102ea90612094565b60408701516001600160a01b0316610cf55760405162461bcd60e51b81526004016102ea9061211a565b8651610d135760405162461bcd60e51b81526004016102ea90611f82565b60008881526002602090815260408083208a8201516001600160a01b031684529091529020805415610d4d57610d4d898960400151610531565b60208801516040516370a0823160e01b81526000906001600160a01b038316906370a0823190610d81903090600401611cb0565b60206040518083038186803b158015610d9957600080fd5b505afa158015610dad573d6000803e3d6000fd5b505050506040513d601f19601f82011682018060405250810190610dd19190611a3e565b8a51909150610df4906001600160a01b038416908b90309063ffffffff61161016565b60208a01516040516370a0823160e01b81526000916001600160a01b0316906370a0823190610e27903090600401611cb0565b60206040518083038186803b158015610e3f57600080fd5b505afa158015610e53573d6000803e3d6000fd5b505050506040513d601f19601f82011682018060405250810190610e779190611a3e565b90506040518060a00160405280610e97848461163790919063ffffffff16565b81526020018c602001516001600160a01b031681526020018c604001516001600160a01b031681526020018c606001516001600160a01b031681526020018c60800151815250600260008e815260200190815260200160002060008d604001516001600160a01b03166001600160a01b031681526020019081526020016000206000820151816000015560208201518160010160006101000a8154816001600160a01b0302191690836001600160a01b0316021790555060408201518160020160006101000a8154816001600160a01b0302191690836001600160a01b0316021790555060608201518160030160006101000a8154816001600160a01b0302191690836001600160a01b031602179055506080820151816004016000820151816000015550509050507f327bc9021bfbee403a11b13dd6c819999006aff090cc129f07e9f2840af38dd58c8c604051610ff19291906122ca565b60405180910390a160008c8152600460205260409020600101546001600160a01b031615801590611045575060008c815260046020908152604090912060010154908c01516001600160a01b039081169116145b8015611060575060008c8152600460205260409020548b5110155b8015611082575060008c81526004602052604090206002015460808c01515110155b15611095576110958c8c6040015161122f565b505050505050505050505050565b6110ab611867565b50600090815260036020908152604091829020825160808101845281546060820190815281528351808401855260018301548152818401528351928301845260029091015482529182015290565b6000826111085750600061026a565b8282028284828161111557fe5b04146102675760405162461bcd60e51b81526004016102ea9061201c565b6000818310156111435781610267565b5090919050565b60008183106111435781610267565b6000828201838110156102675760405162461bcd60e51b81526004016102ea90611ecf565b610ab08363a9059cbb60e01b848460405160240161119d929190611d02565b60408051601f198184030181529190526020810180516001600160e01b03166001600160e01b031990931692909217909152611679565b8051600090610267908490670de0b6b3a7640000611708565b600061026783836040518060400160405280601a81526020017f536166654d6174683a206469766973696f6e206279207a65726f000000000000815250611728565b6112376118b8565b5060008281526002602081815260408084206001600160a01b038087168652908352818520825160a0810184528154815260018201548316818601908152958201548316818501526003808301548416606083015284518087018652600493840154815260808301528988529094528286209451955492516331a9108f60e11b815293959361135b9390921691636352211e916112d6918a9101612282565b60206040518083038186803b1580156112ee57600080fd5b505afa158015611302573d6000803e3d6000fd5b505050506040513d601f19601f8201168201806040525081019061132691906119a5565b604080516020810190915260028501548152855161134491906107f0565b6001600160a01b038416919063ffffffff61117e16565b60005460405163e0fd045f60e01b81526113fb916001600160a01b03169063e0fd045f9061138d908990600401612282565b60206040518083038186803b1580156113a557600080fd5b505afa1580156113b9573d6000803e3d6000fd5b505050506040513d601f19601f820116820180604052508101906113dd91906119a5565b604080516020810190915260018501548152855161134491906107f0565b6000546040516304ec739360e51b8152611498916001600160a01b031690639d8e72609061142d908990600401612282565b60206040518083038186803b15801561144557600080fd5b505afa158015611459573d6000803e3d6000fd5b505050506040513d601f19601f8201168201806040525081019061147d91906119a5565b604080516020810190915284548152855161134491906107f0565b6000546060840151604051630f6b630f60e41b81526001600160a01b039092169163f6b630f0916114ce9189919060040161228b565b600060405180830381600087803b1580156114e857600080fd5b505af11580156114fc573d6000803e3d6000fd5b5050604080516020808201835260808801515160008b8152600390925292902060010154909350839250611552919061154690816064670de0b6b3a764000063ffffffff6110f916565b9063ffffffff61163716565b905251600283015560808301515182556040517fb6ef177c7a6f32b283a49b5e0463a39240cdaa278028dfb219480d050e8ee54c9061159490879086906122ca565b60405180910390a15050506000918252600460208181526040808520858155600180820180546001600160a01b031990811690915560029283018890558285528388206001600160a01b039790971688529590935290852085815591820180548516905581018054841690556003810180549093169092550155565b611631846323b872dd60e01b85858560405160240161119d93929190611cde565b50505050565b600061026783836040518060400160405280601e81526020017f536166654d6174683a207375627472616374696f6e206f766572666c6f77000081525061175f565b60606116ce826040518060400160405280602081526020017f5361666545524332303a206c6f772d6c6576656c2063616c6c206661696c6564815250856001600160a01b031661178b9092919063ffffffff16565b805190915015610ab057808060200190518101906116ec91906119c1565b610ab05760405162461bcd60e51b81526004016102ea9061220e565b600061171e82610801868663ffffffff6110f916565b90505b9392505050565b600081836117495760405162461bcd60e51b81526004016102ea9190611d26565b50600083858161175557fe5b0495945050505050565b600081848411156117835760405162461bcd60e51b81526004016102ea9190611d26565b505050900390565b606061171e848460008560606117a085611861565b6117bc5760405162461bcd60e51b81526004016102ea906121a0565b60006060866001600160a01b031685876040516117d99190611c94565b60006040518083038185875af1925050503d8060008114611816576040519150601f19603f3d011682016040523d82523d6000602084013e61181b565b606091505b5091509150811561182f5791506118599050565b80511561183f5780518082602001fd5b8360405162461bcd60e51b81526004016102ea9190611d26565b949350505050565b3b151590565b604051806060016040528061187a6118fe565b81526020016118876118fe565b81526020016118946118fe565b905290565b60408051606081018252600080825260208201529081016118946118fe565b6040518060a001604052806000815260200160006001600160a01b0316815260200160006001600160a01b0316815260200160006001600160a01b031681526020016118945b6040518060200160405280600081525090565b600060608284031215611922578081fd5b61192c6060612323565b90506119388383611964565b81526119478360208401611964565b60208201526119598360408401611964565b604082015292915050565b600060208284031215611975578081fd5b61197f6020612323565b9135825250919050565b60006020828403121561199a578081fd5b813561026781612376565b6000602082840312156119b6578081fd5b815161026781612376565b6000602082840312156119d2578081fd5b81518015158114610267578182fd5b6000606082840312156119f2578081fd5b6102678383611911565b60008060408385031215611a0e578081fd5b611a188484611964565b946020939093013593505050565b600060208284031215611a37578081fd5b5035919050565b600060208284031215611a4f578081fd5b5051919050565b60008060408385031215611a68578182fd5b823591506020830135611a7a81612376565b809150509250929050565b6000808284036080811215611a98578283fd5b833592506060601f1982011215611aad578182fd5b50611ab86060612323565b602084013581526040840135611acd81612376565b6020820152611adf8560608601611964565b6040820152809150509250929050565b60008060808385031215611b01578182fd5b82359150611b128460208501611911565b90509250929050565b60008082840360c0811215611b2e578283fd5b8335925060a0601f1982011215611b43578182fd5b506020830190509250929050565b600080600083850360e0811215611b66578182fd5b8435935060a0601f1982011215611b7b578182fd5b50611b8660a0612323565b602085013581526040850135611b9b81612376565b60208201526060850135611bae81612376565b60408201526080850135611bc181612376565b6060820152611bd38660a08701611964565b6080820152915060c0840135611be881612376565b809150509250925092565b60008060408385031215611c05578081fd5b50508035926020909101359150565b805182526020808201516001600160a01b03169083015260409081015151910152565b8051518252602080820151519083015260409081015151910152565b805182526020808201516001600160a01b03908116918401919091526040808301518216908401526060808301519091169083015260809081015151910152565b60008251611ca681846020870161234a565b9190910192915050565b6001600160a01b0391909116815260200190565b6001600160a01b0392831681529116602082015260400190565b6001600160a01b039384168152919092166020820152604081019190915260600190565b6001600160a01b03929092168252602082015260400190565b901515815260200190565b6000602082528251806020840152611d4581604085016020870161234a565b601f01601f19169190910160400192915050565b6020808252602b908201527f4d61726b65743a20496e76616c696420626964207368617265732c206d75737460408201526a02073756d20746f203130360ac1b606082015260800190565b60208082526033908201527f4d61726b65743a20616c6c6f77616e6365206e6f74206869676820656e6f756760408201527234103a37903a3930b739b332b9103a37b5b2b760691b606082015260800190565b6020808252602a908201527f4d61726b65743a204e6f7420656e6f7567682066756e647320746f207472616e60408201526939b332b9103a37b5b2b760b11b606082015260800190565b60208082526027908201527f4d61726b65743a2042696420696e76616c696420666f722073686172652073706040820152666c697474696e6760c81b606082015260800190565b60208082526027908201527f4d61726b65743a2041736b20696e76616c696420666f722073686172652073706040820152666c697474696e6760c81b606082015260800190565b6020808252601b908201527f536166654d6174683a206164646974696f6e206f766572666c6f770000000000604082015260600190565b60208082526025908201527f4d61726b65743a2063616e6e6f742072656d6f76652062696420616d6f756e746040820152640206f6620360dc1b606082015260800190565b6020808252601b908201527f4d61726b65743a20696e76616c69642073656c6c206f6e206665650000000000604082015260600190565b6020808252601e908201527f4d61726b65743a2063616e6e6f742062696420616d6f756e74206f6620300000604082015260600190565b6020808252601e908201527f4d61726b65743a2063616e6e6f742061636365707420626964206f6620300000604082015260600190565b60208082526012908201527126b0b935b2ba1d1027b7363c9037bbb732b960711b604082015260600190565b60208082526021908201527f536166654d6174683a206d756c7469706c69636174696f6e206f766572666c6f6040820152607760f81b606082015260800190565b6020808252601d908201527f4d61726b65743a20556e65787065637465642062696420666f756e642e000000604082015260600190565b6020808252602f908201527f4d61726b65743a2053656c6c206f6e2066656520696e76616c696420666f722060408201526e73686172652073706c697474696e6760881b606082015260800190565b6020808252601b908201527f4d61726b65743a204f6e6c7920746f6b656e20636f6e74726163740000000000604082015260600190565b60208082526022908201527f4d61726b65743a204269646465722063616e6e6f742062652030206164647265604082015261737360f01b606082015260800190565b60208082526024908201527f4d61726b65743a20496e76616c6964206269642073686172657320666f72207460408201526337b5b2b760e11b606082015260800190565b6020808252601d908201527f416464726573733a2063616c6c20746f206e6f6e2d636f6e7472616374000000604082015260600190565b6020808252601a908201527f4d61726b65743a20416c726561647920636f6e66696775726564000000000000604082015260600190565b6020808252602a908201527f5361666545524332303a204552433230206f7065726174696f6e20646964206e6040820152691bdd081cdd58d8d9595960b21b606082015260800190565b6060810161026a8284611c14565b6060810161026a8284611c37565b60a0810161026a8284611c53565b90815260200190565b9182526001600160a01b0316602082015260400190565b828152608081016117216020830184611c14565b828152608081016117216020830184611c37565b82815260c081016117216020830184611c53565b9182528054602083015260018101546001600160a01b03908116604084015260028201548116606084015260038201541660808301526004015460a082015260c00190565b60405181810167ffffffffffffffff8111828210171561234257600080fd5b604052919050565b60005b8381101561236557818101518382015260200161234d565b838111156116315750506000910152565b6001600160a01b038116811461238b57600080fd5b5056fea2646970667358221220c46cbe68052cb2edcbe685b1cc8072e1e3b37541a5b62977f18d3dd9477acc0164736f6c63430006080033",
  "linkReferences": {},
  "deployedLinkReferences": {}
}