{
  "_format": "hh-sol-artifact-1",
  "contractName": "Market",
  "sourceName": "contracts/Market.sol",
  "abi": [
    {
      "inputs": [],
      "stateMutability": "nonpayable",
      "type": "constructor"
    },
    {
      "anonymous": false,
      "inputs": [
        {
          "indexed": true,
          "internalType": "uint256",
          "name": "tokenId",
          "type": "uint256"
        },
        {
          "components": [
            {
              "internalType": "uint256",
              "name": "amount",
              "type": "uint256"
            },
            {
              "internalType": "address",
              "name": "currency",
              "type": "address"
            },
            {
              "components": [
                {
                  "internalType": "uint256",
                  "name": "value",
                  "type": "uint256"
                }
              ],
              "internalType": "struct Decimal.D256",
              "name": "sellOnFee",
              "type": "tuple"
            }
          ],
          "indexed": false,
          "internalType": "struct Market.Ask",
          "name": "ask",
          "type": "tuple"
        }
      ],
      "name": "AskCreated",
      "type": "event"
    },
    {
      "anonymous": false,
      "inputs": [
        {
          "indexed": true,
          "internalType": "uint256",
          "name": "tokenId",
          "type": "uint256"
        }
      ],
      "name": "AskRemoved",
      "type": "event"
    },
    {
      "anonymous": false,
      "inputs": [
        {
          "indexed": true,
          "internalType": "uint256",
          "name": "tokenId",
          "type": "uint256"
        },
        {
          "components": [
            {
              "internalType": "uint256",
              "name": "amount",
              "type": "uint256"
            },
            {
              "internalType": "address",
              "name": "currency",
              "type": "address"
            },
            {
              "internalType": "address",
              "name": "bidder",
              "type": "address"
            },
            {
              "internalType": "address",
              "name": "recipient",
              "type": "address"
            },
            {
              "components": [
                {
                  "internalType": "uint256",
                  "name": "value",
                  "type": "uint256"
                }
              ],
              "internalType": "struct Decimal.D256",
              "name": "sellOnFee",
              "type": "tuple"
            }
          ],
          "indexed": false,
          "internalType": "struct Market.Bid",
          "name": "bid",
          "type": "tuple"
        }
      ],
      "name": "BidCreated",
      "type": "event"
    },
    {
      "anonymous": false,
      "inputs": [
        {
          "indexed": true,
          "internalType": "uint256",
          "name": "tokenId",
          "type": "uint256"
        },
        {
          "components": [
            {
              "internalType": "uint256",
              "name": "amount",
              "type": "uint256"
            },
            {
              "internalType": "address",
              "name": "currency",
              "type": "address"
            },
            {
              "internalType": "address",
              "name": "bidder",
              "type": "address"
            },
            {
              "internalType": "address",
              "name": "recipient",
              "type": "address"
            },
            {
              "components": [
                {
                  "internalType": "uint256",
                  "name": "value",
                  "type": "uint256"
                }
              ],
              "internalType": "struct Decimal.D256",
              "name": "sellOnFee",
              "type": "tuple"
            }
          ],
          "indexed": false,
          "internalType": "struct Market.Bid",
          "name": "bid",
          "type": "tuple"
        }
      ],
      "name": "BidFinalized",
      "type": "event"
    },
    {
      "anonymous": false,
      "inputs": [
        {
          "indexed": true,
          "internalType": "uint256",
          "name": "tokenId",
          "type": "uint256"
        },
        {
          "components": [
            {
              "internalType": "uint256",
              "name": "amount",
              "type": "uint256"
            },
            {
              "internalType": "address",
              "name": "currency",
              "type": "address"
            },
            {
              "internalType": "address",
              "name": "bidder",
              "type": "address"
            },
            {
              "internalType": "address",
              "name": "recipient",
              "type": "address"
            },
            {
              "components": [
                {
                  "internalType": "uint256",
                  "name": "value",
                  "type": "uint256"
                }
              ],
              "internalType": "struct Decimal.D256",
              "name": "sellOnFee",
              "type": "tuple"
            }
          ],
          "indexed": false,
          "internalType": "struct Market.Bid",
          "name": "bid",
          "type": "tuple"
        }
      ],
      "name": "BidRemoved",
      "type": "event"
    },
    {
      "anonymous": false,
      "inputs": [
        {
          "indexed": true,
          "internalType": "uint256",
          "name": "tokenId",
          "type": "uint256"
        },
        {
          "components": [
            {
              "components": [
                {
                  "internalType": "uint256",
                  "name": "value",
                  "type": "uint256"
                }
              ],
              "internalType": "struct Decimal.D256",
              "name": "prevOwner",
              "type": "tuple"
            },
            {
              "components": [
                {
                  "internalType": "uint256",
                  "name": "value",
                  "type": "uint256"
                }
              ],
              "internalType": "struct Decimal.D256",
              "name": "creator",
              "type": "tuple"
            },
            {
              "components": [
                {
                  "internalType": "uint256",
                  "name": "value",
                  "type": "uint256"
                }
              ],
              "internalType": "struct Decimal.D256",
              "name": "owner",
              "type": "tuple"
            }
          ],
          "indexed": false,
          "internalType": "struct Market.BidShares",
          "name": "bidShares",
          "type": "tuple"
        }
      ],
      "name": "BidShareUpdated",
      "type": "event"
    },
    {
      "inputs": [
        {
          "components": [
            {
              "internalType": "uint256",
              "name": "value",
              "type": "uint256"
            }
          ],
          "internalType": "struct Decimal.D256",
          "name": "sharePercentage",
          "type": "tuple"
        },
        {
          "internalType": "uint256",
          "name": "amount",
          "type": "uint256"
        }
      ],
      "name": "_splitShare",
      "outputs": [
        {
          "internalType": "uint256",
          "name": "",
          "type": "uint256"
        }
      ],
      "stateMutability": "pure",
      "type": "function"
    },
    {
      "inputs": [
        {
          "internalType": "uint256",
          "name": "tokenId",
          "type": "uint256"
        },
        {
          "components": [
            {
              "internalType": "uint256",
              "name": "amount",
              "type": "uint256"
            },
            {
              "internalType": "address",
              "name": "currency",
              "type": "address"
            },
            {
              "internalType": "address",
              "name": "bidder",
              "type": "address"
            },
            {
              "internalType": "address",
              "name": "recipient",
              "type": "address"
            },
            {
              "components": [
                {
                  "internalType": "uint256",
                  "name": "value",
                  "type": "uint256"
                }
              ],
              "internalType": "struct Decimal.D256",
              "name": "sellOnFee",
              "type": "tuple"
            }
          ],
          "internalType": "struct Market.Bid",
          "name": "expectedBid",
          "type": "tuple"
        }
      ],
      "name": "acceptBid",
      "outputs": [],
      "stateMutability": "nonpayable",
      "type": "function"
    },
    {
      "inputs": [
        {
          "internalType": "uint256",
          "name": "tokenId",
          "type": "uint256"
        },
        {
          "components": [
            {
              "components": [
                {
                  "internalType": "uint256",
                  "name": "value",
                  "type": "uint256"
                }
              ],
              "internalType": "struct Decimal.D256",
              "name": "prevOwner",
              "type": "tuple"
            },
            {
              "components": [
                {
                  "internalType": "uint256",
                  "name": "value",
                  "type": "uint256"
                }
              ],
              "internalType": "struct Decimal.D256",
              "name": "creator",
              "type": "tuple"
            },
            {
              "components": [
                {
                  "internalType": "uint256",
                  "name": "value",
                  "type": "uint256"
                }
              ],
              "internalType": "struct Decimal.D256",
              "name": "owner",
              "type": "tuple"
            }
          ],
          "internalType": "struct Market.BidShares",
          "name": "bidShares",
          "type": "tuple"
        }
      ],
      "name": "addBidShares",
      "outputs": [],
      "stateMutability": "nonpayable",
      "type": "function"
    },
    {
      "inputs": [
        {
          "internalType": "uint256",
          "name": "tokenId",
          "type": "uint256"
        },
        {
          "internalType": "address",
          "name": "bidder",
          "type": "address"
        }
      ],
      "name": "bidForTokenBidder",
      "outputs": [
        {
          "components": [
            {
              "internalType": "uint256",
              "name": "amount",
              "type": "uint256"
            },
            {
              "internalType": "address",
              "name": "currency",
              "type": "address"
            },
            {
              "internalType": "address",
              "name": "bidder",
              "type": "address"
            },
            {
              "internalType": "address",
              "name": "recipient",
              "type": "address"
            },
            {
              "components": [
                {
                  "internalType": "uint256",
                  "name": "value",
                  "type": "uint256"
                }
              ],
              "internalType": "struct Decimal.D256",
              "name": "sellOnFee",
              "type": "tuple"
            }
          ],
          "internalType": "struct Market.Bid",
          "name": "",
          "type": "tuple"
        }
      ],
      "stateMutability": "view",
      "type": "function"
    },
    {
      "inputs": [
        {
          "internalType": "uint256",
          "name": "tokenId",
          "type": "uint256"
        }
      ],
      "name": "bidSharesForToken",
      "outputs": [
        {
          "components": [
            {
              "components": [
                {
                  "internalType": "uint256",
                  "name": "value",
                  "type": "uint256"
                }
              ],
              "internalType": "struct Decimal.D256",
              "name": "prevOwner",
              "type": "tuple"
            },
            {
              "components": [
                {
                  "internalType": "uint256",
                  "name": "value",
                  "type": "uint256"
                }
              ],
              "internalType": "struct Decimal.D256",
              "name": "creator",
              "type": "tuple"
            },
            {
              "components": [
                {
                  "internalType": "uint256",
                  "name": "value",
                  "type": "uint256"
                }
              ],
              "internalType": "struct Decimal.D256",
              "name": "owner",
              "type": "tuple"
            }
          ],
          "internalType": "struct Market.BidShares",
          "name": "",
          "type": "tuple"
        }
      ],
      "stateMutability": "view",
      "type": "function"
    },
    {
      "inputs": [
        {
          "internalType": "address",
          "name": "tokenContractAddress",
          "type": "address"
        }
      ],
      "name": "configure",
      "outputs": [],
      "stateMutability": "nonpayable",
      "type": "function"
    },
    {
      "inputs": [
        {
          "internalType": "uint256",
          "name": "tokenId",
          "type": "uint256"
        }
      ],
      "name": "currentAskForToken",
      "outputs": [
        {
          "components": [
            {
              "internalType": "uint256",
              "name": "amount",
              "type": "uint256"
            },
            {
              "internalType": "address",
              "name": "currency",
              "type": "address"
            },
            {
              "components": [
                {
                  "internalType": "uint256",
                  "name": "value",
                  "type": "uint256"
                }
              ],
              "internalType": "struct Decimal.D256",
              "name": "sellOnFee",
              "type": "tuple"
            }
          ],
          "internalType": "struct Market.Ask",
          "name": "",
          "type": "tuple"
        }
      ],
      "stateMutability": "view",
      "type": "function"
    },
    {
      "inputs": [
        {
          "internalType": "uint256",
          "name": "tokenId",
          "type": "uint256"
        },
        {
          "internalType": "uint256",
          "name": "bidAmount",
          "type": "uint256"
        }
      ],
      "name": "isValidBid",
      "outputs": [
        {
          "internalType": "bool",
          "name": "",
          "type": "bool"
        }
      ],
      "stateMutability": "view",
      "type": "function"
    },
    {
      "inputs": [
        {
          "components": [
            {
              "components": [
                {
                  "internalType": "uint256",
                  "name": "value",
                  "type": "uint256"
                }
              ],
              "internalType": "struct Decimal.D256",
              "name": "prevOwner",
              "type": "tuple"
            },
            {
              "components": [
                {
                  "internalType": "uint256",
                  "name": "value",
                  "type": "uint256"
                }
              ],
              "internalType": "struct Decimal.D256",
              "name": "creator",
              "type": "tuple"
            },
            {
              "components": [
                {
                  "internalType": "uint256",
                  "name": "value",
                  "type": "uint256"
                }
              ],
              "internalType": "struct Decimal.D256",
              "name": "owner",
              "type": "tuple"
            }
          ],
          "internalType": "struct Market.BidShares",
          "name": "bidShares",
          "type": "tuple"
        }
      ],
      "name": "isValidBidShares",
      "outputs": [
        {
          "internalType": "bool",
          "name": "",
          "type": "bool"
        }
      ],
      "stateMutability": "pure",
      "type": "function"
    },
    {
      "inputs": [
        {
          "internalType": "uint256",
          "name": "tokenId",
          "type": "uint256"
        }
      ],
      "name": "removeAsk",
      "outputs": [],
      "stateMutability": "nonpayable",
      "type": "function"
    },
    {
      "inputs": [
        {
          "internalType": "uint256",
          "name": "tokenId",
          "type": "uint256"
        },
        {
          "internalType": "address",
          "name": "bidder",
          "type": "address"
        }
      ],
      "name": "removeBid",
      "outputs": [],
      "stateMutability": "nonpayable",
      "type": "function"
    },
    {
      "inputs": [
        {
          "internalType": "uint256",
          "name": "tokenId",
          "type": "uint256"
        },
        {
          "components": [
            {
              "internalType": "uint256",
              "name": "amount",
              "type": "uint256"
            },
            {
              "internalType": "address",
              "name": "currency",
              "type": "address"
            },
            {
              "components": [
                {
                  "internalType": "uint256",
                  "name": "value",
                  "type": "uint256"
                }
              ],
              "internalType": "struct Decimal.D256",
              "name": "sellOnFee",
              "type": "tuple"
            }
          ],
          "internalType": "struct Market.Ask",
          "name": "ask",
          "type": "tuple"
        }
      ],
      "name": "setAsk",
      "outputs": [],
      "stateMutability": "nonpayable",
      "type": "function"
    },
    {
      "inputs": [
        {
          "internalType": "uint256",
          "name": "tokenId",
          "type": "uint256"
        },
        {
          "components": [
            {
              "internalType": "uint256",
              "name": "amount",
              "type": "uint256"
            },
            {
              "internalType": "address",
              "name": "currency",
              "type": "address"
            },
            {
              "internalType": "address",
              "name": "bidder",
              "type": "address"
            },
            {
              "internalType": "address",
              "name": "recipient",
              "type": "address"
            },
            {
              "components": [
                {
                  "internalType": "uint256",
                  "name": "value",
                  "type": "uint256"
                }
              ],
              "internalType": "struct Decimal.D256",
              "name": "sellOnFee",
              "type": "tuple"
            }
          ],
          "internalType": "struct Market.Bid",
          "name": "bid",
          "type": "tuple"
        },
        {
          "internalType": "address",
          "name": "spender",
          "type": "address"
        }
      ],
      "name": "setBid",
      "outputs": [],
      "stateMutability": "nonpayable",
      "type": "function"
    },
    {
      "inputs": [],
      "name": "tokenContract",
      "outputs": [
        {
          "internalType": "address",
          "name": "",
          "type": "address"
        }
      ],
      "stateMutability": "view",
      "type": "function"
    }
  ],
  "bytecode": "0x608060405234801561001057600080fd5b506001805460ff60a01b196001600160a01b031990911633171690556122a08061003b6000396000f3fe608060405234801561001057600080fd5b50600436106100ea5760003560e01c806385f7c3541161008c578063ad827dc411610066578063ad827dc4146101e1578063ba33939914610201578063bdb5869814610214578063f9ce058214610227576100ea565b806385f7c3541461019b57806389923d56146101ae5780638ca4ce19146101ce576100ea565b806355a373d6116100c857806355a373d614610140578063578064f61461015557806375cb267214610175578063776a083514610188576100ea565b806302e8fe13146100ef57806328220f3514610118578063360636eb1461012d575b600080fd5b6101026100fd366004611b21565b610247565b60405161010f9190611bc9565b60405180910390f35b61012b610126366004611954565b6102dd565b005b61010261013b36600461190f565b61035a565b6101486103a0565b60405161010f9190611b5e565b610168610163366004611954565b6103af565b60405161010f9190612106565b61012b6101833660046118b7565b6103fe565b61012b610196366004611984565b610488565b61012b6101a93660046119b3565b6105ae565b6101c16101bc36600461192a565b610748565b60405161010f91906121df565b61012b6101dc366004611a1d565b61076c565b6101f46101ef366004611984565b610823565b60405161010f9190612155565b61012b61020f366004611a49565b610899565b61012b610222366004611a7f565b610a14565b61023a610235366004611954565b611001565b60405161010f9190612131565b6000610251611795565b61025a84611001565b90506102658161035a565b61028a5760405162461bcd60e51b81526004016102819061200a565b60405180910390fd5b82158015906102d357506102d06102a5826040015185610748565b6102c46102b6846000015187610748565b6102c4856020015188610748565b9063ffffffff61105716565b83145b9150505b92915050565b6000546001600160a01b031633146103075760405162461bcd60e51b815260040161028190611f91565b6000818152600460205260408082208281556001810180546001600160a01b03191690556002018290555182917f7917638cc0553b8a8a6ec7f3ffdefd6a6264102a4614d50229340051332a6cca91a250565b60006103756064670de0b6b3a764000063ffffffff61107c16565b82515160408401515160208501515161039992916102c4919063ffffffff61105716565b1492915050565b6000546001600160a01b031681565b6103b76117c7565b5060009081526004602090815260409182902082516060810184528154815260018201546001600160a01b0316818401528351928301845260029091015482529182015290565b6001546001600160a01b031633146104285760405162461bcd60e51b815260040161028190611e9e565b600154600160a01b900460ff16156104525760405162461bcd60e51b815260040161028190612085565b600080546001600160a01b039092166001600160a01b03199092169190911790556001805460ff60a01b1916600160a01b179055565b6000546001600160a01b031633146104b25760405162461bcd60e51b815260040161028190611f91565b60008281526002602090815260408083206001600160a01b0380861685529252909120805460018201549192909116816104fe5760405162461bcd60e51b815260040161028190611db4565b6000819050857fcbebd567b8a5c57f63ec61dc46746aab28daff6bdd1f4a6a0a305c17fa5465c985604051610533919061219e565b60405180910390a260008681526002602081815260408084206001600160a01b03808b168652925283208381556001810180546001600160a01b03199081169091559281018054841690556003810180549093169092556004909101919091556105a6908216868563ffffffff6110b616565b505050505050565b6000546001600160a01b031633146105d85760405162461bcd60e51b815260040161028190611f91565b6105e6828260000151610247565b6106025760405162461bcd60e51b815260040161028190611d36565b600061061d6064670de0b6b3a764000063ffffffff61107c16565b9050610627611795565b50600083815260036020908152604091829020825160808101845281546060820190815281528351808401855260018301548152818401528351928301845260029091015482529182015261068b6064670de0b6b3a764000063ffffffff61107c16565b6040840151516020830151516106a69163ffffffff61105716565b11156106c45760405162461bcd60e51b815260040161028190611df9565b60008481526004602090815260409182902085518155908501516001820180546001600160a01b0319166001600160a01b0390921691909117905584820151516002909101555184907f3e1965cc9a7ae4327b07753c6e0b6ba56bcc25c1d799b82bd2d4a51bb0779d0c9061073a908690612106565b60405180910390a250505050565b60006107656064610759848661110c565b9063ffffffff61112516565b9392505050565b6000546001600160a01b031633146107965760405162461bcd60e51b815260040161028190611f91565b61079f8161035a565b6107bb5760405162461bcd60e51b815260040161028190611c07565b60008281526003602090815260409182902083515181559083015151600182015581830151516002909101555182907fdb88d4e96cb8697aaee5e575ee5f460817709a1dfcfbf7ba15192e90b5c86f9f90610817908490612131565b60405180910390a25050565b61082b6117e6565b5060009182526002602081815260408085206001600160a01b039485168652825293849020845160a081018652815481526001820154851681840152928101548416838601526003810154909316606083015283519081019093526004909101548252608081019190915290565b6000546001600160a01b031633146108c35760405162461bcd60e51b815260040161028190611f91565b6108cb6117e6565b60008381526002602052604080822091906108ec90606086019086016118b7565b6001600160a01b0390811682526020808301939093526040918201600020825160a08101845281548152600182015483168186015260028201548316818501526003820154909216606083015282519384019092526004909101548252608081019190915280519091506109725760405162461bcd60e51b815260040161028190611e67565b805182351480156109a7575061098e60408301602084016118b7565b6001600160a01b031681602001516001600160a01b0316145b80156109bb57506080818101515190830135145b6109d75760405162461bcd60e51b815260040161028190611f0b565b6109e5838260000151610247565b610a015760405162461bcd60e51b815260040161028190611cef565b610a0f838260400151611167565b505050565b6000546001600160a01b03163314610a3e5760405162461bcd60e51b815260040161028190611f91565b60208201518251604051636eb1769f60e11b815283929190829082906001600160a01b0383169063dd62ed3e90610a7b9088903090600401611b72565b60206040518083038186803b158015610a9357600080fd5b505afa158015610aa7573d6000803e3d6000fd5b505050506040513d601f19601f82011682018060405250810190610acb919061196c565b1015610ae95760405162461bcd60e51b815260040161028190611c52565b6040516370a0823160e01b815282906001600160a01b038316906370a0823190610b17908890600401611b5e565b60206040518083038186803b158015610b2f57600080fd5b505afa158015610b43573d6000803e3d6000fd5b505050506040513d601f19601f82011682018060405250810190610b67919061196c565b1015610b855760405162461bcd60e51b815260040161028190611ca5565b610b8d611795565b506000878152600360209081526040918290208251608081018452815460608201908152815283518084018552600183015481528184015283519283018452600290910154825291820152610bf16064670de0b6b3a764000063ffffffff61107c16565b608088015151602083015151610c0c9163ffffffff61105716565b1115610c2a5760405162461bcd60e51b815260040161028190611f42565b60408701516001600160a01b0316610c545760405162461bcd60e51b815260040161028190611fc8565b8651610c725760405162461bcd60e51b815260040161028190611e30565b60008881526002602090815260408083208a8201516001600160a01b031684529091529020805415610cac57610cac898960400151610488565b60208801516040516370a0823160e01b81526000906001600160a01b038316906370a0823190610ce0903090600401611b5e565b60206040518083038186803b158015610cf857600080fd5b505afa158015610d0c573d6000803e3d6000fd5b505050506040513d601f19601f82011682018060405250810190610d30919061196c565b8a51909150610d53906001600160a01b038416908b90309063ffffffff61154816565b60208a01516040516370a0823160e01b81526000916001600160a01b0316906370a0823190610d86903090600401611b5e565b60206040518083038186803b158015610d9e57600080fd5b505afa158015610db2573d6000803e3d6000fd5b505050506040513d601f19601f82011682018060405250810190610dd6919061196c565b90506040518060a00160405280610df6848461156f90919063ffffffff16565b81526020018c602001516001600160a01b031681526020018c604001516001600160a01b031681526020018c606001516001600160a01b031681526020018c60800151815250600260008e815260200190815260200160002060008d604001516001600160a01b03166001600160a01b031681526020019081526020016000206000820151816000015560208201518160010160006101000a8154816001600160a01b0302191690836001600160a01b0316021790555060408201518160020160006101000a8154816001600160a01b0302191690836001600160a01b0316021790555060608201518160030160006101000a8154816001600160a01b0302191690836001600160a01b031602179055506080820151816004016000820151816000015550509050508b7f327bc9021bfbee403a11b13dd6c819999006aff090cc129f07e9f2840af38dd58c604051610f4f9190612155565b60405180910390a260008c8152600460205260409020600101546001600160a01b031615801590610fa3575060008c815260046020908152604090912060010154908c01516001600160a01b039081169116145b8015610fbe575060008c8152600460205260409020548b5110155b8015610fe0575060008c81526004602052604090206002015460808c01515110155b15610ff357610ff38c8c60400151611167565b505050505050505050505050565b611009611795565b50600090815260036020908152604091829020825160808101845281546060820190815281528351808401855260018301548152818401528351928301845260029091015482529182015290565b6000828201838110156107655760405162461bcd60e51b815260040161028190611d7d565b60008261108b575060006102d7565b8282028284828161109857fe5b04146107655760405162461bcd60e51b815260040161028190611eca565b610a0f8363a9059cbb60e01b84846040516024016110d5929190611bb0565b60408051601f198184030181529190526020810180516001600160e01b03166001600160e01b0319909316929092179091526115b1565b8051600090610765908490670de0b6b3a7640000611640565b600061076583836040518060400160405280601a81526020017f536166654d6174683a206469766973696f6e206279207a65726f00000000000081525061165e565b61116f6117e6565b5060008281526002602081815260408084206001600160a01b038087168652908352818520825160a0810184528154815260018201548316818601908152958201548316818501526003808301548416606083015284518087018652600493840154815260808301528988529094528286209451955492516331a9108f60e11b81529395936112939390921691636352211e9161120e918a91016121df565b60206040518083038186803b15801561122657600080fd5b505afa15801561123a573d6000803e3d6000fd5b505050506040513d601f19601f8201168201806040525081019061125e91906118d3565b604080516020810190915260028501548152855161127c9190610748565b6001600160a01b038416919063ffffffff6110b616565b60005460405163e0fd045f60e01b8152611333916001600160a01b03169063e0fd045f906112c59089906004016121df565b60206040518083038186803b1580156112dd57600080fd5b505afa1580156112f1573d6000803e3d6000fd5b505050506040513d601f19601f8201168201806040525081019061131591906118d3565b604080516020810190915260018501548152855161127c9190610748565b6000546040516304ec739360e51b81526113d0916001600160a01b031690639d8e7260906113659089906004016121df565b60206040518083038186803b15801561137d57600080fd5b505afa158015611391573d6000803e3d6000fd5b505050506040513d601f19601f820116820180604052508101906113b591906118d3565b604080516020810190915284548152855161127c9190610748565b6000546060840151604051630f6b630f60e41b81526001600160a01b039092169163f6b630f091611406918991906004016121e8565b600060405180830381600087803b15801561142057600080fd5b505af1158015611434573d6000803e3d6000fd5b5050604080516020808201835260808801515160008b815260039092529290206001015490935083925061148a919061147e90816064670de0b6b3a764000063ffffffff61107c16565b9063ffffffff61156f16565b9052516002830155608083015151825560405185907fb6ef177c7a6f32b283a49b5e0463a39240cdaa278028dfb219480d050e8ee54c906114cc908690612155565b60405180910390a25050506000918252600460208181526040808520858155600180820180546001600160a01b031990811690915560029283018890558285528388206001600160a01b039790971688529590935290852085815591820180548516905581018054841690556003810180549093169092550155565b611569846323b872dd60e01b8585856040516024016110d593929190611b8c565b50505050565b600061076583836040518060400160405280601e81526020017f536166654d6174683a207375627472616374696f6e206f766572666c6f770000815250611695565b6060611606826040518060400160405280602081526020017f5361666545524332303a206c6f772d6c6576656c2063616c6c206661696c6564815250856001600160a01b03166116c19092919063ffffffff16565b805190915015610a0f578080602001905181019061162491906118ef565b610a0f5760405162461bcd60e51b8152600401610281906120bc565b600061165682610759868663ffffffff61107c16565b949350505050565b6000818361167f5760405162461bcd60e51b81526004016102819190611bd4565b50600083858161168b57fe5b0495945050505050565b600081848411156116b95760405162461bcd60e51b81526004016102819190611bd4565b505050900390565b6060611656848460008560606116d68561178f565b6116f25760405162461bcd60e51b81526004016102819061204e565b60006060866001600160a01b0316858760405161170f9190611b42565b60006040518083038185875af1925050503d806000811461174c576040519150601f19603f3d011682016040523d82523d6000602084013e611751565b606091505b509150915081156117655791506116569050565b8051156117755780518082602001fd5b8360405162461bcd60e51b81526004016102819190611bd4565b3b151590565b60405180606001604052806117a861182c565b81526020016117b561182c565b81526020016117c261182c565b905290565b60408051606081018252600080825260208201529081016117c261182c565b6040518060a001604052806000815260200160006001600160a01b0316815260200160006001600160a01b0316815260200160006001600160a01b031681526020016117c25b6040518060200160405280600081525090565b600060608284031215611850578081fd5b61185a60606121ff565b90506118668383611892565b81526118758360208401611892565b60208201526118878360408401611892565b604082015292915050565b6000602082840312156118a3578081fd5b6118ad60206121ff565b9135825250919050565b6000602082840312156118c8578081fd5b813561076581612252565b6000602082840312156118e4578081fd5b815161076581612252565b600060208284031215611900578081fd5b81518015158114610765578182fd5b600060608284031215611920578081fd5b610765838361183f565b6000806040838503121561193c578081fd5b6119468484611892565b946020939093013593505050565b600060208284031215611965578081fd5b5035919050565b60006020828403121561197d578081fd5b5051919050565b60008060408385031215611996578182fd5b8235915060208301356119a881612252565b809150509250929050565b60008082840360808112156119c6578283fd5b833592506060601f19820112156119db578182fd5b506119e660606121ff565b6020840135815260408401356119fb81612252565b6020820152611a0d8560608601611892565b6040820152809150509250929050565b60008060808385031215611a2f578182fd5b82359150611a40846020850161183f565b90509250929050565b60008082840360c0811215611a5c578283fd5b8335925060a0601f1982011215611a71578182fd5b506020830190509250929050565b600080600083850360e0811215611a94578182fd5b8435935060a0601f1982011215611aa9578182fd5b50611ab460a06121ff565b602085013581526040850135611ac981612252565b60208201526060850135611adc81612252565b60408201526080850135611aef81612252565b6060820152611b018660a08701611892565b6080820152915060c0840135611b1681612252565b809150509250925092565b60008060408385031215611b33578081fd5b50508035926020909101359150565b60008251611b54818460208701612226565b9190910192915050565b6001600160a01b0391909116815260200190565b6001600160a01b0392831681529116602082015260400190565b6001600160a01b039384168152919092166020820152604081019190915260600190565b6001600160a01b03929092168252602082015260400190565b901515815260200190565b6000602082528251806020840152611bf3816040850160208701612226565b601f01601f19169190910160400192915050565b6020808252602b908201527f4d61726b65743a20496e76616c696420626964207368617265732c206d75737460408201526a02073756d20746f203130360ac1b606082015260800190565b60208082526033908201527f4d61726b65743a20616c6c6f77616e6365206e6f74206869676820656e6f756760408201527234103a37903a3930b739b332b9103a37b5b2b760691b606082015260800190565b6020808252602a908201527f4d61726b65743a204e6f7420656e6f7567682066756e647320746f207472616e60408201526939b332b9103a37b5b2b760b11b606082015260800190565b60208082526027908201527f4d61726b65743a2042696420696e76616c696420666f722073686172652073706040820152666c697474696e6760c81b606082015260800190565b60208082526027908201527f4d61726b65743a2041736b20696e76616c696420666f722073686172652073706040820152666c697474696e6760c81b606082015260800190565b6020808252601b908201527f536166654d6174683a206164646974696f6e206f766572666c6f770000000000604082015260600190565b60208082526025908201527f4d61726b65743a2063616e6e6f742072656d6f76652062696420616d6f756e746040820152640206f6620360dc1b606082015260800190565b6020808252601b908201527f4d61726b65743a20696e76616c69642073656c6c206f6e206665650000000000604082015260600190565b6020808252601e908201527f4d61726b65743a2063616e6e6f742062696420616d6f756e74206f6620300000604082015260600190565b6020808252601e908201527f4d61726b65743a2063616e6e6f742061636365707420626964206f6620300000604082015260600190565b60208082526012908201527126b0b935b2ba1d1027b7363c9037bbb732b960711b604082015260600190565b60208082526021908201527f536166654d6174683a206d756c7469706c69636174696f6e206f766572666c6f6040820152607760f81b606082015260800190565b6020808252601d908201527f4d61726b65743a20556e65787065637465642062696420666f756e642e000000604082015260600190565b6020808252602f908201527f4d61726b65743a2053656c6c206f6e2066656520696e76616c696420666f722060408201526e73686172652073706c697474696e6760881b606082015260800190565b6020808252601b908201527f4d61726b65743a204f6e6c7920746f6b656e20636f6e74726163740000000000604082015260600190565b60208082526022908201527f4d61726b65743a204269646465722063616e6e6f742062652030206164647265604082015261737360f01b606082015260800190565b60208082526024908201527f4d61726b65743a20496e76616c6964206269642073686172657320666f72207460408201526337b5b2b760e11b606082015260800190565b6020808252601d908201527f416464726573733a2063616c6c20746f206e6f6e2d636f6e7472616374000000604082015260600190565b6020808252601a908201527f4d61726b65743a20416c726561647920636f6e66696775726564000000000000604082015260600190565b6020808252602a908201527f5361666545524332303a204552433230206f7065726174696f6e20646964206e6040820152691bdd081cdd58d8d9595960b21b606082015260800190565b815181526020808301516001600160a01b031690820152604091820151519181019190915260600190565b81515181526020808301515190820152604091820151519181019190915260600190565b815181526020808301516001600160a01b039081169183019190915260408084015182169083015260608084015190911690820152608091820151519181019190915260a00190565b8154815260018201546001600160a01b0390811660208301526002830154811660408301526003830154166060820152600490910154608082015260a00190565b90815260200190565b9182526001600160a01b0316602082015260400190565b60405181810167ffffffffffffffff8111828210171561221e57600080fd5b604052919050565b60005b83811015612241578181015183820152602001612229565b838111156115695750506000910152565b6001600160a01b038116811461226757600080fd5b5056fea2646970667358221220350d311745a0450eb91d00bd194b3bfd5df0c781de1428f68b0c94e0d08ee07764736f6c63430006080033",
  "linkReferences": {},
  "deployedLinkReferences": {}
}