{
  "_format": "hh-sol-artifact-1",
  "contractName": "Market",
  "sourceName": "contracts/Market.sol",
  "abi": [
    {
      "inputs": [],
      "stateMutability": "nonpayable",
      "type": "constructor"
    },
    {
      "anonymous": false,
      "inputs": [
        {
          "indexed": false,
          "internalType": "uint256",
          "name": "tokenId",
          "type": "uint256"
        },
        {
          "components": [
            {
              "internalType": "uint256",
              "name": "amount",
              "type": "uint256"
            },
            {
              "internalType": "address",
              "name": "currency",
              "type": "address"
            },
            {
              "components": [
                {
                  "internalType": "uint256",
                  "name": "value",
                  "type": "uint256"
                }
              ],
              "internalType": "struct Decimal.D256",
              "name": "sellOnFee",
              "type": "tuple"
            }
          ],
          "indexed": false,
          "internalType": "struct Market.Ask",
          "name": "ask",
          "type": "tuple"
        }
      ],
      "name": "AskCreated",
      "type": "event"
    },
    {
      "anonymous": false,
      "inputs": [
        {
          "indexed": false,
          "internalType": "uint256",
          "name": "tokenId",
          "type": "uint256"
        },
        {
          "components": [
            {
              "internalType": "uint256",
              "name": "amount",
              "type": "uint256"
            },
            {
              "internalType": "address",
              "name": "currency",
              "type": "address"
            },
            {
              "internalType": "address",
              "name": "bidder",
              "type": "address"
            },
            {
              "components": [
                {
                  "internalType": "uint256",
                  "name": "value",
                  "type": "uint256"
                }
              ],
              "internalType": "struct Decimal.D256",
              "name": "sellOnFee",
              "type": "tuple"
            }
          ],
          "indexed": false,
          "internalType": "struct Market.Bid",
          "name": "bid",
          "type": "tuple"
        }
      ],
      "name": "BidCreated",
      "type": "event"
    },
    {
      "anonymous": false,
      "inputs": [
        {
          "indexed": false,
          "internalType": "uint256",
          "name": "tokenId",
          "type": "uint256"
        },
        {
          "components": [
            {
              "internalType": "uint256",
              "name": "amount",
              "type": "uint256"
            },
            {
              "internalType": "address",
              "name": "currency",
              "type": "address"
            },
            {
              "internalType": "address",
              "name": "bidder",
              "type": "address"
            },
            {
              "components": [
                {
                  "internalType": "uint256",
                  "name": "value",
                  "type": "uint256"
                }
              ],
              "internalType": "struct Decimal.D256",
              "name": "sellOnFee",
              "type": "tuple"
            }
          ],
          "indexed": false,
          "internalType": "struct Market.Bid",
          "name": "bid",
          "type": "tuple"
        }
      ],
      "name": "BidFinalized",
      "type": "event"
    },
    {
      "anonymous": false,
      "inputs": [
        {
          "indexed": false,
          "internalType": "uint256",
          "name": "tokenId",
          "type": "uint256"
        },
        {
          "components": [
            {
              "internalType": "uint256",
              "name": "amount",
              "type": "uint256"
            },
            {
              "internalType": "address",
              "name": "currency",
              "type": "address"
            },
            {
              "internalType": "address",
              "name": "bidder",
              "type": "address"
            },
            {
              "components": [
                {
                  "internalType": "uint256",
                  "name": "value",
                  "type": "uint256"
                }
              ],
              "internalType": "struct Decimal.D256",
              "name": "sellOnFee",
              "type": "tuple"
            }
          ],
          "indexed": false,
          "internalType": "struct Market.Bid",
          "name": "bid",
          "type": "tuple"
        }
      ],
      "name": "BidRemoved",
      "type": "event"
    },
    {
      "anonymous": false,
      "inputs": [
        {
          "indexed": false,
          "internalType": "uint256",
          "name": "tokenId",
          "type": "uint256"
        },
        {
          "components": [
            {
              "components": [
                {
                  "internalType": "uint256",
                  "name": "value",
                  "type": "uint256"
                }
              ],
              "internalType": "struct Decimal.D256",
              "name": "prevOwner",
              "type": "tuple"
            },
            {
              "components": [
                {
                  "internalType": "uint256",
                  "name": "value",
                  "type": "uint256"
                }
              ],
              "internalType": "struct Decimal.D256",
              "name": "creator",
              "type": "tuple"
            },
            {
              "components": [
                {
                  "internalType": "uint256",
                  "name": "value",
                  "type": "uint256"
                }
              ],
              "internalType": "struct Decimal.D256",
              "name": "owner",
              "type": "tuple"
            }
          ],
          "indexed": false,
          "internalType": "struct Market.BidShares",
          "name": "bidShares",
          "type": "tuple"
        }
      ],
      "name": "BidShareUpdated",
      "type": "event"
    },
    {
      "inputs": [
        {
          "components": [
            {
              "internalType": "uint256",
              "name": "value",
              "type": "uint256"
            }
          ],
          "internalType": "struct Decimal.D256",
          "name": "sharePercentage",
          "type": "tuple"
        },
        {
          "components": [
            {
              "internalType": "uint256",
              "name": "amount",
              "type": "uint256"
            },
            {
              "internalType": "address",
              "name": "currency",
              "type": "address"
            },
            {
              "internalType": "address",
              "name": "bidder",
              "type": "address"
            },
            {
              "components": [
                {
                  "internalType": "uint256",
                  "name": "value",
                  "type": "uint256"
                }
              ],
              "internalType": "struct Decimal.D256",
              "name": "sellOnFee",
              "type": "tuple"
            }
          ],
          "internalType": "struct Market.Bid",
          "name": "bid",
          "type": "tuple"
        }
      ],
      "name": "_splitShare",
      "outputs": [
        {
          "internalType": "uint256",
          "name": "",
          "type": "uint256"
        }
      ],
      "stateMutability": "pure",
      "type": "function"
    },
    {
      "inputs": [
        {
          "internalType": "uint256",
          "name": "tokenId",
          "type": "uint256"
        },
        {
          "components": [
            {
              "internalType": "uint256",
              "name": "amount",
              "type": "uint256"
            },
            {
              "internalType": "address",
              "name": "currency",
              "type": "address"
            },
            {
              "internalType": "address",
              "name": "bidder",
              "type": "address"
            },
            {
              "components": [
                {
                  "internalType": "uint256",
                  "name": "value",
                  "type": "uint256"
                }
              ],
              "internalType": "struct Decimal.D256",
              "name": "sellOnFee",
              "type": "tuple"
            }
          ],
          "internalType": "struct Market.Bid",
          "name": "expectedBid",
          "type": "tuple"
        }
      ],
      "name": "acceptBid",
      "outputs": [],
      "stateMutability": "nonpayable",
      "type": "function"
    },
    {
      "inputs": [
        {
          "internalType": "uint256",
          "name": "tokenId",
          "type": "uint256"
        },
        {
          "components": [
            {
              "components": [
                {
                  "internalType": "uint256",
                  "name": "value",
                  "type": "uint256"
                }
              ],
              "internalType": "struct Decimal.D256",
              "name": "prevOwner",
              "type": "tuple"
            },
            {
              "components": [
                {
                  "internalType": "uint256",
                  "name": "value",
                  "type": "uint256"
                }
              ],
              "internalType": "struct Decimal.D256",
              "name": "creator",
              "type": "tuple"
            },
            {
              "components": [
                {
                  "internalType": "uint256",
                  "name": "value",
                  "type": "uint256"
                }
              ],
              "internalType": "struct Decimal.D256",
              "name": "owner",
              "type": "tuple"
            }
          ],
          "internalType": "struct Market.BidShares",
          "name": "bidShares",
          "type": "tuple"
        }
      ],
      "name": "addBidShares",
      "outputs": [],
      "stateMutability": "nonpayable",
      "type": "function"
    },
    {
      "inputs": [
        {
          "internalType": "uint256",
          "name": "tokenId",
          "type": "uint256"
        },
        {
          "internalType": "address",
          "name": "bidder",
          "type": "address"
        }
      ],
      "name": "bidForTokenBidder",
      "outputs": [
        {
          "components": [
            {
              "internalType": "uint256",
              "name": "amount",
              "type": "uint256"
            },
            {
              "internalType": "address",
              "name": "currency",
              "type": "address"
            },
            {
              "internalType": "address",
              "name": "bidder",
              "type": "address"
            },
            {
              "components": [
                {
                  "internalType": "uint256",
                  "name": "value",
                  "type": "uint256"
                }
              ],
              "internalType": "struct Decimal.D256",
              "name": "sellOnFee",
              "type": "tuple"
            }
          ],
          "internalType": "struct Market.Bid",
          "name": "",
          "type": "tuple"
        }
      ],
      "stateMutability": "view",
      "type": "function"
    },
    {
      "inputs": [
        {
          "internalType": "uint256",
          "name": "tokenId",
          "type": "uint256"
        }
      ],
      "name": "bidSharesForToken",
      "outputs": [
        {
          "components": [
            {
              "components": [
                {
                  "internalType": "uint256",
                  "name": "value",
                  "type": "uint256"
                }
              ],
              "internalType": "struct Decimal.D256",
              "name": "prevOwner",
              "type": "tuple"
            },
            {
              "components": [
                {
                  "internalType": "uint256",
                  "name": "value",
                  "type": "uint256"
                }
              ],
              "internalType": "struct Decimal.D256",
              "name": "creator",
              "type": "tuple"
            },
            {
              "components": [
                {
                  "internalType": "uint256",
                  "name": "value",
                  "type": "uint256"
                }
              ],
              "internalType": "struct Decimal.D256",
              "name": "owner",
              "type": "tuple"
            }
          ],
          "internalType": "struct Market.BidShares",
          "name": "",
          "type": "tuple"
        }
      ],
      "stateMutability": "view",
      "type": "function"
    },
    {
      "inputs": [
        {
          "internalType": "address",
          "name": "tokenContractAddress",
          "type": "address"
        }
      ],
      "name": "configure",
      "outputs": [],
      "stateMutability": "nonpayable",
      "type": "function"
    },
    {
      "inputs": [
        {
          "internalType": "uint256",
          "name": "tokenId",
          "type": "uint256"
        }
      ],
      "name": "currentAskForToken",
      "outputs": [
        {
          "components": [
            {
              "internalType": "uint256",
              "name": "amount",
              "type": "uint256"
            },
            {
              "internalType": "address",
              "name": "currency",
              "type": "address"
            },
            {
              "components": [
                {
                  "internalType": "uint256",
                  "name": "value",
                  "type": "uint256"
                }
              ],
              "internalType": "struct Decimal.D256",
              "name": "sellOnFee",
              "type": "tuple"
            }
          ],
          "internalType": "struct Market.Ask",
          "name": "",
          "type": "tuple"
        }
      ],
      "stateMutability": "view",
      "type": "function"
    },
    {
      "inputs": [
        {
          "internalType": "uint256",
          "name": "tokenId",
          "type": "uint256"
        },
        {
          "internalType": "uint256",
          "name": "bidAmount",
          "type": "uint256"
        }
      ],
      "name": "isValidBid",
      "outputs": [
        {
          "internalType": "bool",
          "name": "",
          "type": "bool"
        }
      ],
      "stateMutability": "view",
      "type": "function"
    },
    {
      "inputs": [
        {
          "components": [
            {
              "components": [
                {
                  "internalType": "uint256",
                  "name": "value",
                  "type": "uint256"
                }
              ],
              "internalType": "struct Decimal.D256",
              "name": "prevOwner",
              "type": "tuple"
            },
            {
              "components": [
                {
                  "internalType": "uint256",
                  "name": "value",
                  "type": "uint256"
                }
              ],
              "internalType": "struct Decimal.D256",
              "name": "creator",
              "type": "tuple"
            },
            {
              "components": [
                {
                  "internalType": "uint256",
                  "name": "value",
                  "type": "uint256"
                }
              ],
              "internalType": "struct Decimal.D256",
              "name": "owner",
              "type": "tuple"
            }
          ],
          "internalType": "struct Market.BidShares",
          "name": "bidShares",
          "type": "tuple"
        }
      ],
      "name": "isValidBidShares",
      "outputs": [
        {
          "internalType": "bool",
          "name": "",
          "type": "bool"
        }
      ],
      "stateMutability": "pure",
      "type": "function"
    },
    {
      "inputs": [
        {
          "internalType": "uint256",
          "name": "tokenId",
          "type": "uint256"
        }
      ],
      "name": "minBidForToken",
      "outputs": [
        {
          "internalType": "uint256",
          "name": "",
          "type": "uint256"
        }
      ],
      "stateMutability": "view",
      "type": "function"
    },
    {
      "inputs": [
        {
          "internalType": "uint256",
          "name": "tokenId",
          "type": "uint256"
        },
        {
          "internalType": "address",
          "name": "bidder",
          "type": "address"
        }
      ],
      "name": "removeBid",
      "outputs": [],
      "stateMutability": "nonpayable",
      "type": "function"
    },
    {
      "inputs": [
        {
          "internalType": "uint256",
          "name": "tokenId",
          "type": "uint256"
        },
        {
          "components": [
            {
              "internalType": "uint256",
              "name": "amount",
              "type": "uint256"
            },
            {
              "internalType": "address",
              "name": "currency",
              "type": "address"
            },
            {
              "components": [
                {
                  "internalType": "uint256",
                  "name": "value",
                  "type": "uint256"
                }
              ],
              "internalType": "struct Decimal.D256",
              "name": "sellOnFee",
              "type": "tuple"
            }
          ],
          "internalType": "struct Market.Ask",
          "name": "ask",
          "type": "tuple"
        }
      ],
      "name": "setAsk",
      "outputs": [],
      "stateMutability": "nonpayable",
      "type": "function"
    },
    {
      "inputs": [
        {
          "internalType": "uint256",
          "name": "tokenId",
          "type": "uint256"
        },
        {
          "components": [
            {
              "internalType": "uint256",
              "name": "amount",
              "type": "uint256"
            },
            {
              "internalType": "address",
              "name": "currency",
              "type": "address"
            },
            {
              "internalType": "address",
              "name": "bidder",
              "type": "address"
            },
            {
              "components": [
                {
                  "internalType": "uint256",
                  "name": "value",
                  "type": "uint256"
                }
              ],
              "internalType": "struct Decimal.D256",
              "name": "sellOnFee",
              "type": "tuple"
            }
          ],
          "internalType": "struct Market.Bid",
          "name": "bid",
          "type": "tuple"
        }
      ],
      "name": "setBid",
      "outputs": [],
      "stateMutability": "nonpayable",
      "type": "function"
    },
    {
      "inputs": [],
      "name": "tokenContract",
      "outputs": [
        {
          "internalType": "address",
          "name": "",
          "type": "address"
        }
      ],
      "stateMutability": "view",
      "type": "function"
    }
  ],
  "bytecode": "0x608060405234801561001057600080fd5b506001805460ff60a01b196001600160a01b0319909116331716905561224d8061003b6000396000f3fe608060405234801561001057600080fd5b50600436106100ea5760003560e01c8063776a08351161008c578063ad827dc411610066578063ad827dc4146101e1578063b501806e14610201578063d056fc0014610214578063f9ce058214610227576100ea565b8063776a0835146101a857806385f7c354146101bb5780638ca4ce19146101ce576100ea565b806355a373d6116100c857806355a373d61461014b578063578064f6146101605780636bbfbb511461018057806375cb267214610195576100ea565b806302e8fe13146100ef5780630bc85c7c14610118578063360636eb14610138575b600080fd5b6101026100fd366004611a2e565b610247565b60405161010f9190611b2e565b60405180910390f35b61012b6101263660046118e9565b610270565b60405161010f9190612143565b61010261014636600461189a565b6103f7565b610153610457565b60405161010f9190611ac3565b61017361016e3660046118e9565b610466565b60405161010f9190612119565b61019361018e366004611a0b565b6104b5565b005b6101936101a3366004611842565b610906565b6101936101b6366004611919565b610990565b6101936101c9366004611948565b610b2c565b6101936101dc3660046119b2565b610cc6565b6101f46101ef366004611919565b610d7d565b60405161010f9190612135565b61019361020f3660046119d5565b610de7565b61012b6102223660046118b5565b610f56565b61023a6102353660046118e9565b610f77565b60405161010f9190612127565b60008115801590610267575061025c83610270565b828161026457fe5b06155b90505b92915050565b600061027a6116d1565b5060008281526003602090815260409182902082516080810184528154606082019081528152835180840185526001830154815281840152835192830184526002909101548252918201526102ce816103f7565b6102f35760405162461bcd60e51b81526004016102ea90612010565b60405180910390fd5b6000808060125b80600a0a8560200151600001518161030e57fe5b066103325761032b60646012839003600a0a63ffffffff610fcd16565b935061033b565b600019016102fa565b5060125b80600a0a8560400151600001518161035357fe5b066103775761037060646012839003600a0a63ffffffff610fcd16565b9250610380565b6000190161033f565b5060125b845151600a82900a908161039457fe5b066103b8576103b160646012839003600a0a63ffffffff610fcd16565b91506103c1565b60001901610384565b5060006103d76103d18585611007565b83611007565b90506103ec68056bc75e2d631000008261101e565b979650505050505050565b6000806104136064670de0b6b3a764000063ffffffff610fcd16565b602084015151604085015151855151929350909160006104498261043d868663ffffffff61102d16565b9063ffffffff61102d16565b949094149695505050505050565b6000546001600160a01b031681565b61046e611703565b5060009081526004602090815260409182902082516060810184528154815260018201546001600160a01b0316818401528351928301845260029091015482529182015290565b6000546001600160a01b031633146104df5760405162461bcd60e51b81526004016102ea90611f97565b806040015181602001518260000151600082905081816001600160a01b031663dd62ed3e86306040518363ffffffff1660e01b8152600401610522929190611ad7565b60206040518083038186803b15801561053a57600080fd5b505afa15801561054e573d6000803e3d6000fd5b505050506040513d601f19601f820116820180604052508101906105729190611901565b10156105905760405162461bcd60e51b81526004016102ea90611c0e565b6040516370a0823160e01b815282906001600160a01b038316906370a08231906105be908890600401611ac3565b60206040518083038186803b1580156105d657600080fd5b505afa1580156105ea573d6000803e3d6000fd5b505050506040513d601f19601f8201168201806040525081019061060e9190611901565b101561062c5760405162461bcd60e51b81526004016102ea90611c61565b6106346116d1565b5060008681526003602090815260409182902082516080810184528154606082019081528152835180840185526001830154815281840152835192830184526002909101548252918201526106986064670de0b6b3a764000063ffffffff610fcd16565b6060870151516020830151516106b39163ffffffff61102d16565b11156106d15760405162461bcd60e51b81526004016102ea90611f48565b60408601516001600160a01b03166106fb5760405162461bcd60e51b81526004016102ea90611fce565b6000878152600260209081526040808320898201516001600160a01b03168452909152902080541561073557610735888860400151610990565b6020870151604080890151895191516323b872dd60e01b81526001600160a01b038416926323b872dd9261076f9290913091600401611af1565b602060405180830381600087803b15801561078957600080fd5b505af115801561079d573d6000803e3d6000fd5b505050506040513d601f19601f820116820180604052508101906107c1919061187a565b6107dd5760405162461bcd60e51b81526004016102ea90611d70565b6000898152600260208181526040808420818d0180516001600160a01b039081168752918452948290208d518155928d01516001840180549183166001600160a01b03199283161790559451938301805494909116939094169290921790925560608a015151600390920191909155517f0dbda09423f0a7e29bacd13d4b48bba69d3ee8ce6abf7175228cef0236e2d7569061087c908b908b9061218b565b60405180910390a1600089815260046020908152604090912060010154908901516001600160a01b0390811691161480156108c65750600089815260046020526040902054885110155b80156108e8575060008981526004602052604090206002015460608901515110155b156108fb576108fb898960400151611052565b505050505050505050565b6001546001600160a01b031633146109305760405162461bcd60e51b81526004016102ea90611e5a565b600154600160a01b900460ff161561095a5760405162461bcd60e51b81526004016102ea9061209a565b600080546001600160a01b039092166001600160a01b03199092169190911790556001805460ff60a01b1916600160a01b179055565b6000546001600160a01b031633146109ba5760405162461bcd60e51b81526004016102ea90611f97565b60008281526002602090815260408083206001600160a01b038086168552925290912080546001820154919290911681610a065760405162461bcd60e51b81526004016102ea90611da7565b60405181907f6f6ddb3529e63bcdd75528f1ce8f9ed267cc8d1e04e7cacf5ca2e370e4b6ae8490610a3a908890879061219f565b60405180910390a160008681526002602081815260408084206001600160a01b03808b16865292528084208481556001810180546001600160a01b031990811690915593810180549094169093556003909201929092555163a9059cbb60e01b81529082169063a9059cbb90610ab69088908790600401611b15565b602060405180830381600087803b158015610ad057600080fd5b505af1158015610ae4573d6000803e3d6000fd5b505050506040513d601f19601f82011682018060405250810190610b08919061187a565b610b245760405162461bcd60e51b81526004016102ea90611bd7565b505050505050565b6000546001600160a01b03163314610b565760405162461bcd60e51b81526004016102ea90611f97565b610b64828260000151610247565b610b805760405162461bcd60e51b81526004016102ea90611cf2565b6000610b9b6064670de0b6b3a764000063ffffffff610fcd16565b9050610ba56116d1565b506000838152600360209081526040918290208251608081018452815460608201908152815283518084018552600183015481528184015283519283018452600290910154825291820152610c096064670de0b6b3a764000063ffffffff610fcd16565b604084015151602083015151610c249163ffffffff61102d16565b1115610c425760405162461bcd60e51b81526004016102ea90611dec565b60008481526004602090815260409182902085518155908501516001820180546001600160a01b0319166001600160a01b039092169190911790558482015151600290910155517f3e1965cc9a7ae4327b07753c6e0b6ba56bcc25c1d799b82bd2d4a51bb0779d0c90610cb89086908690612163565b60405180910390a150505050565b6000546001600160a01b03163314610cf05760405162461bcd60e51b81526004016102ea90611f97565b610cf9816103f7565b610d155760405162461bcd60e51b81526004016102ea90611b8c565b6000828152600360209081526040918290208351518155908301515160018201558183015151600290910155517fdb88d4e96cb8697aaee5e575ee5f460817709a1dfcfbf7ba15192e90b5c86f9f90610d719084908490612177565b60405180910390a15050565b610d85611722565b5060009182526002602081815260408085206001600160a01b0394851686528252938490208451608081018652815481526001820154851681840152928101549093168285015283519081019093526003909101548252606081019190915290565b6000546001600160a01b03163314610e115760405162461bcd60e51b81526004016102ea90611f97565b610e19611722565b6000838152600260205260408082209190610e3a9060608601908601611842565b6001600160a01b039081168252602080830193909352604091820160002082516080810184528154815260018201548316818601526002820154909216828401528251938401909252600390910154825260608101919091528051909150610eb45760405162461bcd60e51b81526004016102ea90611e23565b80518235148015610ee95750610ed06040830160208401611842565b6001600160a01b031681602001516001600160a01b0316145b8015610efd57506060818101515190830135145b610f195760405162461bcd60e51b81526004016102ea90611ec7565b610f27838260000151610247565b610f435760405162461bcd60e51b81526004016102ea90611cab565b610f51838260400151611052565b505050565b60006102676064610f6b8460000151866115b1565b9063ffffffff6115ca16565b610f7f6116d1565b50600090815260036020908152604091829020825160808101845281546060820190815281528351808401855260018301548152818401528351928301845260029091015482529182015290565b600082610fdc5750600061026a565b82820282848281610fe957fe5b04146102675760405162461bcd60e51b81526004016102ea90611e86565b6000818310156110175781610267565b5090919050565b60008183106110175781610267565b6000828201838110156102675760405162461bcd60e51b81526004016102ea90611d39565b61105a611722565b5060008281526002602081815260408084206001600160a01b0380871686529083528185208251608081018452815481526001820154831681860190815295820154831681850152835180860185526003928301548152606082015288875293528185209351945491516331a9108f60e11b81529294928382169263a9059cbb921690636352211e906110f1908a90600401612143565b60206040518083038186803b15801561110957600080fd5b505afa15801561111d573d6000803e3d6000fd5b505050506040513d601f19601f82011682018060405250810190611141919061185e565b60408051602081019091526002860154815261115d9087610f56565b6040518363ffffffff1660e01b815260040161117a929190611b15565b602060405180830381600087803b15801561119457600080fd5b505af11580156111a8573d6000803e3d6000fd5b505050506040513d601f19601f820116820180604052508101906111cc919061187a565b6111e85760405162461bcd60e51b81526004016102ea90612054565b60005460405163e0fd045f60e01b81526001600160a01b038084169263a9059cbb9291169063e0fd045f90611221908a90600401612143565b60206040518083038186803b15801561123957600080fd5b505afa15801561124d573d6000803e3d6000fd5b505050506040513d601f19601f82011682018060405250810190611271919061185e565b60408051602081019091526001860154815261128d9087610f56565b6040518363ffffffff1660e01b81526004016112aa929190611b15565b602060405180830381600087803b1580156112c457600080fd5b505af11580156112d8573d6000803e3d6000fd5b505050506040513d601f19601f820116820180604052508101906112fc919061187a565b6113185760405162461bcd60e51b81526004016102ea906120d1565b6000546040516304ec739360e51b81526001600160a01b038084169263a9059cbb92911690639d8e726090611351908a90600401612143565b60206040518083038186803b15801561136957600080fd5b505afa15801561137d573d6000803e3d6000fd5b505050506040513d601f19601f820116820180604052508101906113a1919061185e565b6040805160208101909152855481526113ba9087610f56565b6040518363ffffffff1660e01b81526004016113d7929190611b15565b602060405180830381600087803b1580156113f157600080fd5b505af1158015611405573d6000803e3d6000fd5b505050506040513d601f19601f82011682018060405250810190611429919061187a565b6114455760405162461bcd60e51b81526004016102ea90611efe565b600054604051630f6b630f60e41b81526001600160a01b039091169063f6b630f090611477908890889060040161214c565b600060405180830381600087803b15801561149157600080fd5b505af11580156114a5573d6000803e3d6000fd5b5050604080516020808201835260608801515160008b81526003909252929020600101549093508392506114fb91906114ef90816064670de0b6b3a764000063ffffffff610fcd16565b9063ffffffff61160c16565b905251600283015560608301515182556040517f17aa9dd90addabc618f2752c7febbe3933832ea28157be152a4cbf5f9f8fba079061153d908790869061218b565b60405180910390a15050506000918252600460209081526040808420848155600180820180546001600160a01b031990811690915560029283018790558285528387206001600160a01b03969096168752949093529084208481559182018054841690558101805490921690915560030155565b8051600090610267908490670de0b6b3a764000061164e565b600061026783836040518060400160405280601a81526020017f536166654d6174683a206469766973696f6e206279207a65726f00000000000081525061166e565b600061026783836040518060400160405280601e81526020017f536166654d6174683a207375627472616374696f6e206f766572666c6f7700008152506116a5565b600061166482610f6b868663ffffffff610fcd16565b90505b9392505050565b6000818361168f5760405162461bcd60e51b81526004016102ea9190611b39565b50600083858161169b57fe5b0495945050505050565b600081848411156116c95760405162461bcd60e51b81526004016102ea9190611b39565b505050900390565b60405180606001604052806116e4611758565b81526020016116f1611758565b81526020016116fe611758565b905290565b60408051606081018252600080825260208201529081016116fe611758565b60405180608001604052806000815260200160006001600160a01b0316815260200160006001600160a01b031681526020016116fe5b6040518060200160405280600081525090565b60006060828403121561177c578081fd5b61178660606121d8565b9050611792838361181d565b81526117a1836020840161181d565b60208201526117b3836040840161181d565b604082015292915050565b6000608082840312156117cf578081fd5b6117d960806121d8565b90508135815260208201356117ed816121ff565b60208201526040820135611800816121ff565b6040820152611812836060840161181d565b606082015292915050565b60006020828403121561182e578081fd5b61183860206121d8565b9135825250919050565b600060208284031215611853578081fd5b8135610267816121ff565b60006020828403121561186f578081fd5b8151610267816121ff565b60006020828403121561188b578081fd5b81518015158114610267578182fd5b6000606082840312156118ab578081fd5b610267838361176b565b60008060a083850312156118c7578081fd5b6118d1848461181d565b91506118e084602085016117be565b90509250929050565b6000602082840312156118fa578081fd5b5035919050565b600060208284031215611912578081fd5b5051919050565b6000806040838503121561192b578182fd5b82359150602083013561193d816121ff565b809150509250929050565b600080828403608081121561195b578283fd5b833592506060601f1982011215611970578182fd5b5061197b60606121d8565b602084013581526040840135611990816121ff565b60208201526119a2856060860161181d565b6040820152809150509250929050565b600080608083850312156119c4578182fd5b823591506118e0846020850161176b565b60008082840360a08112156119e8578283fd5b833592506080601f19820112156119fd578182fd5b506020830190509250929050565b60008060a08385031215611a1d578182fd5b823591506118e084602085016117be565b60008060408385031215611a40578182fd5b50508035926020909101359150565b805182526020808201516001600160a01b03169083015260409081015151910152565b8051518252602080820151519083015260409081015151910152565b805182526020808201516001600160a01b03908116918401919091526040808301519091169083015260609081015151910152565b6001600160a01b0391909116815260200190565b6001600160a01b0392831681529116602082015260400190565b6001600160a01b039384168152919092166020820152604081019190915260600190565b6001600160a01b03929092168252602082015260400190565b901515815260200190565b6000602080835283518082850152825b81811015611b6557858101830151858201604001528201611b49565b81811115611b765783604083870101525b50601f01601f1916929092016040019392505050565b6020808252602b908201527f4d61726b65743a20496e76616c696420626964207368617265732c206d75737460408201526a02073756d20746f203130360ac1b606082015260800190565b6020808252601d908201527f4d61726b65743a20746f6b656e207472616e73666572206661696c6564000000604082015260600190565b60208082526033908201527f4d61726b65743a20616c6c6f77616e6365206e6f74206869676820656e6f756760408201527234103a37903a3930b739b332b9103a37b5b2b760691b606082015260800190565b6020808252602a908201527f4d61726b65743a204e6f7420656e6f7567682066756e647320746f207472616e60408201526939b332b9103a37b5b2b760b11b606082015260800190565b60208082526027908201527f4d61726b65743a2042696420696e76616c696420666f722073686172652073706040820152666c697474696e6760c81b606082015260800190565b60208082526027908201527f4d61726b65743a2041736b20696e76616c696420666f722073686172652073706040820152666c697474696e6760c81b606082015260800190565b6020808252601b908201527f536166654d6174683a206164646974696f6e206f766572666c6f770000000000604082015260600190565b60208082526017908201527f4d61726b65743a207472616e73666572206661696c6564000000000000000000604082015260600190565b60208082526025908201527f4d61726b65743a2063616e6e6f742072656d6f76652062696420616d6f756e746040820152640206f6620360dc1b606082015260800190565b6020808252601b908201527f4d61726b65743a20696e76616c69642073656c6c206f6e206665650000000000604082015260600190565b6020808252601e908201527f4d61726b65743a2063616e6e6f742061636365707420626964206f6620300000604082015260600190565b60208082526012908201527126b0b935b2ba1d1027b7363c9037bbb732b960711b604082015260600190565b60208082526021908201527f536166654d6174683a206d756c7469706c69636174696f6e206f766572666c6f6040820152607760f81b606082015260800190565b6020808252601d908201527f4d61726b65743a20556e65787065637465642062696420666f756e642e000000604082015260600190565b6020808252602a908201527f4d61726b65743a20746f6b656e207472616e7366657220746f20707265764f776040820152691b995c8819985a5b195960b21b606082015260800190565b6020808252602f908201527f4d61726b65743a2053656c6c206f6e2066656520696e76616c696420666f722060408201526e73686172652073706c697474696e6760881b606082015260800190565b6020808252601b908201527f4d61726b65743a204f6e6c7920746f6b656e20636f6e74726163740000000000604082015260600190565b60208082526022908201527f4d61726b65743a204269646465722063616e6e6f742062652030206164647265604082015261737360f01b606082015260800190565b60208082526024908201527f4d61726b65743a20496e76616c6964206269642073686172657320666f72207460408201526337b5b2b760e11b606082015260800190565b60208082526026908201527f4d61726b65743a20746f6b656e207472616e7366657220746f206f776e65722060408201526519985a5b195960d21b606082015260800190565b6020808252601a908201527f4d61726b65743a20416c726561647920636f6e66696775726564000000000000604082015260600190565b60208082526028908201527f4d61726b65743a20746f6b656e207472616e7366657220746f2063726561746f6040820152671c8819985a5b195960c21b606082015260800190565b6060810161026a8284611a4f565b6060810161026a8284611a72565b6080810161026a8284611a8e565b90815260200190565b9182526001600160a01b0316602082015260400190565b828152608081016116676020830184611a4f565b828152608081016116676020830184611a72565b82815260a081016116676020830184611a8e565b9182528054602083015260018101546001600160a01b039081166040840152600282015416606083015260030154608082015260a00190565b60405181810167ffffffffffffffff811182821017156121f757600080fd5b604052919050565b6001600160a01b038116811461221457600080fd5b5056fea26469706673582212200eaffca88c02b992ef37b0850d8d03bcc8f32448fae0e321f17913aacab3ad0d64736f6c63430006080033",
  "linkReferences": {},
  "deployedLinkReferences": {}
}