{
  "_format": "hh-sol-artifact-1",
  "contractName": "Market",
  "sourceName": "contracts/Market.sol",
  "abi": [
    {
      "inputs": [],
      "stateMutability": "nonpayable",
      "type": "constructor"
    },
    {
      "anonymous": false,
      "inputs": [
        {
          "indexed": true,
          "internalType": "uint256",
          "name": "tokenId",
          "type": "uint256"
        },
        {
          "components": [
            {
              "internalType": "uint256",
              "name": "amount",
              "type": "uint256"
            },
            {
              "internalType": "address",
              "name": "currency",
              "type": "address"
            },
            {
              "components": [
                {
                  "internalType": "uint256",
                  "name": "value",
                  "type": "uint256"
                }
              ],
              "internalType": "struct Decimal.D256",
              "name": "sellOnShare",
              "type": "tuple"
            }
          ],
          "indexed": false,
          "internalType": "struct Market.Ask",
          "name": "ask",
          "type": "tuple"
        }
      ],
      "name": "AskCreated",
      "type": "event"
    },
    {
      "anonymous": false,
      "inputs": [
        {
          "indexed": true,
          "internalType": "uint256",
          "name": "tokenId",
          "type": "uint256"
        },
        {
          "components": [
            {
              "internalType": "uint256",
              "name": "amount",
              "type": "uint256"
            },
            {
              "internalType": "address",
              "name": "currency",
              "type": "address"
            },
            {
              "components": [
                {
                  "internalType": "uint256",
                  "name": "value",
                  "type": "uint256"
                }
              ],
              "internalType": "struct Decimal.D256",
              "name": "sellOnShare",
              "type": "tuple"
            }
          ],
          "indexed": false,
          "internalType": "struct Market.Ask",
          "name": "ask",
          "type": "tuple"
        }
      ],
      "name": "AskRemoved",
      "type": "event"
    },
    {
      "anonymous": false,
      "inputs": [
        {
          "indexed": true,
          "internalType": "uint256",
          "name": "tokenId",
          "type": "uint256"
        },
        {
          "components": [
            {
              "internalType": "uint256",
              "name": "amount",
              "type": "uint256"
            },
            {
              "internalType": "address",
              "name": "currency",
              "type": "address"
            },
            {
              "internalType": "address",
              "name": "bidder",
              "type": "address"
            },
            {
              "internalType": "address",
              "name": "recipient",
              "type": "address"
            },
            {
              "components": [
                {
                  "internalType": "uint256",
                  "name": "value",
                  "type": "uint256"
                }
              ],
              "internalType": "struct Decimal.D256",
              "name": "sellOnShare",
              "type": "tuple"
            }
          ],
          "indexed": false,
          "internalType": "struct Market.Bid",
          "name": "bid",
          "type": "tuple"
        }
      ],
      "name": "BidCreated",
      "type": "event"
    },
    {
      "anonymous": false,
      "inputs": [
        {
          "indexed": true,
          "internalType": "uint256",
          "name": "tokenId",
          "type": "uint256"
        },
        {
          "components": [
            {
              "internalType": "uint256",
              "name": "amount",
              "type": "uint256"
            },
            {
              "internalType": "address",
              "name": "currency",
              "type": "address"
            },
            {
              "internalType": "address",
              "name": "bidder",
              "type": "address"
            },
            {
              "internalType": "address",
              "name": "recipient",
              "type": "address"
            },
            {
              "components": [
                {
                  "internalType": "uint256",
                  "name": "value",
                  "type": "uint256"
                }
              ],
              "internalType": "struct Decimal.D256",
              "name": "sellOnShare",
              "type": "tuple"
            }
          ],
          "indexed": false,
          "internalType": "struct Market.Bid",
          "name": "bid",
          "type": "tuple"
        }
      ],
      "name": "BidFinalized",
      "type": "event"
    },
    {
      "anonymous": false,
      "inputs": [
        {
          "indexed": true,
          "internalType": "uint256",
          "name": "tokenId",
          "type": "uint256"
        },
        {
          "components": [
            {
              "internalType": "uint256",
              "name": "amount",
              "type": "uint256"
            },
            {
              "internalType": "address",
              "name": "currency",
              "type": "address"
            },
            {
              "internalType": "address",
              "name": "bidder",
              "type": "address"
            },
            {
              "internalType": "address",
              "name": "recipient",
              "type": "address"
            },
            {
              "components": [
                {
                  "internalType": "uint256",
                  "name": "value",
                  "type": "uint256"
                }
              ],
              "internalType": "struct Decimal.D256",
              "name": "sellOnShare",
              "type": "tuple"
            }
          ],
          "indexed": false,
          "internalType": "struct Market.Bid",
          "name": "bid",
          "type": "tuple"
        }
      ],
      "name": "BidRemoved",
      "type": "event"
    },
    {
      "anonymous": false,
      "inputs": [
        {
          "indexed": true,
          "internalType": "uint256",
          "name": "tokenId",
          "type": "uint256"
        },
        {
          "components": [
            {
              "components": [
                {
                  "internalType": "uint256",
                  "name": "value",
                  "type": "uint256"
                }
              ],
              "internalType": "struct Decimal.D256",
              "name": "prevOwner",
              "type": "tuple"
            },
            {
              "components": [
                {
                  "internalType": "uint256",
                  "name": "value",
                  "type": "uint256"
                }
              ],
              "internalType": "struct Decimal.D256",
              "name": "creator",
              "type": "tuple"
            },
            {
              "components": [
                {
                  "internalType": "uint256",
                  "name": "value",
                  "type": "uint256"
                }
              ],
              "internalType": "struct Decimal.D256",
              "name": "owner",
              "type": "tuple"
            }
          ],
          "indexed": false,
          "internalType": "struct Market.BidShares",
          "name": "bidShares",
          "type": "tuple"
        }
      ],
      "name": "BidShareUpdated",
      "type": "event"
    },
    {
      "inputs": [
        {
          "components": [
            {
              "internalType": "uint256",
              "name": "value",
              "type": "uint256"
            }
          ],
          "internalType": "struct Decimal.D256",
          "name": "sharePercentage",
          "type": "tuple"
        },
        {
          "internalType": "uint256",
          "name": "amount",
          "type": "uint256"
        }
      ],
      "name": "_splitShare",
      "outputs": [
        {
          "internalType": "uint256",
          "name": "",
          "type": "uint256"
        }
      ],
      "stateMutability": "pure",
      "type": "function"
    },
    {
      "inputs": [
        {
          "internalType": "uint256",
          "name": "tokenId",
          "type": "uint256"
        },
        {
          "components": [
            {
              "internalType": "uint256",
              "name": "amount",
              "type": "uint256"
            },
            {
              "internalType": "address",
              "name": "currency",
              "type": "address"
            },
            {
              "internalType": "address",
              "name": "bidder",
              "type": "address"
            },
            {
              "internalType": "address",
              "name": "recipient",
              "type": "address"
            },
            {
              "components": [
                {
                  "internalType": "uint256",
                  "name": "value",
                  "type": "uint256"
                }
              ],
              "internalType": "struct Decimal.D256",
              "name": "sellOnShare",
              "type": "tuple"
            }
          ],
          "internalType": "struct Market.Bid",
          "name": "expectedBid",
          "type": "tuple"
        }
      ],
      "name": "acceptBid",
      "outputs": [],
      "stateMutability": "nonpayable",
      "type": "function"
    },
    {
      "inputs": [
        {
          "internalType": "uint256",
          "name": "tokenId",
          "type": "uint256"
        },
        {
          "internalType": "address",
          "name": "bidder",
          "type": "address"
        }
      ],
      "name": "bidForTokenBidder",
      "outputs": [
        {
          "components": [
            {
              "internalType": "uint256",
              "name": "amount",
              "type": "uint256"
            },
            {
              "internalType": "address",
              "name": "currency",
              "type": "address"
            },
            {
              "internalType": "address",
              "name": "bidder",
              "type": "address"
            },
            {
              "internalType": "address",
              "name": "recipient",
              "type": "address"
            },
            {
              "components": [
                {
                  "internalType": "uint256",
                  "name": "value",
                  "type": "uint256"
                }
              ],
              "internalType": "struct Decimal.D256",
              "name": "sellOnShare",
              "type": "tuple"
            }
          ],
          "internalType": "struct Market.Bid",
          "name": "",
          "type": "tuple"
        }
      ],
      "stateMutability": "view",
      "type": "function"
    },
    {
      "inputs": [
        {
          "internalType": "uint256",
          "name": "tokenId",
          "type": "uint256"
        }
      ],
      "name": "bidSharesForToken",
      "outputs": [
        {
          "components": [
            {
              "components": [
                {
                  "internalType": "uint256",
                  "name": "value",
                  "type": "uint256"
                }
              ],
              "internalType": "struct Decimal.D256",
              "name": "prevOwner",
              "type": "tuple"
            },
            {
              "components": [
                {
                  "internalType": "uint256",
                  "name": "value",
                  "type": "uint256"
                }
              ],
              "internalType": "struct Decimal.D256",
              "name": "creator",
              "type": "tuple"
            },
            {
              "components": [
                {
                  "internalType": "uint256",
                  "name": "value",
                  "type": "uint256"
                }
              ],
              "internalType": "struct Decimal.D256",
              "name": "owner",
              "type": "tuple"
            }
          ],
          "internalType": "struct Market.BidShares",
          "name": "",
          "type": "tuple"
        }
      ],
      "stateMutability": "view",
      "type": "function"
    },
    {
      "inputs": [
        {
          "internalType": "address",
          "name": "mediaContractAddress",
          "type": "address"
        }
      ],
      "name": "configure",
      "outputs": [],
      "stateMutability": "nonpayable",
      "type": "function"
    },
    {
      "inputs": [
        {
          "internalType": "uint256",
          "name": "tokenId",
          "type": "uint256"
        }
      ],
      "name": "currentAskForToken",
      "outputs": [
        {
          "components": [
            {
              "internalType": "uint256",
              "name": "amount",
              "type": "uint256"
            },
            {
              "internalType": "address",
              "name": "currency",
              "type": "address"
            },
            {
              "components": [
                {
                  "internalType": "uint256",
                  "name": "value",
                  "type": "uint256"
                }
              ],
              "internalType": "struct Decimal.D256",
              "name": "sellOnShare",
              "type": "tuple"
            }
          ],
          "internalType": "struct Market.Ask",
          "name": "",
          "type": "tuple"
        }
      ],
      "stateMutability": "view",
      "type": "function"
    },
    {
      "inputs": [
        {
          "internalType": "uint256",
          "name": "tokenId",
          "type": "uint256"
        },
        {
          "internalType": "uint256",
          "name": "bidAmount",
          "type": "uint256"
        }
      ],
      "name": "isValidBid",
      "outputs": [
        {
          "internalType": "bool",
          "name": "",
          "type": "bool"
        }
      ],
      "stateMutability": "view",
      "type": "function"
    },
    {
      "inputs": [
        {
          "components": [
            {
              "components": [
                {
                  "internalType": "uint256",
                  "name": "value",
                  "type": "uint256"
                }
              ],
              "internalType": "struct Decimal.D256",
              "name": "prevOwner",
              "type": "tuple"
            },
            {
              "components": [
                {
                  "internalType": "uint256",
                  "name": "value",
                  "type": "uint256"
                }
              ],
              "internalType": "struct Decimal.D256",
              "name": "creator",
              "type": "tuple"
            },
            {
              "components": [
                {
                  "internalType": "uint256",
                  "name": "value",
                  "type": "uint256"
                }
              ],
              "internalType": "struct Decimal.D256",
              "name": "owner",
              "type": "tuple"
            }
          ],
          "internalType": "struct Market.BidShares",
          "name": "bidShares",
          "type": "tuple"
        }
      ],
      "name": "isValidBidShares",
      "outputs": [
        {
          "internalType": "bool",
          "name": "",
          "type": "bool"
        }
      ],
      "stateMutability": "pure",
      "type": "function"
    },
    {
      "inputs": [],
      "name": "mediaContract",
      "outputs": [
        {
          "internalType": "address",
          "name": "",
          "type": "address"
        }
      ],
      "stateMutability": "view",
      "type": "function"
    },
    {
      "inputs": [
        {
          "internalType": "uint256",
          "name": "tokenId",
          "type": "uint256"
        }
      ],
      "name": "removeAsk",
      "outputs": [],
      "stateMutability": "nonpayable",
      "type": "function"
    },
    {
      "inputs": [
        {
          "internalType": "uint256",
          "name": "tokenId",
          "type": "uint256"
        },
        {
          "internalType": "address",
          "name": "bidder",
          "type": "address"
        }
      ],
      "name": "removeBid",
      "outputs": [],
      "stateMutability": "nonpayable",
      "type": "function"
    },
    {
      "inputs": [
        {
          "internalType": "uint256",
          "name": "tokenId",
          "type": "uint256"
        },
        {
          "components": [
            {
              "internalType": "uint256",
              "name": "amount",
              "type": "uint256"
            },
            {
              "internalType": "address",
              "name": "currency",
              "type": "address"
            },
            {
              "components": [
                {
                  "internalType": "uint256",
                  "name": "value",
                  "type": "uint256"
                }
              ],
              "internalType": "struct Decimal.D256",
              "name": "sellOnShare",
              "type": "tuple"
            }
          ],
          "internalType": "struct Market.Ask",
          "name": "ask",
          "type": "tuple"
        }
      ],
      "name": "setAsk",
      "outputs": [],
      "stateMutability": "nonpayable",
      "type": "function"
    },
    {
      "inputs": [
        {
          "internalType": "uint256",
          "name": "tokenId",
          "type": "uint256"
        },
        {
          "components": [
            {
              "internalType": "uint256",
              "name": "amount",
              "type": "uint256"
            },
            {
              "internalType": "address",
              "name": "currency",
              "type": "address"
            },
            {
              "internalType": "address",
              "name": "bidder",
              "type": "address"
            },
            {
              "internalType": "address",
              "name": "recipient",
              "type": "address"
            },
            {
              "components": [
                {
                  "internalType": "uint256",
                  "name": "value",
                  "type": "uint256"
                }
              ],
              "internalType": "struct Decimal.D256",
              "name": "sellOnShare",
              "type": "tuple"
            }
          ],
          "internalType": "struct Market.Bid",
          "name": "bid",
          "type": "tuple"
        },
        {
          "internalType": "address",
          "name": "spender",
          "type": "address"
        }
      ],
      "name": "setBid",
      "outputs": [],
      "stateMutability": "nonpayable",
      "type": "function"
    },
    {
      "inputs": [
        {
          "internalType": "uint256",
          "name": "tokenId",
          "type": "uint256"
        },
        {
          "components": [
            {
              "components": [
                {
                  "internalType": "uint256",
                  "name": "value",
                  "type": "uint256"
                }
              ],
              "internalType": "struct Decimal.D256",
              "name": "prevOwner",
              "type": "tuple"
            },
            {
              "components": [
                {
                  "internalType": "uint256",
                  "name": "value",
                  "type": "uint256"
                }
              ],
              "internalType": "struct Decimal.D256",
              "name": "creator",
              "type": "tuple"
            },
            {
              "components": [
                {
                  "internalType": "uint256",
                  "name": "value",
                  "type": "uint256"
                }
              ],
              "internalType": "struct Decimal.D256",
              "name": "owner",
              "type": "tuple"
            }
          ],
          "internalType": "struct Market.BidShares",
          "name": "bidShares",
          "type": "tuple"
        }
      ],
      "name": "setBidShares",
      "outputs": [],
      "stateMutability": "nonpayable",
      "type": "function"
    }
  ],
  "bytecode": "0x608060405234801561001057600080fd5b50600180546001600160a01b031916331790556122e8806100326000396000f3fe608060405234801561001057600080fd5b50600436106100ea5760003560e01c806385f7c3541161008c578063ba33939911610066578063ba339399146101ee578063bdb5869814610201578063eb55683a14610214578063f9ce058214610227576100ea565b806385f7c3541461019b57806389923d56146101ae578063ad827dc4146101ce576100ea565b80634e21f9c0116100c85780634e21f9c014610140578063578064f61461015557806375cb267214610175578063776a083514610188576100ea565b806302e8fe13146100ef57806328220f3514610118578063360636eb1461012d575b600080fd5b6101026100fd366004611b41565b610247565b60405161010f9190611be9565b60405180910390f35b61012b610126366004611974565b6102dd565b005b61010261013b36600461192f565b61037a565b6101486103c0565b60405161010f9190611b7e565b610168610163366004611974565b6103cf565b60405161010f9190612126565b61012b6101833660046118d7565b61041e565b61012b6101963660046119a4565b610493565b61012b6101a93660046119d3565b6105b9565b6101c16101bc36600461194a565b610753565b60405161010f9190612227565b6101e16101dc3660046119a4565b610777565b60405161010f919061219d565b61012b6101fc366004611a69565b6107ed565b61012b61020f366004611a9f565b610998565b61012b610222366004611a3d565b610f81565b61023a610235366004611974565b611038565b60405161010f9190612179565b60006102516117b5565b61025a84611038565b90506102658161037a565b61028a5760405162461bcd60e51b81526004016102819061202a565b60405180910390fd5b82158015906102d357506102d06102a5826040015185610753565b6102c46102b6846000015187610753565b6102c4856020015188610753565b9063ffffffff61108e16565b83145b9150505b92915050565b6000546001600160a01b031633146103075760405162461bcd60e51b815260040161028190611f62565b807f186d929ce741c1a8d03f0d465485dbe9e4f1520fbb8a3d9c604696ba5c39c90d600460008481526020019081526020016000206040516103499190612151565b60405180910390a260009081526004602052604081208181556001810180546001600160a01b031916905560020155565b60006103956064670de0b6b3a764000063ffffffff6110b316565b8251516040840151516020850151516103b992916102c4919063ffffffff61108e16565b1492915050565b6000546001600160a01b031681565b6103d76117e7565b5060009081526004602090815260409182902082516060810184528154815260018201546001600160a01b0316818401528351928301845260029091015482529182015290565b6001546001600160a01b031633146104485760405162461bcd60e51b815260040161028190611ebe565b6000546001600160a01b0316156104715760405162461bcd60e51b8152600401610281906120a5565b600080546001600160a01b0319166001600160a01b0392909216919091179055565b6000546001600160a01b031633146104bd5760405162461bcd60e51b815260040161028190611f62565b60008281526002602090815260408083206001600160a01b0380861685529252909120805460018201549192909116816105095760405162461bcd60e51b815260040161028190611dd4565b6000819050857fcbebd567b8a5c57f63ec61dc46746aab28daff6bdd1f4a6a0a305c17fa5465c98560405161053e91906121e6565b60405180910390a260008681526002602081815260408084206001600160a01b03808b168652925283208381556001810180546001600160a01b03199081169091559281018054841690556003810180549093169092556004909101919091556105b1908216868563ffffffff6110ed16565b505050505050565b6000546001600160a01b031633146105e35760405162461bcd60e51b815260040161028190611f62565b6105f1828260000151610247565b61060d5760405162461bcd60e51b815260040161028190611d56565b60006106286064670de0b6b3a764000063ffffffff6110b316565b90506106326117b5565b5060008381526003602090815260409182902082516080810184528154606082019081528152835180840185526001830154815281840152835192830184526002909101548252918201526106966064670de0b6b3a764000063ffffffff6110b316565b6040840151516020830151516106b19163ffffffff61108e16565b11156106cf5760405162461bcd60e51b815260040161028190611e19565b60008481526004602090815260409182902085518155908501516001820180546001600160a01b0319166001600160a01b0390921691909117905584820151516002909101555184907f3e1965cc9a7ae4327b07753c6e0b6ba56bcc25c1d799b82bd2d4a51bb0779d0c90610745908690612126565b60405180910390a250505050565b600061077060646107648486611143565b9063ffffffff61115c16565b9392505050565b61077f611806565b5060009182526002602081815260408085206001600160a01b039485168652825293849020845160a081018652815481526001820154851681840152928101548416838601526003810154909316606083015283519081019093526004909101548252608081019190915290565b6000546001600160a01b031633146108175760405162461bcd60e51b815260040161028190611f62565b61081f611806565b600083815260026020526040808220919061084090606086019086016118d7565b6001600160a01b0390811682526020808301939093526040918201600020825160a08101845281548152600182015483168186015260028201548316818501526003820154909216606083015282519384019092526004909101548252608081019190915280519091506108c65760405162461bcd60e51b815260040161028190611e87565b805182351480156108fb57506108e260408301602084016118d7565b6001600160a01b031681602001516001600160a01b0316145b801561090f57506080818101515190830135145b801561093f575061092660808301606084016118d7565b6001600160a01b031681606001516001600160a01b0316145b61095b5760405162461bcd60e51b815260040161028190611f2b565b610969838260000151610247565b6109855760405162461bcd60e51b815260040161028190611d0f565b61099383826040015161119e565b505050565b6000546001600160a01b031633146109c25760405162461bcd60e51b815260040161028190611f62565b60208201518251604051636eb1769f60e11b815283929190829082906001600160a01b0383169063dd62ed3e906109ff9088903090600401611b92565b60206040518083038186803b158015610a1757600080fd5b505afa158015610a2b573d6000803e3d6000fd5b505050506040513d601f19601f82011682018060405250810190610a4f919061198c565b1015610a6d5760405162461bcd60e51b815260040161028190611c72565b6040516370a0823160e01b815282906001600160a01b038316906370a0823190610a9b908890600401611b7e565b60206040518083038186803b158015610ab357600080fd5b505afa158015610ac7573d6000803e3d6000fd5b505050506040513d601f19601f82011682018060405250810190610aeb919061198c565b1015610b095760405162461bcd60e51b815260040161028190611cc5565b610b116117b5565b506000878152600360209081526040918290208251608081018452815460608201908152815283518084018552600183015481528184015283519283018452600290910154825291820152610b756064670de0b6b3a764000063ffffffff6110b316565b608088015151602083015151610b909163ffffffff61108e16565b1115610bae5760405162461bcd60e51b815260040161028190611f99565b60408701516001600160a01b0316610bd85760405162461bcd60e51b815260040161028190611fe8565b8651610bf65760405162461bcd60e51b815260040161028190611e50565b60008881526002602090815260408083208a8201516001600160a01b031684529091529020805415610c3057610c30898960400151610493565b60208801516040516370a0823160e01b81526000906001600160a01b038316906370a0823190610c64903090600401611b7e565b60206040518083038186803b158015610c7c57600080fd5b505afa158015610c90573d6000803e3d6000fd5b505050506040513d601f19601f82011682018060405250810190610cb4919061198c565b8a51909150610cd7906001600160a01b038416908b90309063ffffffff61156816565b6040516370a0823160e01b81526000906001600160a01b038416906370a0823190610d06903090600401611b7e565b60206040518083038186803b158015610d1e57600080fd5b505afa158015610d32573d6000803e3d6000fd5b505050506040513d601f19601f82011682018060405250810190610d56919061198c565b90506040518060a00160405280610d76848461158f90919063ffffffff16565b81526020018c602001516001600160a01b031681526020018c604001516001600160a01b031681526020018c606001516001600160a01b031681526020018c60800151815250600260008e815260200190815260200160002060008d604001516001600160a01b03166001600160a01b031681526020019081526020016000206000820151816000015560208201518160010160006101000a8154816001600160a01b0302191690836001600160a01b0316021790555060408201518160020160006101000a8154816001600160a01b0302191690836001600160a01b0316021790555060608201518160030160006101000a8154816001600160a01b0302191690836001600160a01b031602179055506080820151816004016000820151816000015550509050508b7f327bc9021bfbee403a11b13dd6c819999006aff090cc129f07e9f2840af38dd58c604051610ecf919061219d565b60405180910390a260008c8152600460205260409020600101546001600160a01b031615801590610f23575060008c815260046020908152604090912060010154908c01516001600160a01b039081169116145b8015610f3e575060008c8152600460205260409020548b5110155b8015610f60575060008c81526004602052604090206002015460808c01515110155b15610f7357610f738c8c6040015161119e565b505050505050505050505050565b6000546001600160a01b03163314610fab5760405162461bcd60e51b815260040161028190611f62565b610fb48161037a565b610fd05760405162461bcd60e51b815260040161028190611c27565b60008281526003602090815260409182902083515181559083015151600182015581830151516002909101555182907fdb88d4e96cb8697aaee5e575ee5f460817709a1dfcfbf7ba15192e90b5c86f9f9061102c908490612179565b60405180910390a25050565b6110406117b5565b50600090815260036020908152604091829020825160808101845281546060820190815281528351808401855260018301548152818401528351928301845260029091015482529182015290565b6000828201838110156107705760405162461bcd60e51b815260040161028190611d9d565b6000826110c2575060006102d7565b828202828482816110cf57fe5b04146107705760405162461bcd60e51b815260040161028190611eea565b6109938363a9059cbb60e01b848460405160240161110c929190611bd0565b60408051601f198184030181529190526020810180516001600160e01b03166001600160e01b0319909316929092179091526115d1565b8051600090610770908490670de0b6b3a7640000611660565b600061077083836040518060400160405280601a81526020017f536166654d6174683a206469766973696f6e206279207a65726f00000000000081525061167e565b6111a6611806565b5060008281526002602081815260408084206001600160a01b038087168652908352818520825160a0810184528154815260018201548316818601908152958201548316818501526003808301548416606083015284518087018652600493840154815260808301528988529094528286209451955492516331a9108f60e11b81529395936112ca9390921691636352211e91611245918a9101612227565b60206040518083038186803b15801561125d57600080fd5b505afa158015611271573d6000803e3d6000fd5b505050506040513d601f19601f8201168201806040525081019061129591906118f3565b60408051602081019091526002850154815285516112b39190610753565b6001600160a01b038416919063ffffffff6110ed16565b60005460405163e0fd045f60e01b815261136a916001600160a01b03169063e0fd045f906112fc908990600401612227565b60206040518083038186803b15801561131457600080fd5b505afa158015611328573d6000803e3d6000fd5b505050506040513d601f19601f8201168201806040525081019061134c91906118f3565b60408051602081019091526001850154815285516112b39190610753565b6000546040516304ec739360e51b8152611407916001600160a01b031690639d8e72609061139c908990600401612227565b60206040518083038186803b1580156113b457600080fd5b505afa1580156113c8573d6000803e3d6000fd5b505050506040513d601f19601f820116820180604052508101906113ec91906118f3565b60408051602081019091528454815285516112b39190610753565b6000546060840151604051630f6b630f60e41b81526001600160a01b039092169163f6b630f09161143d91899190600401612230565b600060405180830381600087803b15801561145757600080fd5b505af115801561146b573d6000803e3d6000fd5b5050604080516020808201835260808801515160008b81526003909252929020600101549093508392506114c191906114b590816064670de0b6b3a764000063ffffffff6110b316565b9063ffffffff61158f16565b90525160028084019190915560808401515183556000868152602082815260408083206001600160a01b03891684529091528082208281556001810180546001600160a01b03199081169091559381018054851690556003810180549094169093556004909201555185907fb6ef177c7a6f32b283a49b5e0463a39240cdaa278028dfb219480d050e8ee54c9061155990869061219d565b60405180910390a25050505050565b611589846323b872dd60e01b85858560405160240161110c93929190611bac565b50505050565b600061077083836040518060400160405280601e81526020017f536166654d6174683a207375627472616374696f6e206f766572666c6f7700008152506116b5565b6060611626826040518060400160405280602081526020017f5361666545524332303a206c6f772d6c6576656c2063616c6c206661696c6564815250856001600160a01b03166116e19092919063ffffffff16565b8051909150156109935780806020019051810190611644919061190f565b6109935760405162461bcd60e51b8152600401610281906120dc565b600061167682610764868663ffffffff6110b316565b949350505050565b6000818361169f5760405162461bcd60e51b81526004016102819190611bf4565b5060008385816116ab57fe5b0495945050505050565b600081848411156116d95760405162461bcd60e51b81526004016102819190611bf4565b505050900390565b6060611676848460008560606116f6856117af565b6117125760405162461bcd60e51b81526004016102819061206e565b60006060866001600160a01b0316858760405161172f9190611b62565b60006040518083038185875af1925050503d806000811461176c576040519150601f19603f3d011682016040523d82523d6000602084013e611771565b606091505b509150915081156117855791506116769050565b8051156117955780518082602001fd5b8360405162461bcd60e51b81526004016102819190611bf4565b3b151590565b60405180606001604052806117c861184c565b81526020016117d561184c565b81526020016117e261184c565b905290565b60408051606081018252600080825260208201529081016117e261184c565b6040518060a001604052806000815260200160006001600160a01b0316815260200160006001600160a01b0316815260200160006001600160a01b031681526020016117e25b6040518060200160405280600081525090565b600060608284031215611870578081fd5b61187a6060612247565b905061188683836118b2565b815261189583602084016118b2565b60208201526118a783604084016118b2565b604082015292915050565b6000602082840312156118c3578081fd5b6118cd6020612247565b9135825250919050565b6000602082840312156118e8578081fd5b81356107708161229a565b600060208284031215611904578081fd5b81516107708161229a565b600060208284031215611920578081fd5b81518015158114610770578182fd5b600060608284031215611940578081fd5b610770838361185f565b6000806040838503121561195c578081fd5b61196684846118b2565b946020939093013593505050565b600060208284031215611985578081fd5b5035919050565b60006020828403121561199d578081fd5b5051919050565b600080604083850312156119b6578182fd5b8235915060208301356119c88161229a565b809150509250929050565b60008082840360808112156119e6578283fd5b833592506060601f19820112156119fb578182fd5b50611a066060612247565b602084013581526040840135611a1b8161229a565b6020820152611a2d85606086016118b2565b6040820152809150509250929050565b60008060808385031215611a4f578182fd5b82359150611a60846020850161185f565b90509250929050565b60008082840360c0811215611a7c578283fd5b8335925060a0601f1982011215611a91578182fd5b506020830190509250929050565b600080600083850360e0811215611ab4578182fd5b8435935060a0601f1982011215611ac9578182fd5b50611ad460a0612247565b602085013581526040850135611ae98161229a565b60208201526060850135611afc8161229a565b60408201526080850135611b0f8161229a565b6060820152611b218660a087016118b2565b6080820152915060c0840135611b368161229a565b809150509250925092565b60008060408385031215611b53578081fd5b50508035926020909101359150565b60008251611b7481846020870161226e565b9190910192915050565b6001600160a01b0391909116815260200190565b6001600160a01b0392831681529116602082015260400190565b6001600160a01b039384168152919092166020820152604081019190915260600190565b6001600160a01b03929092168252602082015260400190565b901515815260200190565b6000602082528251806020840152611c1381604085016020870161226e565b601f01601f19169190910160400192915050565b6020808252602b908201527f4d61726b65743a20496e76616c696420626964207368617265732c206d75737460408201526a02073756d20746f203130360ac1b606082015260800190565b60208082526033908201527f4d61726b65743a20616c6c6f77616e6365206e6f74206869676820656e6f756760408201527234103a37903a3930b739b332b9103a37b5b2b760691b606082015260800190565b6020808252602a908201527f4d61726b65743a204e6f7420656e6f7567682066756e647320746f207472616e60408201526939b332b9103a37b5b2b760b11b606082015260800190565b60208082526027908201527f4d61726b65743a2042696420696e76616c696420666f722073686172652073706040820152666c697474696e6760c81b606082015260800190565b60208082526027908201527f4d61726b65743a2041736b20696e76616c696420666f722073686172652073706040820152666c697474696e6760c81b606082015260800190565b6020808252601b908201527f536166654d6174683a206164646974696f6e206f766572666c6f770000000000604082015260600190565b60208082526025908201527f4d61726b65743a2063616e6e6f742072656d6f76652062696420616d6f756e746040820152640206f6620360dc1b606082015260800190565b6020808252601b908201527f4d61726b65743a20696e76616c69642073656c6c206f6e206665650000000000604082015260600190565b6020808252601e908201527f4d61726b65743a2063616e6e6f742062696420616d6f756e74206f6620300000604082015260600190565b6020808252601e908201527f4d61726b65743a2063616e6e6f742061636365707420626964206f6620300000604082015260600190565b60208082526012908201527126b0b935b2ba1d1027b7363c9037bbb732b960711b604082015260600190565b60208082526021908201527f536166654d6174683a206d756c7469706c69636174696f6e206f766572666c6f6040820152607760f81b606082015260800190565b6020808252601d908201527f4d61726b65743a20556e65787065637465642062696420666f756e642e000000604082015260600190565b6020808252601b908201527f4d61726b65743a204f6e6c79206d6564696120636f6e74726163740000000000604082015260600190565b6020808252602f908201527f4d61726b65743a2053656c6c206f6e2066656520696e76616c696420666f722060408201526e73686172652073706c697474696e6760881b606082015260800190565b60208082526022908201527f4d61726b65743a204269646465722063616e6e6f742062652030206164647265604082015261737360f01b606082015260800190565b60208082526024908201527f4d61726b65743a20496e76616c6964206269642073686172657320666f72207460408201526337b5b2b760e11b606082015260800190565b6020808252601d908201527f416464726573733a2063616c6c20746f206e6f6e2d636f6e7472616374000000604082015260600190565b6020808252601a908201527f4d61726b65743a20416c726561647920636f6e66696775726564000000000000604082015260600190565b6020808252602a908201527f5361666545524332303a204552433230206f7065726174696f6e20646964206e6040820152691bdd081cdd58d8d9595960b21b606082015260800190565b815181526020808301516001600160a01b031690820152604091820151519181019190915260600190565b8154815260018201546001600160a01b03166020820152600290910154604082015260600190565b81515181526020808301515190820152604091820151519181019190915260600190565b815181526020808301516001600160a01b039081169183019190915260408084015182169083015260608084015190911690820152608091820151519181019190915260a00190565b8154815260018201546001600160a01b0390811660208301526002830154811660408301526003830154166060820152600490910154608082015260a00190565b90815260200190565b9182526001600160a01b0316602082015260400190565b60405181810167ffffffffffffffff8111828210171561226657600080fd5b604052919050565b60005b83811015612289578181015183820152602001612271565b838111156115895750506000910152565b6001600160a01b03811681146122af57600080fd5b5056fea2646970667358221220b561a1e5e6d451cd483e3fa94f0021663db8f938b4e1a8c84f44ada5d36fe2b864736f6c63430006080033",
  "linkReferences": {},
  "deployedLinkReferences": {}
}