{
  "_format": "hh-sol-artifact-1",
  "contractName": "Media",
  "sourceName": "contracts/Media.sol",
  "abi": [
    {
      "inputs": [
        {
          "internalType": "address",
          "name": "auctionContract",
          "type": "address"
        }
      ],
      "stateMutability": "nonpayable",
      "type": "constructor"
    },
    {
      "anonymous": false,
      "inputs": [
        {
          "indexed": true,
          "internalType": "address",
          "name": "owner",
          "type": "address"
        },
        {
          "indexed": true,
          "internalType": "address",
          "name": "approved",
          "type": "address"
        },
        {
          "indexed": true,
          "internalType": "uint256",
          "name": "tokenId",
          "type": "uint256"
        }
      ],
      "name": "Approval",
      "type": "event"
    },
    {
      "anonymous": false,
      "inputs": [
        {
          "indexed": true,
          "internalType": "address",
          "name": "owner",
          "type": "address"
        },
        {
          "indexed": true,
          "internalType": "address",
          "name": "operator",
          "type": "address"
        },
        {
          "indexed": false,
          "internalType": "bool",
          "name": "approved",
          "type": "bool"
        }
      ],
      "name": "ApprovalForAll",
      "type": "event"
    },
    {
      "anonymous": false,
      "inputs": [
        {
          "indexed": true,
          "internalType": "address",
          "name": "owner",
          "type": "address"
        },
        {
          "indexed": true,
          "internalType": "address",
          "name": "creator",
          "type": "address"
        },
        {
          "indexed": true,
          "internalType": "uint256",
          "name": "tokenId",
          "type": "uint256"
        }
      ],
      "name": "Burn",
      "type": "event"
    },
    {
      "anonymous": false,
      "inputs": [
        {
          "indexed": true,
          "internalType": "address",
          "name": "creator",
          "type": "address"
        },
        {
          "indexed": true,
          "internalType": "uint256",
          "name": "tokenId",
          "type": "uint256"
        },
        {
          "indexed": false,
          "internalType": "bytes32",
          "name": "contentHash",
          "type": "bytes32"
        },
        {
          "indexed": false,
          "internalType": "bytes32",
          "name": "metadataHash",
          "type": "bytes32"
        }
      ],
      "name": "Mint",
      "type": "event"
    },
    {
      "anonymous": false,
      "inputs": [
        {
          "indexed": true,
          "internalType": "uint256",
          "name": "_tokenId",
          "type": "uint256"
        },
        {
          "indexed": false,
          "internalType": "address",
          "name": "owner",
          "type": "address"
        },
        {
          "indexed": false,
          "internalType": "string",
          "name": "_uri",
          "type": "string"
        }
      ],
      "name": "TokenMetadataURIUpdated",
      "type": "event"
    },
    {
      "anonymous": false,
      "inputs": [
        {
          "indexed": true,
          "internalType": "uint256",
          "name": "_tokenId",
          "type": "uint256"
        },
        {
          "indexed": false,
          "internalType": "address",
          "name": "owner",
          "type": "address"
        },
        {
          "indexed": false,
          "internalType": "string",
          "name": "_uri",
          "type": "string"
        }
      ],
      "name": "TokenURIUpdated",
      "type": "event"
    },
    {
      "anonymous": false,
      "inputs": [
        {
          "indexed": true,
          "internalType": "address",
          "name": "from",
          "type": "address"
        },
        {
          "indexed": true,
          "internalType": "address",
          "name": "to",
          "type": "address"
        },
        {
          "indexed": true,
          "internalType": "uint256",
          "name": "tokenId",
          "type": "uint256"
        }
      ],
      "name": "Transfer",
      "type": "event"
    },
    {
      "inputs": [],
      "name": "_auctionContract",
      "outputs": [
        {
          "internalType": "address",
          "name": "",
          "type": "address"
        }
      ],
      "stateMutability": "view",
      "type": "function"
    },
    {
      "inputs": [
        {
          "internalType": "uint256",
          "name": "tokenId",
          "type": "uint256"
        },
        {
          "components": [
            {
              "internalType": "uint256",
              "name": "amount",
              "type": "uint256"
            },
            {
              "internalType": "address",
              "name": "currency",
              "type": "address"
            },
            {
              "internalType": "address",
              "name": "bidder",
              "type": "address"
            },
            {
              "components": [
                {
                  "internalType": "uint256",
                  "name": "value",
                  "type": "uint256"
                }
              ],
              "internalType": "struct Decimal.D256",
              "name": "sellOnFee",
              "type": "tuple"
            }
          ],
          "internalType": "struct Market.Bid",
          "name": "bid",
          "type": "tuple"
        }
      ],
      "name": "acceptBid",
      "outputs": [],
      "stateMutability": "nonpayable",
      "type": "function"
    },
    {
      "inputs": [
        {
          "internalType": "address",
          "name": "to",
          "type": "address"
        },
        {
          "internalType": "uint256",
          "name": "tokenId",
          "type": "uint256"
        }
      ],
      "name": "approve",
      "outputs": [],
      "stateMutability": "nonpayable",
      "type": "function"
    },
    {
      "inputs": [
        {
          "internalType": "uint256",
          "name": "tokenId",
          "type": "uint256"
        },
        {
          "internalType": "address",
          "name": "bidder",
          "type": "address"
        }
      ],
      "name": "auctionTransfer",
      "outputs": [],
      "stateMutability": "nonpayable",
      "type": "function"
    },
    {
      "inputs": [
        {
          "internalType": "address",
          "name": "owner",
          "type": "address"
        }
      ],
      "name": "balanceOf",
      "outputs": [
        {
          "internalType": "uint256",
          "name": "",
          "type": "uint256"
        }
      ],
      "stateMutability": "view",
      "type": "function"
    },
    {
      "inputs": [],
      "name": "baseURI",
      "outputs": [
        {
          "internalType": "string",
          "name": "",
          "type": "string"
        }
      ],
      "stateMutability": "view",
      "type": "function"
    },
    {
      "inputs": [
        {
          "internalType": "uint256",
          "name": "tokenId",
          "type": "uint256"
        }
      ],
      "name": "burn",
      "outputs": [],
      "stateMutability": "nonpayable",
      "type": "function"
    },
    {
      "inputs": [
        {
          "internalType": "uint256",
          "name": "tokenId",
          "type": "uint256"
        }
      ],
      "name": "getApproved",
      "outputs": [
        {
          "internalType": "address",
          "name": "",
          "type": "address"
        }
      ],
      "stateMutability": "view",
      "type": "function"
    },
    {
      "inputs": [
        {
          "internalType": "address",
          "name": "owner",
          "type": "address"
        },
        {
          "internalType": "address",
          "name": "operator",
          "type": "address"
        }
      ],
      "name": "isApprovedForAll",
      "outputs": [
        {
          "internalType": "bool",
          "name": "",
          "type": "bool"
        }
      ],
      "stateMutability": "view",
      "type": "function"
    },
    {
      "inputs": [
        {
          "internalType": "address",
          "name": "creator",
          "type": "address"
        },
        {
          "internalType": "string",
          "name": "tokenURI",
          "type": "string"
        },
        {
          "internalType": "string",
          "name": "metadataURI",
          "type": "string"
        },
        {
          "internalType": "bytes32",
          "name": "contentHash",
          "type": "bytes32"
        },
        {
          "internalType": "bytes32",
          "name": "metadataHash",
          "type": "bytes32"
        },
        {
          "components": [
            {
              "components": [
                {
                  "internalType": "uint256",
                  "name": "value",
                  "type": "uint256"
                }
              ],
              "internalType": "struct Decimal.D256",
              "name": "prevOwner",
              "type": "tuple"
            },
            {
              "components": [
                {
                  "internalType": "uint256",
                  "name": "value",
                  "type": "uint256"
                }
              ],
              "internalType": "struct Decimal.D256",
              "name": "creator",
              "type": "tuple"
            },
            {
              "components": [
                {
                  "internalType": "uint256",
                  "name": "value",
                  "type": "uint256"
                }
              ],
              "internalType": "struct Decimal.D256",
              "name": "owner",
              "type": "tuple"
            }
          ],
          "internalType": "struct Market.BidShares",
          "name": "bidShares",
          "type": "tuple"
        }
      ],
      "name": "mint",
      "outputs": [],
      "stateMutability": "nonpayable",
      "type": "function"
    },
    {
      "inputs": [],
      "name": "name",
      "outputs": [
        {
          "internalType": "string",
          "name": "",
          "type": "string"
        }
      ],
      "stateMutability": "view",
      "type": "function"
    },
    {
      "inputs": [
        {
          "internalType": "uint256",
          "name": "tokenId",
          "type": "uint256"
        }
      ],
      "name": "ownerOf",
      "outputs": [
        {
          "internalType": "address",
          "name": "",
          "type": "address"
        }
      ],
      "stateMutability": "view",
      "type": "function"
    },
    {
      "inputs": [
        {
          "internalType": "address",
          "name": "spender",
          "type": "address"
        },
        {
          "internalType": "uint256",
          "name": "tokenId",
          "type": "uint256"
        },
        {
          "internalType": "uint256",
          "name": "deadline",
          "type": "uint256"
        },
        {
          "internalType": "uint8",
          "name": "v",
          "type": "uint8"
        },
        {
          "internalType": "bytes32",
          "name": "r",
          "type": "bytes32"
        },
        {
          "internalType": "bytes32",
          "name": "s",
          "type": "bytes32"
        }
      ],
      "name": "permit",
      "outputs": [],
      "stateMutability": "nonpayable",
      "type": "function"
    },
    {
      "inputs": [
        {
          "internalType": "address",
          "name": "",
          "type": "address"
        },
        {
          "internalType": "uint256",
          "name": "",
          "type": "uint256"
        }
      ],
      "name": "permitNonces",
      "outputs": [
        {
          "internalType": "uint256",
          "name": "",
          "type": "uint256"
        }
      ],
      "stateMutability": "view",
      "type": "function"
    },
    {
      "inputs": [
        {
          "internalType": "uint256",
          "name": "",
          "type": "uint256"
        }
      ],
      "name": "previousTokenOwners",
      "outputs": [
        {
          "internalType": "address",
          "name": "",
          "type": "address"
        }
      ],
      "stateMutability": "view",
      "type": "function"
    },
    {
      "inputs": [
        {
          "internalType": "uint256",
          "name": "tokenId",
          "type": "uint256"
        }
      ],
      "name": "removeBid",
      "outputs": [],
      "stateMutability": "nonpayable",
      "type": "function"
    },
    {
      "inputs": [
        {
          "internalType": "uint256",
          "name": "tokenId",
          "type": "uint256"
        }
      ],
      "name": "revokeApproval",
      "outputs": [],
      "stateMutability": "nonpayable",
      "type": "function"
    },
    {
      "inputs": [
        {
          "internalType": "address",
          "name": "from",
          "type": "address"
        },
        {
          "internalType": "address",
          "name": "to",
          "type": "address"
        },
        {
          "internalType": "uint256",
          "name": "tokenId",
          "type": "uint256"
        }
      ],
      "name": "safeTransferFrom",
      "outputs": [],
      "stateMutability": "nonpayable",
      "type": "function"
    },
    {
      "inputs": [
        {
          "internalType": "address",
          "name": "from",
          "type": "address"
        },
        {
          "internalType": "address",
          "name": "to",
          "type": "address"
        },
        {
          "internalType": "uint256",
          "name": "tokenId",
          "type": "uint256"
        },
        {
          "internalType": "bytes",
          "name": "_data",
          "type": "bytes"
        }
      ],
      "name": "safeTransferFrom",
      "outputs": [],
      "stateMutability": "nonpayable",
      "type": "function"
    },
    {
      "inputs": [
        {
          "internalType": "address",
          "name": "operator",
          "type": "address"
        },
        {
          "internalType": "bool",
          "name": "approved",
          "type": "bool"
        }
      ],
      "name": "setApprovalForAll",
      "outputs": [],
      "stateMutability": "nonpayable",
      "type": "function"
    },
    {
      "inputs": [
        {
          "internalType": "uint256",
          "name": "tokenId",
          "type": "uint256"
        },
        {
          "components": [
            {
              "internalType": "uint256",
              "name": "amount",
              "type": "uint256"
            },
            {
              "internalType": "address",
              "name": "currency",
              "type": "address"
            },
            {
              "components": [
                {
                  "internalType": "uint256",
                  "name": "value",
                  "type": "uint256"
                }
              ],
              "internalType": "struct Decimal.D256",
              "name": "sellOnFee",
              "type": "tuple"
            }
          ],
          "internalType": "struct Market.Ask",
          "name": "ask",
          "type": "tuple"
        }
      ],
      "name": "setAsk",
      "outputs": [],
      "stateMutability": "nonpayable",
      "type": "function"
    },
    {
      "inputs": [
        {
          "internalType": "uint256",
          "name": "tokenId",
          "type": "uint256"
        },
        {
          "components": [
            {
              "internalType": "uint256",
              "name": "amount",
              "type": "uint256"
            },
            {
              "internalType": "address",
              "name": "currency",
              "type": "address"
            },
            {
              "internalType": "address",
              "name": "bidder",
              "type": "address"
            },
            {
              "components": [
                {
                  "internalType": "uint256",
                  "name": "value",
                  "type": "uint256"
                }
              ],
              "internalType": "struct Decimal.D256",
              "name": "sellOnFee",
              "type": "tuple"
            }
          ],
          "internalType": "struct Market.Bid",
          "name": "bid",
          "type": "tuple"
        }
      ],
      "name": "setBid",
      "outputs": [],
      "stateMutability": "nonpayable",
      "type": "function"
    },
    {
      "inputs": [
        {
          "internalType": "bytes4",
          "name": "interfaceId",
          "type": "bytes4"
        }
      ],
      "name": "supportsInterface",
      "outputs": [
        {
          "internalType": "bool",
          "name": "",
          "type": "bool"
        }
      ],
      "stateMutability": "view",
      "type": "function"
    },
    {
      "inputs": [],
      "name": "symbol",
      "outputs": [
        {
          "internalType": "string",
          "name": "",
          "type": "string"
        }
      ],
      "stateMutability": "view",
      "type": "function"
    },
    {
      "inputs": [
        {
          "internalType": "uint256",
          "name": "index",
          "type": "uint256"
        }
      ],
      "name": "tokenByIndex",
      "outputs": [
        {
          "internalType": "uint256",
          "name": "",
          "type": "uint256"
        }
      ],
      "stateMutability": "view",
      "type": "function"
    },
    {
      "inputs": [
        {
          "internalType": "uint256",
          "name": "",
          "type": "uint256"
        }
      ],
      "name": "tokenContentHashes",
      "outputs": [
        {
          "internalType": "bytes32",
          "name": "",
          "type": "bytes32"
        }
      ],
      "stateMutability": "view",
      "type": "function"
    },
    {
      "inputs": [
        {
          "internalType": "uint256",
          "name": "",
          "type": "uint256"
        }
      ],
      "name": "tokenCreators",
      "outputs": [
        {
          "internalType": "address",
          "name": "",
          "type": "address"
        }
      ],
      "stateMutability": "view",
      "type": "function"
    },
    {
      "inputs": [
        {
          "internalType": "uint256",
          "name": "",
          "type": "uint256"
        }
      ],
      "name": "tokenMetadataHashes",
      "outputs": [
        {
          "internalType": "bytes32",
          "name": "",
          "type": "bytes32"
        }
      ],
      "stateMutability": "view",
      "type": "function"
    },
    {
      "inputs": [
        {
          "internalType": "uint256",
          "name": "tokenId",
          "type": "uint256"
        }
      ],
      "name": "tokenMetadataURI",
      "outputs": [
        {
          "internalType": "string",
          "name": "",
          "type": "string"
        }
      ],
      "stateMutability": "view",
      "type": "function"
    },
    {
      "inputs": [
        {
          "internalType": "address",
          "name": "owner",
          "type": "address"
        },
        {
          "internalType": "uint256",
          "name": "index",
          "type": "uint256"
        }
      ],
      "name": "tokenOfOwnerByIndex",
      "outputs": [
        {
          "internalType": "uint256",
          "name": "",
          "type": "uint256"
        }
      ],
      "stateMutability": "view",
      "type": "function"
    },
    {
      "inputs": [
        {
          "internalType": "uint256",
          "name": "tokenId",
          "type": "uint256"
        }
      ],
      "name": "tokenURI",
      "outputs": [
        {
          "internalType": "string",
          "name": "",
          "type": "string"
        }
      ],
      "stateMutability": "view",
      "type": "function"
    },
    {
      "inputs": [],
      "name": "totalSupply",
      "outputs": [
        {
          "internalType": "uint256",
          "name": "",
          "type": "uint256"
        }
      ],
      "stateMutability": "view",
      "type": "function"
    },
    {
      "inputs": [
        {
          "internalType": "address",
          "name": "from",
          "type": "address"
        },
        {
          "internalType": "address",
          "name": "to",
          "type": "address"
        },
        {
          "internalType": "uint256",
          "name": "tokenId",
          "type": "uint256"
        }
      ],
      "name": "transferFrom",
      "outputs": [],
      "stateMutability": "nonpayable",
      "type": "function"
    },
    {
      "inputs": [
        {
          "internalType": "uint256",
          "name": "tokenId",
          "type": "uint256"
        },
        {
          "internalType": "string",
          "name": "metadataURI",
          "type": "string"
        }
      ],
      "name": "updateTokenMetadataURI",
      "outputs": [],
      "stateMutability": "nonpayable",
      "type": "function"
    },
    {
      "inputs": [
        {
          "internalType": "uint256",
          "name": "tokenId",
          "type": "uint256"
        },
        {
          "internalType": "string",
          "name": "tokenURI",
          "type": "string"
        }
      ],
      "name": "updateTokenURI",
      "outputs": [],
      "stateMutability": "nonpayable",
      "type": "function"
    }
  ],
  "bytecode": "0x60806040527f49ecf333e5b8c95c40fdafc95c1ad136e8914a8fb55e9dc8bb01eaa83a2df9ad6012553480156200003557600080fd5b506040516200360038038062003600833981016040819052620000589162000244565b604051806040016040528060058152602001644d6564696160d81b815250604051806040016040528060058152602001644d4544494160d81b815250620000ac6301ffc9a760e01b6200014460201b60201c565b8151620000c19060069060208501906200019f565b508051620000d79060079060208401906200019f565b50620000f36380ac58cd60e01b6001600160e01b036200014416565b6200010e63780e9d6360e01b6001600160e01b036200014416565b5050600a80546001600160a01b0319166001600160a01b0383161790556200013d632711173360e11b62000144565b50620002ab565b6001600160e01b031980821614156200017a5760405162461bcd60e51b8152600401620001719062000274565b60405180910390fd5b6001600160e01b0319166000908152602081905260409020805460ff19166001179055565b828054600181600116156101000203166002900490600052602060002090601f016020900481019282601f10620001e257805160ff191683800117855562000212565b8280016001018555821562000212579182015b8281111562000212578251825591602001919060010190620001f5565b506200022092915062000224565b5090565b6200024191905b808211156200022057600081556001016200022b565b90565b60006020828403121562000256578081fd5b81516001600160a01b03811681146200026d578182fd5b9392505050565b6020808252601c908201527f4552433136353a20696e76616c696420696e7465726661636520696400000000604082015260600190565b61334580620002bb6000396000f3fe608060405234801561001057600080fd5b50600436106102115760003560e01c80636c0360eb11610125578063b320f459116100ad578063e0fd045f1161007c578063e0fd045f14610458578063e985e9c51461046b578063f6b630f01461047e578063f8ccd5de14610491578063fad32197146104a457610211565b8063b320f4591461040c578063b501806e1461041f578063b88d4fde14610432578063c87b56dd1461044557610211565b806385f7c354116100f457806385f7c354146103b857806395d89b41146103cb5780639d8e7260146103d3578063a22cb465146103e6578063b1e130fc146103f957610211565b80636c0360eb1461037757806370a082311461037f57806375682e79146103925780637ac2ff7b146103a557610211565b806318e97fd1116101a857806342966c681161017757806342966c681461031857806348adb7de1461032b5780634f6ccce71461033e5780636352211e146103515780636bbfbb511461036457610211565b806318e97fd1146102cc57806323b872dd146102df5780632f745c59146102f257806342842e0e1461030557610211565b8063095ea7b3116101e4578063095ea7b31461029457806311dec40e146102a9578063157c3df9146102b157806318160ddd146102c457610211565b806301ddc3b51461021657806301ffc9a71461023f57806306fdde031461025f578063081812fc14610274575b600080fd5b6102296102243660046125af565b6104b7565b60405161023691906128e1565b60405180910390f35b61025261024d366004612577565b6104c9565b60405161023691906128d6565b6102676104ec565b604051610236919061296e565b6102876102823660046125af565b610583565b6040516102369190612861565b6102a76102a23660046124ee565b6105cf565b005b610287610667565b6102676102bf3660046125af565b610676565b610229610743565b6102a76102da3660046125ea565b610754565b6102a76102ed36600461232f565b610818565b6102296103003660046124ee565b610850565b6102a761031336600461232f565b610881565b6102a76103263660046125af565b61089c565b6102a7610339366004612412565b610979565b61022961034c3660046125af565b610b9a565b61028761035f3660046125af565b610bb6565b6102a7610372366004612698565b610be4565b610267610c73565b61022961038d3660046122e0565b610cd4565b6102a76103a03660046125ea565b610d1d565b6102a76103b3366004612518565b610dd1565b6102a76103c636600461262f565b610fd5565b610267611067565b6102876103e13660046125af565b6110c8565b6102a76103f43660046123d7565b6110e3565b6102a76104073660046125af565b6111b1565b6102a761041a3660046125af565b6111f8565b6102a761042d366004612698565b61128a565b6102a761044036600461236f565b6112e4565b6102676104533660046125af565b611323565b6102876104663660046125af565b611473565b6102526104793660046122fb565b61148e565b6102a761048c3660046125c7565b6114bc565b61022961049f3660046124ee565b611542565b6102296104b23660046125af565b61155f565b600f6020526000908152604090205481565b6001600160e01b0319811660009081526020819052604090205460ff165b919050565b60068054604080516020601f60026000196101006001881615020190951694909404938401819004810282018101909252828152606093909290918301828280156105785780601f1061054d57610100808354040283529160200191610578565b820191906000526020600020905b81548152906001019060200180831161055b57829003601f168201915b505050505090505b90565b600061058e82611571565b6105b35760405162461bcd60e51b81526004016105aa90612e48565b60405180910390fd5b506000908152600460205260409020546001600160a01b031690565b60006105da82610bb6565b9050806001600160a01b0316836001600160a01b0316141561060e5760405162461bcd60e51b81526004016105aa90612ff7565b806001600160a01b0316610620611584565b6001600160a01b0316148061063c575061063c81610479611584565b6106585760405162461bcd60e51b81526004016105aa90612c67565b6106628383611588565b505050565b600a546001600160a01b031681565b6060818061068460146115f6565b10156106a25760405162461bcd60e51b81526004016105aa906129c3565b60008381526010602090815260409182902080548351601f6002600019610100600186161502019093169290920491820184900484028101840190945280845290918301828280156107355780601f1061070a57610100808354040283529160200191610735565b820191906000526020600020905b81548152906001019060200180831161071857829003601f168201915b505050505091505b50919050565b600061074f60026115fa565b905090565b33826107608282611605565b61077c5760405162461bcd60e51b81526004016105aa90612ee0565b6000848152600e602052604090205484906107a95760405162461bcd60e51b81526004016105aa90612fa5565b838051600014156107cc5760405162461bcd60e51b81526004016105aa9061313e565b6107d6868661168a565b857f702fe2dc2dc0f68023540aa4a1e11811c0f29112f6ebf01e61b90538e4f2981033876040516108089291906128b2565b60405180910390a2505050505050565b610829610823611584565b82611605565b6108455760405162461bcd60e51b81526004016105aa90613038565b6106628383836116ce565b6001600160a01b0382166000908152600160205260408120610878908363ffffffff6117ee16565b90505b92915050565b610662838383604051806020016040528060008152506112e4565b806108a681611571565b6108c25760405162461bcd60e51b81526004016105aa90612c1b565b33826108ce8282611605565b6108ea5760405162461bcd60e51b81526004016105aa90612ee0565b60006108f585610bb6565b6000868152600c60205260409020549091506001600160a01b038083169116146109315760405162461bcd60e51b81526004016105aa90612bd7565b61093a856117fa565b60405185906001600160a01b0383169081907fbac40739b0d4ca32fa2d82fc91630465ba3eddd1598da6fca393b26fb63b945390600090a45050505050565b8480516000141561099c5760405162461bcd60e51b81526004016105aa9061313e565b848051600014156109bf5760405162461bcd60e51b81526004016105aa9061313e565b846109dc5760405162461bcd60e51b81526004016105aa90612f60565b60008581526011602052604090205460ff1615610a0b5760405162461bcd60e51b81526004016105aa90612d3d565b83610a285760405162461bcd60e51b81526004016105aa90613089565b6000610a3460146115f6565b9050610a408982611895565b610a4a60146118af565b610a5481876118b8565b610a5e81866118f1565b610a68818861192a565b610a72818961168a565b6001600160a01b0389166000908152600d60205260409020610a9a908263ffffffff61196f16565b506000868152601160209081526040808320805460ff19166001179055838352600c825280832080546001600160a01b03808f166001600160a01b03199283168117909355600b90945293829020805490941617909255600a549151638ca4ce1960e01b8152911690638ca4ce1990610b1990849088906004016131cc565b600060405180830381600087803b158015610b3357600080fd5b505af1158015610b47573d6000803e3d6000fd5b5050505080896001600160a01b03167fafd7055c4510aa7d29f4dfa0bb09442405b5b891a3a3bc40d1c4eec03a41fa588888604051610b87929190612916565b60405180910390a3505050505050505050565b600080610bae60028463ffffffff61197b16565b509392505050565b600061087b826040518060600160405280602981526020016132e7602991396002919063ffffffff61199716565b81610bee81611571565b610c0a5760405162461bcd60e51b81526004016105aa90612c1b565b600a54604051636bbfbb5160e01b81526001600160a01b0390911690636bbfbb5190610c3c90869086906004016131f6565b600060405180830381600087803b158015610c5657600080fd5b505af1158015610c6a573d6000803e3d6000fd5b50505050505050565b60098054604080516020601f60026000196101006001881615020190951694909404938401819004810282018101909252828152606093909290918301828280156105785780601f1061054d57610100808354040283529160200191610578565b60006001600160a01b038216610cfc5760405162461bcd60e51b81526004016105aa90612cc4565b6001600160a01b038216600090815260016020526040902061087b906115fa565b3382610d298282611605565b610d455760405162461bcd60e51b81526004016105aa90612ee0565b6000848152600f60205260409020548490610d725760405162461bcd60e51b81526004016105aa90612b88565b83805160001415610d955760405162461bcd60e51b81526004016105aa9061313e565b610d9f868661192a565b857fe3df41127db820c79e5b8d541a63e40e3e97b9af96f7a50bded13091b70df9ae33876040516108089291906128b2565b84610ddb81611571565b610df75760405162461bcd60e51b81526004016105aa90612c1b565b841580610e045750428510155b610e205760405162461bcd60e51b81526004016105aa90612d0e565b6001600160a01b038716610e465760405162461bcd60e51b81526004016105aa90612a5d565b6000610e88604051806040016040528060058152602001644d6564696160d81b815250604051806040016040528060018152602001603160f81b8152506119ae565b90506000816012548a8a60136000610e9f8e610bb6565b6001600160a01b03168152602080820192909252604090810160009081208f825283528190208054600181019091559051610edf959493928e91016128ea565b60405160208183030381529060405280519060200120604051602001610f069291906127dc565b604051602081830303815290604052805190602001209050600060018288888860405160008152602001604052604051610f439493929190612950565b6020604051602081039080840390855afa158015610f65573d6000803e3d6000fd5b5050604051601f1901519150506001600160a01b03811615801590610fa35750806001600160a01b0316610f988a610bb6565b6001600160a01b0316145b610fbf5760405162461bcd60e51b81526004016105aa90613107565b610fc98a8a611588565b50505050505050505050565b3382610fe18282611605565b610ffd5760405162461bcd60e51b81526004016105aa90612ee0565b600a5460405163217df0d560e21b81526001600160a01b03909116906385f7c3549061102f908790879060040161319b565b600060405180830381600087803b15801561104957600080fd5b505af115801561105d573d6000803e3d6000fd5b5050505050505050565b60078054604080516020601f60026000196101006001881615020190951694909404938401819004810282018101909252828152606093909290918301828280156105785780601f1061054d57610100808354040283529160200191610578565b600b602052600090815260409020546001600160a01b031681565b6110eb611584565b6001600160a01b0316826001600160a01b0316141561111c5760405162461bcd60e51b81526004016105aa90612b51565b8060056000611129611584565b6001600160a01b03908116825260208083019390935260409182016000908120918716808252919093529120805460ff19169215159290921790915561116d611584565b6001600160a01b03167f17307eab39ab6107e8899845ad3d59bd9653f200f220920489ca2b5937696c31836040516111a591906128d6565b60405180910390a35050565b6111ba81610583565b6001600160a01b0316336001600160a01b0316146111ea5760405162461bcd60e51b81526004016105aa90612acb565b6111f5600082611588565b50565b808061120460146115f6565b10156112225760405162461bcd60e51b81526004016105aa906129c3565b600a5460405163776a083560e01b81526001600160a01b039091169063776a0835906112549085903390600401613184565b600060405180830381600087803b15801561126e57600080fd5b505af1158015611282573d6000803e3d6000fd5b505050505050565b33826112968282611605565b6112b25760405162461bcd60e51b81526004016105aa90612ee0565b600a54604051635a80c03760e11b81526001600160a01b039091169063b501806e9061102f90879087906004016131f6565b6112f56112ef611584565b83611605565b6113115760405162461bcd60e51b81526004016105aa90613038565b61131d84848484611a0c565b50505050565b6060818061133160146115f6565b101561134f5760405162461bcd60e51b81526004016105aa906129c3565b60008381526008602090815260409182902080548351601f60026000196101006001861615020190931692909204918201849004840281018401909452808452606093928301828280156113e45780601f106113b9576101008083540402835291602001916113e4565b820191906000526020600020905b8154815290600101906020018083116113c757829003601f168201915b50506009549394505050506002600019610100600184161502019091160461140d57915061073d565b80511561143f5760098160405160200161142892919061275b565b60405160208183030381529060405292505061073d565b600961144a85611a3f565b60405160200161145b92919061275b565b60405160208183030381529060405292505050919050565b600c602052600090815260409020546001600160a01b031681565b6001600160a01b03918216600090815260056020908152604080832093909416825291909152205460ff1690565b600a546001600160a01b031633146114e65760405162461bcd60e51b81526004016105aa90612ddc565b6114ef82610bb6565b6000838152600b6020526040902080546001600160a01b0319166001600160a01b039290921691909117905561153e61152783610bb6565b828460405180602001604052806000815250611a0c565b5050565b601360209081526000928352604080842090915290825290205481565b600e6020526000908152604090205481565b600061087b60028363ffffffff611b1a16565b3390565b600081815260046020526040902080546001600160a01b0319166001600160a01b03841690811790915581906115bd82610bb6565b6001600160a01b03167f8c5be1e5ebec7d5bd14f71427d1e84f3dd0314c0f7b2291e5b200ac8c7c3b92560405160405180910390a45050565b5490565b600061087b826115f6565b600061161082611571565b61162c5760405162461bcd60e51b81526004016105aa90612c1b565b600061163783610bb6565b9050806001600160a01b0316846001600160a01b031614806116725750836001600160a01b031661166784610583565b6001600160a01b0316145b806116825750611682818561148e565b949350505050565b61169382611571565b6116af5760405162461bcd60e51b81526004016105aa90612e94565b60008281526008602090815260409091208251610662928401906121a3565b826001600160a01b03166116e182610bb6565b6001600160a01b0316146117075760405162461bcd60e51b81526004016105aa90612f17565b6001600160a01b03821661172d5760405162461bcd60e51b81526004016105aa90612b0d565b611738838383610662565b611743600082611588565b6001600160a01b038316600090815260016020526040902061176b908263ffffffff611b2616565b506001600160a01b0382166000908152600160205260409020611794908263ffffffff61196f16565b506117a76002828463ffffffff611b3216565b5080826001600160a01b0316846001600160a01b03167fddf252ad1be2c89b69c2b068fc378daa952ba7f163c4a11628f55a4df523b3ef60405160405180910390a4505050565b60006108788383611b48565b600061180582610bb6565b905061181381600084610662565b61181e600083611588565b6001600160a01b0381166000908152600160205260409020611846908363ffffffff611b2616565b5061185860028363ffffffff611b8d16565b5060405182906000906001600160a01b038416907fddf252ad1be2c89b69c2b068fc378daa952ba7f163c4a11628f55a4df523b3ef908390a45050565b61153e828260405180602001604052806000815250611b99565b80546001019055565b816118c281611571565b6118de5760405162461bcd60e51b81526004016105aa90612c1b565b506000918252600e602052604090912055565b816118fb81611571565b6119175760405162461bcd60e51b81526004016105aa90612c1b565b506000918252600f602052604090912055565b8161193481611571565b6119505760405162461bcd60e51b81526004016105aa90612c1b565b6000838152601060209081526040909120835161131d928501906121a3565b60006108788383611bcc565b600080808061198a8686611c16565b9097909650945050505050565b60006119a4848484611c72565b90505b9392505050565b60405160009046906119bf906127f7565b60405180910390208480519060200120848051906020012083306040516020016119ed959493929190612924565b6040516020818303038152906040528051906020012091505092915050565b611a178484846116ce565b611a2384848484611cd1565b61131d5760405162461bcd60e51b81526004016105aa90612a0b565b606081611a6457506040805180820190915260018152600360fc1b60208201526104e7565b8160005b8115611a7c57600101600a82049150611a68565b60608167ffffffffffffffff81118015611a9557600080fd5b506040519080825280601f01601f191660200182016040528015611ac0576020820181803683370190505b50859350905060001982015b8315611b1157600a840660300160f81b82828060019003935081518110611aef57fe5b60200101906001600160f81b031916908160001a905350600a84049350611acc565b50949350505050565b60006108788383611db6565b60006108788383611dce565b60006119a484846001600160a01b038516611e94565b81546000908210611b6b5760405162461bcd60e51b81526004016105aa90612981565b826000018281548110611b7a57fe5b9060005260206000200154905092915050565b60006108788383611f2b565b611ba38383611fff565b611bb06000848484611cd1565b6106625760405162461bcd60e51b81526004016105aa90612a0b565b6000611bd88383611db6565b611c0e5750815460018181018455600084815260208082209093018490558454848252828601909352604090209190915561087b565b50600061087b565b815460009081908310611c3b5760405162461bcd60e51b81526004016105aa90612d9a565b6000846000018481548110611c4c57fe5b906000526020600020906002020190508060000154816001015492509250509250929050565b60008281526001840160205260408120548281611ca25760405162461bcd60e51b81526004016105aa919061296e565b50846000016001820381548110611cb557fe5b9060005260206000209060020201600101549150509392505050565b6000611ce5846001600160a01b03166120cf565b611cf157506001611682565b6060611d7f630a85bd0160e11b611d06611584565b888787604051602401611d1c9493929190612875565b604051602081830303815290604052906001600160e01b0319166020820180516001600160e01b0383818316178352505050506040518060600160405280603281526020016132b5603291396001600160a01b038816919063ffffffff6120d516565b9050600081806020019051810190611d979190612593565b6001600160e01b031916630a85bd0160e11b1492505050949350505050565b60009081526001919091016020526040902054151590565b60008181526001830160205260408120548015611e8a5783546000198083019190810190600090879083908110611e0157fe5b9060005260206000200154905080876000018481548110611e1e57fe5b600091825260208083209091019290925582815260018981019092526040902090840190558654879080611e4e57fe5b6001900381819060005260206000200160009055905586600101600087815260200190815260200160002060009055600194505050505061087b565b600091505061087b565b600082815260018401602052604081205480611ef95750506040805180820182528381526020808201848152865460018181018955600089815284812095516002909302909501918255915190820155865486845281880190925292909120556119a7565b82856000016001830381548110611f0c57fe5b90600052602060002090600202016001018190555060009150506119a7565b60008181526001830160205260408120548015611e8a5783546000198083019190810190600090879083908110611f5e57fe5b9060005260206000209060020201905080876000018481548110611f7e57fe5b600091825260208083208454600290930201918255600193840154918401919091558354825289830190526040902090840190558654879080611fbd57fe5b600082815260208082206002600019909401938402018281556001908101839055929093558881528982019092526040822091909155945061087b9350505050565b6001600160a01b0382166120255760405162461bcd60e51b81526004016105aa90612e13565b61202e81611571565b1561204b5760405162461bcd60e51b81526004016105aa90612a94565b61205760008383610662565b6001600160a01b038216600090815260016020526040902061207f908263ffffffff61196f16565b506120926002828463ffffffff611b3216565b5060405181906001600160a01b038416906000907fddf252ad1be2c89b69c2b068fc378daa952ba7f163c4a11628f55a4df523b3ef908290a45050565b3b151590565b60606119a4848460008560606120ea856120cf565b6121065760405162461bcd60e51b81526004016105aa906130d0565b60006060866001600160a01b03168587604051612123919061273f565b60006040518083038185875af1925050503d8060008114612160576040519150601f19603f3d011682016040523d82523d6000602084013e612165565b606091505b509150915081156121795791506116829050565b8051156121895780518082602001fd5b8360405162461bcd60e51b81526004016105aa919061296e565b828054600181600116156101000203166002900490600052602060002090601f016020900481019282601f106121e457805160ff1916838001178555612211565b82800160010185558215612211579182015b828111156122115782518255916020019190600101906121f6565b5061221d929150612221565b5090565b61058091905b8082111561221d5760008155600101612227565b80356001600160a01b038116811461087b57600080fd5b600082601f830112612262578081fd5b813567ffffffffffffffff811115612278578182fd5b61228b601f8201601f1916602001613236565b91508082528360208285010111156122a257600080fd5b8060208401602084013760009082016020015292915050565b6000602082840312156122cc578081fd5b6122d66020613236565b9135825250919050565b6000602082840312156122f1578081fd5b610878838361223b565b6000806040838503121561230d578081fd5b612317848461223b565b9150612326846020850161223b565b90509250929050565b600080600060608486031215612343578081fd5b833561234e81613289565b9250602084013561235e81613289565b929592945050506040919091013590565b60008060008060808587031215612384578081fd5b61238e868661223b565b935061239d866020870161223b565b925060408501359150606085013567ffffffffffffffff8111156123bf578182fd5b6123cb87828801612252565b91505092959194509250565b600080604083850312156123e9578182fd5b6123f3848461223b565b915060208301358015158114612407578182fd5b809150509250929050565b60008060008060008086880361010081121561242c578283fd5b873561243781613289565b9650602088013567ffffffffffffffff80821115612453578485fd5b61245f8b838c01612252565b975060408a0135915080821115612474578485fd5b506124818a828b01612252565b955050606088810135945060808901359350609f19820112156124a2578182fd5b506124ad6060613236565b6124ba8960a08a016122bb565b81526124c98960c08a016122bb565b60208201526124db8960e08a016122bb565b6040820152809150509295509295509295565b60008060408385031215612500578182fd5b61250a848461223b565b946020939093013593505050565b60008060008060008060c08789031215612530578384fd5b61253a888861223b565b95506020870135945060408701359350606087013560ff8116811461255d578283fd5b9598949750929560808101359460a0909101359350915050565b600060208284031215612588578081fd5b81356119a78161329e565b6000602082840312156125a4578081fd5b81516119a78161329e565b6000602082840312156125c0578081fd5b5035919050565b600080604083850312156125d9578182fd5b82359150612326846020850161223b565b600080604083850312156125fc578182fd5b82359150602083013567ffffffffffffffff811115612619578182fd5b61262585828601612252565b9150509250929050565b6000808284036080811215612642578283fd5b833592506060601f1982011215612657578182fd5b506126626060613236565b60208401358152612676856040860161223b565b602082015261268885606086016122bb565b6040820152809150509250929050565b60008082840360a08112156126ab578283fd5b833592506080601f19820112156126c0578182fd5b506126cb6080613236565b602084013581526126df856040860161223b565b60208201526126f1856060860161223b565b604082015261270385608086016122bb565b6060820152809150509250929050565b6000815180845261272b81602086016020860161325d565b601f01601f19169290920160200192915050565b6000825161275181846020870161325d565b9190910192915050565b600080845460018082166000811461277a5760018114612791576127c0565b60ff198316865260028304607f16860193506127c0565b600283048886526020808720875b838110156127b85781548a82015290850190820161279f565b505050860193505b50505083516127d381836020880161325d565b01949350505050565b61190160f01b81526002810192909252602282015260420190565b7f454950373132446f6d61696e28737472696e67206e616d652c737472696e672081527f76657273696f6e2c75696e7432353620636861696e49642c6164647265737320602082015271766572696679696e67436f6e74726163742960701b604082015260520190565b6001600160a01b0391909116815260200190565b6001600160a01b03858116825284166020820152604081018390526080606082018190526000906128a890830184612713565b9695505050505050565b6001600160a01b03831681526040602082018190526000906119a490830184612713565b901515815260200190565b90815260200190565b9485526001600160a01b0393909316602085015260408401919091526060830152608082015260a00190565b918252602082015260400190565b9485526020850193909352604084019190915260608301526001600160a01b0316608082015260a00190565b93845260ff9290921660208401526040830152606082015260800190565b6000602082526108786020830184612713565b60208082526022908201527f456e756d657261626c655365743a20696e646578206f7574206f6620626f756e604082015261647360f01b606082015260800190565b60208082526028908201527f4d656469613a20746f6b656e2077697468207468617420696420646f6573206e6040820152671bdd08195e1a5cdd60c21b606082015260800190565b60208082526032908201527f4552433732313a207472616e7366657220746f206e6f6e20455243373231526560408201527131b2b4bb32b91034b6b83632b6b2b73a32b960711b606082015260800190565b6020808252601c908201527f4d656469613a207370656e6465722063616e6e6f742062652030783000000000604082015260600190565b6020808252601c908201527f4552433732313a20746f6b656e20616c7265616479206d696e74656400000000604082015260600190565b60208082526022908201527f4d656469613a2063616c6c6572206e6f7420617070726f766564206164647265604082015261737360f01b606082015260800190565b60208082526024908201527f4552433732313a207472616e7366657220746f20746865207a65726f206164646040820152637265737360e01b606082015260800190565b60208082526019908201527f4552433732313a20617070726f766520746f2063616c6c657200000000000000604082015260600190565b6020808252602f908201527f4d656469613a20746f6b656e20646f6573206e6f74206861766520686173682060408201526e6f6620697473206d6574616461746160881b606082015260800190565b60208082526024908201527f4d656469613a206f776e6572206973206e6f742063726561746f72206f66207460408201526337b5b2b760e11b606082015260800190565b6020808252602c908201527f4552433732313a206f70657261746f7220717565727920666f72206e6f6e657860408201526b34b9ba32b73a103a37b5b2b760a11b606082015260800190565b60208082526038908201527f4552433732313a20617070726f76652063616c6c6572206973206e6f74206f7760408201527f6e6572206e6f7220617070726f76656420666f7220616c6c0000000000000000606082015260800190565b6020808252602a908201527f4552433732313a2062616c616e636520717565727920666f7220746865207a65604082015269726f206164647265737360b01b606082015260800190565b6020808252601590820152741359591a584e8814195c9b5a5d08195e1c1a5c9959605a1b604082015260600190565b6020808252603e908201527f4d656469613a206120746f6b656e2068617320616c7265616479206265656e2060408201527f637265617465642077697468207468697320636f6e74656e7420686173680000606082015260800190565b60208082526022908201527f456e756d657261626c654d61703a20696e646578206f7574206f6620626f756e604082015261647360f01b606082015260800190565b6020808252601b908201527f4d656469613a206f6e6c79206d61726b657420636f6e74726163740000000000604082015260600190565b6020808252818101527f4552433732313a206d696e7420746f20746865207a65726f2061646472657373604082015260600190565b6020808252602c908201527f4552433732313a20617070726f76656420717565727920666f72206e6f6e657860408201526b34b9ba32b73a103a37b5b2b760a11b606082015260800190565b6020808252602c908201527f4552433732314d657461646174613a2055524920736574206f66206e6f6e657860408201526b34b9ba32b73a103a37b5b2b760a11b606082015260800190565b6020808252601d908201527f4d656469613a204f6e6c7920617070726f766564206f72206f776e6572000000604082015260600190565b60208082526029908201527f4552433732313a207472616e73666572206f6620746f6b656e2074686174206960408201526839903737ba1037bbb760b91b606082015260800190565b60208082526025908201527f4d656469613a20636f6e74656e742068617368206d757374206265206e6f6e2d604082015264656d70747960d81b606082015260800190565b60208082526032908201527f4d656469613a20746f6b656e20646f6573206e6f7420686176652068617368206040820152711bd98818dc99585d19590818dbdb9d195b9d60721b606082015260800190565b60208082526021908201527f4552433732313a20617070726f76616c20746f2063757272656e74206f776e656040820152603960f91b606082015260800190565b60208082526031908201527f4552433732313a207472616e736665722063616c6c6572206973206e6f74206f6040820152701ddb995c881b9bdc88185c1c1c9bdd9959607a1b606082015260800190565b60208082526027908201527f4d656469613a206d65746164617461206861736820206d757374206265206e6f6040820152666e2d656d70747960c81b606082015260800190565b6020808252601d908201527f416464726573733a2063616c6c20746f206e6f6e2d636f6e7472616374000000604082015260600190565b60208082526018908201527f4d656469613a205369676e617475726520696e76616c69640000000000000000604082015260600190565b60208082526026908201527f4d656469613a2073706563696669656420757269206d757374206265206e6f6e6040820152652d656d70747960d01b606082015260800190565b9182526001600160a01b0316602082015260400190565b91825280516020808401919091528101516001600160a01b0316604080840191909152015151606082015260800190565b91825280515160208084019190915281015151604080840191909152015151606082015260800190565b91825280516020808401919091528101516001600160a01b0390811660408085019190915282015116606080840191909152015151608082015260a00190565b60405181810167ffffffffffffffff8111828210171561325557600080fd5b604052919050565b60005b83811015613278578181015183820152602001613260565b8381111561131d5750506000910152565b6001600160a01b03811681146111f557600080fd5b6001600160e01b0319811681146111f557600080fdfe4552433732313a207472616e7366657220746f206e6f6e20455243373231526563656976657220696d706c656d656e7465724552433732313a206f776e657220717565727920666f72206e6f6e6578697374656e7420746f6b656ea2646970667358221220b888a26e264758fc05840bbe3ac854ce2bd184f0f4968d6e05cb5c0f2b48f49864736f6c63430006080033",
  "linkReferences": {},
  "deployedLinkReferences": {}
}