{
  "_format": "hh-sol-artifact-1",
  "contractName": "Media",
  "sourceName": "contracts/Media.sol",
  "abi": [
    {
      "inputs": [
        {
          "internalType": "address",
          "name": "auctionContract",
          "type": "address"
        }
      ],
      "stateMutability": "nonpayable",
      "type": "constructor"
    },
    {
      "anonymous": false,
      "inputs": [
        {
          "indexed": true,
          "internalType": "address",
          "name": "owner",
          "type": "address"
        },
        {
          "indexed": true,
          "internalType": "address",
          "name": "approved",
          "type": "address"
        },
        {
          "indexed": true,
          "internalType": "uint256",
          "name": "tokenId",
          "type": "uint256"
        }
      ],
      "name": "Approval",
      "type": "event"
    },
    {
      "anonymous": false,
      "inputs": [
        {
          "indexed": true,
          "internalType": "address",
          "name": "owner",
          "type": "address"
        },
        {
          "indexed": true,
          "internalType": "address",
          "name": "operator",
          "type": "address"
        },
        {
          "indexed": false,
          "internalType": "bool",
          "name": "approved",
          "type": "bool"
        }
      ],
      "name": "ApprovalForAll",
      "type": "event"
    },
    {
      "anonymous": false,
      "inputs": [
        {
          "indexed": true,
          "internalType": "uint256",
          "name": "_tokenId",
          "type": "uint256"
        },
        {
          "indexed": false,
          "internalType": "address",
          "name": "owner",
          "type": "address"
        },
        {
          "indexed": false,
          "internalType": "string",
          "name": "_uri",
          "type": "string"
        }
      ],
      "name": "TokenMetadataURIUpdated",
      "type": "event"
    },
    {
      "anonymous": false,
      "inputs": [
        {
          "indexed": true,
          "internalType": "uint256",
          "name": "_tokenId",
          "type": "uint256"
        },
        {
          "indexed": false,
          "internalType": "address",
          "name": "owner",
          "type": "address"
        },
        {
          "indexed": false,
          "internalType": "string",
          "name": "_uri",
          "type": "string"
        }
      ],
      "name": "TokenURIUpdated",
      "type": "event"
    },
    {
      "anonymous": false,
      "inputs": [
        {
          "indexed": true,
          "internalType": "address",
          "name": "from",
          "type": "address"
        },
        {
          "indexed": true,
          "internalType": "address",
          "name": "to",
          "type": "address"
        },
        {
          "indexed": true,
          "internalType": "uint256",
          "name": "tokenId",
          "type": "uint256"
        }
      ],
      "name": "Transfer",
      "type": "event"
    },
    {
      "inputs": [],
      "name": "_auctionContract",
      "outputs": [
        {
          "internalType": "address",
          "name": "",
          "type": "address"
        }
      ],
      "stateMutability": "view",
      "type": "function"
    },
    {
      "inputs": [
        {
          "internalType": "uint256",
          "name": "tokenId",
          "type": "uint256"
        },
        {
          "components": [
            {
              "internalType": "uint256",
              "name": "amount",
              "type": "uint256"
            },
            {
              "internalType": "address",
              "name": "currency",
              "type": "address"
            },
            {
              "internalType": "address",
              "name": "bidder",
              "type": "address"
            },
            {
              "internalType": "address",
              "name": "recipient",
              "type": "address"
            },
            {
              "components": [
                {
                  "internalType": "uint256",
                  "name": "value",
                  "type": "uint256"
                }
              ],
              "internalType": "struct Decimal.D256",
              "name": "sellOnFee",
              "type": "tuple"
            }
          ],
          "internalType": "struct Market.Bid",
          "name": "bid",
          "type": "tuple"
        }
      ],
      "name": "acceptBid",
      "outputs": [],
      "stateMutability": "nonpayable",
      "type": "function"
    },
    {
      "inputs": [
        {
          "internalType": "address",
          "name": "to",
          "type": "address"
        },
        {
          "internalType": "uint256",
          "name": "tokenId",
          "type": "uint256"
        }
      ],
      "name": "approve",
      "outputs": [],
      "stateMutability": "nonpayable",
      "type": "function"
    },
    {
      "inputs": [
        {
          "internalType": "uint256",
          "name": "tokenId",
          "type": "uint256"
        },
        {
          "internalType": "address",
          "name": "recipient",
          "type": "address"
        }
      ],
      "name": "auctionTransfer",
      "outputs": [],
      "stateMutability": "nonpayable",
      "type": "function"
    },
    {
      "inputs": [
        {
          "internalType": "address",
          "name": "owner",
          "type": "address"
        }
      ],
      "name": "balanceOf",
      "outputs": [
        {
          "internalType": "uint256",
          "name": "",
          "type": "uint256"
        }
      ],
      "stateMutability": "view",
      "type": "function"
    },
    {
      "inputs": [],
      "name": "baseURI",
      "outputs": [
        {
          "internalType": "string",
          "name": "",
          "type": "string"
        }
      ],
      "stateMutability": "view",
      "type": "function"
    },
    {
      "inputs": [
        {
          "internalType": "uint256",
          "name": "tokenId",
          "type": "uint256"
        }
      ],
      "name": "burn",
      "outputs": [],
      "stateMutability": "nonpayable",
      "type": "function"
    },
    {
      "inputs": [
        {
          "internalType": "uint256",
          "name": "tokenId",
          "type": "uint256"
        }
      ],
      "name": "getApproved",
      "outputs": [
        {
          "internalType": "address",
          "name": "",
          "type": "address"
        }
      ],
      "stateMutability": "view",
      "type": "function"
    },
    {
      "inputs": [
        {
          "internalType": "address",
          "name": "owner",
          "type": "address"
        },
        {
          "internalType": "address",
          "name": "operator",
          "type": "address"
        }
      ],
      "name": "isApprovedForAll",
      "outputs": [
        {
          "internalType": "bool",
          "name": "",
          "type": "bool"
        }
      ],
      "stateMutability": "view",
      "type": "function"
    },
    {
      "inputs": [
        {
          "internalType": "address",
          "name": "creator",
          "type": "address"
        },
        {
          "internalType": "string",
          "name": "tokenURI",
          "type": "string"
        },
        {
          "internalType": "string",
          "name": "metadataURI",
          "type": "string"
        },
        {
          "internalType": "bytes32",
          "name": "contentHash",
          "type": "bytes32"
        },
        {
          "internalType": "bytes32",
          "name": "metadataHash",
          "type": "bytes32"
        },
        {
          "components": [
            {
              "components": [
                {
                  "internalType": "uint256",
                  "name": "value",
                  "type": "uint256"
                }
              ],
              "internalType": "struct Decimal.D256",
              "name": "prevOwner",
              "type": "tuple"
            },
            {
              "components": [
                {
                  "internalType": "uint256",
                  "name": "value",
                  "type": "uint256"
                }
              ],
              "internalType": "struct Decimal.D256",
              "name": "creator",
              "type": "tuple"
            },
            {
              "components": [
                {
                  "internalType": "uint256",
                  "name": "value",
                  "type": "uint256"
                }
              ],
              "internalType": "struct Decimal.D256",
              "name": "owner",
              "type": "tuple"
            }
          ],
          "internalType": "struct Market.BidShares",
          "name": "bidShares",
          "type": "tuple"
        }
      ],
      "name": "mint",
      "outputs": [],
      "stateMutability": "nonpayable",
      "type": "function"
    },
    {
      "inputs": [],
      "name": "name",
      "outputs": [
        {
          "internalType": "string",
          "name": "",
          "type": "string"
        }
      ],
      "stateMutability": "view",
      "type": "function"
    },
    {
      "inputs": [
        {
          "internalType": "uint256",
          "name": "tokenId",
          "type": "uint256"
        }
      ],
      "name": "ownerOf",
      "outputs": [
        {
          "internalType": "address",
          "name": "",
          "type": "address"
        }
      ],
      "stateMutability": "view",
      "type": "function"
    },
    {
      "inputs": [
        {
          "internalType": "address",
          "name": "spender",
          "type": "address"
        },
        {
          "internalType": "uint256",
          "name": "tokenId",
          "type": "uint256"
        },
        {
          "internalType": "uint256",
          "name": "deadline",
          "type": "uint256"
        },
        {
          "internalType": "uint8",
          "name": "v",
          "type": "uint8"
        },
        {
          "internalType": "bytes32",
          "name": "r",
          "type": "bytes32"
        },
        {
          "internalType": "bytes32",
          "name": "s",
          "type": "bytes32"
        }
      ],
      "name": "permit",
      "outputs": [],
      "stateMutability": "nonpayable",
      "type": "function"
    },
    {
      "inputs": [
        {
          "internalType": "address",
          "name": "",
          "type": "address"
        },
        {
          "internalType": "uint256",
          "name": "",
          "type": "uint256"
        }
      ],
      "name": "permitNonces",
      "outputs": [
        {
          "internalType": "uint256",
          "name": "",
          "type": "uint256"
        }
      ],
      "stateMutability": "view",
      "type": "function"
    },
    {
      "inputs": [
        {
          "internalType": "uint256",
          "name": "",
          "type": "uint256"
        }
      ],
      "name": "previousTokenOwners",
      "outputs": [
        {
          "internalType": "address",
          "name": "",
          "type": "address"
        }
      ],
      "stateMutability": "view",
      "type": "function"
    },
    {
      "inputs": [
        {
          "internalType": "uint256",
          "name": "tokenId",
          "type": "uint256"
        }
      ],
      "name": "removeAsk",
      "outputs": [],
      "stateMutability": "nonpayable",
      "type": "function"
    },
    {
      "inputs": [
        {
          "internalType": "uint256",
          "name": "tokenId",
          "type": "uint256"
        }
      ],
      "name": "removeBid",
      "outputs": [],
      "stateMutability": "nonpayable",
      "type": "function"
    },
    {
      "inputs": [
        {
          "internalType": "uint256",
          "name": "tokenId",
          "type": "uint256"
        }
      ],
      "name": "revokeApproval",
      "outputs": [],
      "stateMutability": "nonpayable",
      "type": "function"
    },
    {
      "inputs": [
        {
          "internalType": "address",
          "name": "from",
          "type": "address"
        },
        {
          "internalType": "address",
          "name": "to",
          "type": "address"
        },
        {
          "internalType": "uint256",
          "name": "tokenId",
          "type": "uint256"
        }
      ],
      "name": "safeTransferFrom",
      "outputs": [],
      "stateMutability": "nonpayable",
      "type": "function"
    },
    {
      "inputs": [
        {
          "internalType": "address",
          "name": "from",
          "type": "address"
        },
        {
          "internalType": "address",
          "name": "to",
          "type": "address"
        },
        {
          "internalType": "uint256",
          "name": "tokenId",
          "type": "uint256"
        },
        {
          "internalType": "bytes",
          "name": "_data",
          "type": "bytes"
        }
      ],
      "name": "safeTransferFrom",
      "outputs": [],
      "stateMutability": "nonpayable",
      "type": "function"
    },
    {
      "inputs": [
        {
          "internalType": "address",
          "name": "operator",
          "type": "address"
        },
        {
          "internalType": "bool",
          "name": "approved",
          "type": "bool"
        }
      ],
      "name": "setApprovalForAll",
      "outputs": [],
      "stateMutability": "nonpayable",
      "type": "function"
    },
    {
      "inputs": [
        {
          "internalType": "uint256",
          "name": "tokenId",
          "type": "uint256"
        },
        {
          "components": [
            {
              "internalType": "uint256",
              "name": "amount",
              "type": "uint256"
            },
            {
              "internalType": "address",
              "name": "currency",
              "type": "address"
            },
            {
              "components": [
                {
                  "internalType": "uint256",
                  "name": "value",
                  "type": "uint256"
                }
              ],
              "internalType": "struct Decimal.D256",
              "name": "sellOnFee",
              "type": "tuple"
            }
          ],
          "internalType": "struct Market.Ask",
          "name": "ask",
          "type": "tuple"
        }
      ],
      "name": "setAsk",
      "outputs": [],
      "stateMutability": "nonpayable",
      "type": "function"
    },
    {
      "inputs": [
        {
          "internalType": "uint256",
          "name": "tokenId",
          "type": "uint256"
        },
        {
          "components": [
            {
              "internalType": "uint256",
              "name": "amount",
              "type": "uint256"
            },
            {
              "internalType": "address",
              "name": "currency",
              "type": "address"
            },
            {
              "internalType": "address",
              "name": "bidder",
              "type": "address"
            },
            {
              "internalType": "address",
              "name": "recipient",
              "type": "address"
            },
            {
              "components": [
                {
                  "internalType": "uint256",
                  "name": "value",
                  "type": "uint256"
                }
              ],
              "internalType": "struct Decimal.D256",
              "name": "sellOnFee",
              "type": "tuple"
            }
          ],
          "internalType": "struct Market.Bid",
          "name": "bid",
          "type": "tuple"
        }
      ],
      "name": "setBid",
      "outputs": [],
      "stateMutability": "nonpayable",
      "type": "function"
    },
    {
      "inputs": [
        {
          "internalType": "bytes4",
          "name": "interfaceId",
          "type": "bytes4"
        }
      ],
      "name": "supportsInterface",
      "outputs": [
        {
          "internalType": "bool",
          "name": "",
          "type": "bool"
        }
      ],
      "stateMutability": "view",
      "type": "function"
    },
    {
      "inputs": [],
      "name": "symbol",
      "outputs": [
        {
          "internalType": "string",
          "name": "",
          "type": "string"
        }
      ],
      "stateMutability": "view",
      "type": "function"
    },
    {
      "inputs": [
        {
          "internalType": "uint256",
          "name": "index",
          "type": "uint256"
        }
      ],
      "name": "tokenByIndex",
      "outputs": [
        {
          "internalType": "uint256",
          "name": "",
          "type": "uint256"
        }
      ],
      "stateMutability": "view",
      "type": "function"
    },
    {
      "inputs": [
        {
          "internalType": "uint256",
          "name": "",
          "type": "uint256"
        }
      ],
      "name": "tokenContentHashes",
      "outputs": [
        {
          "internalType": "bytes32",
          "name": "",
          "type": "bytes32"
        }
      ],
      "stateMutability": "view",
      "type": "function"
    },
    {
      "inputs": [
        {
          "internalType": "uint256",
          "name": "",
          "type": "uint256"
        }
      ],
      "name": "tokenCreators",
      "outputs": [
        {
          "internalType": "address",
          "name": "",
          "type": "address"
        }
      ],
      "stateMutability": "view",
      "type": "function"
    },
    {
      "inputs": [
        {
          "internalType": "uint256",
          "name": "",
          "type": "uint256"
        }
      ],
      "name": "tokenMetadataHashes",
      "outputs": [
        {
          "internalType": "bytes32",
          "name": "",
          "type": "bytes32"
        }
      ],
      "stateMutability": "view",
      "type": "function"
    },
    {
      "inputs": [
        {
          "internalType": "uint256",
          "name": "tokenId",
          "type": "uint256"
        }
      ],
      "name": "tokenMetadataURI",
      "outputs": [
        {
          "internalType": "string",
          "name": "",
          "type": "string"
        }
      ],
      "stateMutability": "view",
      "type": "function"
    },
    {
      "inputs": [
        {
          "internalType": "address",
          "name": "owner",
          "type": "address"
        },
        {
          "internalType": "uint256",
          "name": "index",
          "type": "uint256"
        }
      ],
      "name": "tokenOfOwnerByIndex",
      "outputs": [
        {
          "internalType": "uint256",
          "name": "",
          "type": "uint256"
        }
      ],
      "stateMutability": "view",
      "type": "function"
    },
    {
      "inputs": [
        {
          "internalType": "uint256",
          "name": "tokenId",
          "type": "uint256"
        }
      ],
      "name": "tokenURI",
      "outputs": [
        {
          "internalType": "string",
          "name": "",
          "type": "string"
        }
      ],
      "stateMutability": "view",
      "type": "function"
    },
    {
      "inputs": [],
      "name": "totalSupply",
      "outputs": [
        {
          "internalType": "uint256",
          "name": "",
          "type": "uint256"
        }
      ],
      "stateMutability": "view",
      "type": "function"
    },
    {
      "inputs": [
        {
          "internalType": "address",
          "name": "from",
          "type": "address"
        },
        {
          "internalType": "address",
          "name": "to",
          "type": "address"
        },
        {
          "internalType": "uint256",
          "name": "tokenId",
          "type": "uint256"
        }
      ],
      "name": "transferFrom",
      "outputs": [],
      "stateMutability": "nonpayable",
      "type": "function"
    },
    {
      "inputs": [
        {
          "internalType": "uint256",
          "name": "tokenId",
          "type": "uint256"
        },
        {
          "internalType": "string",
          "name": "metadataURI",
          "type": "string"
        }
      ],
      "name": "updateTokenMetadataURI",
      "outputs": [],
      "stateMutability": "nonpayable",
      "type": "function"
    },
    {
      "inputs": [
        {
          "internalType": "uint256",
          "name": "tokenId",
          "type": "uint256"
        },
        {
          "internalType": "string",
          "name": "tokenURI",
          "type": "string"
        }
      ],
      "name": "updateTokenURI",
      "outputs": [],
      "stateMutability": "nonpayable",
      "type": "function"
    }
  ],
  "bytecode": "0x60806040527f49ecf333e5b8c95c40fdafc95c1ad136e8914a8fb55e9dc8bb01eaa83a2df9ad6012553480156200003557600080fd5b506040516200371138038062003711833981016040819052620000589162000244565b604051806040016040528060058152602001644d6564696160d81b815250604051806040016040528060058152602001644d4544494160d81b815250620000ac6301ffc9a760e01b6200014460201b60201c565b8151620000c19060069060208501906200019f565b508051620000d79060079060208401906200019f565b50620000f36380ac58cd60e01b6001600160e01b036200014416565b6200010e63780e9d6360e01b6001600160e01b036200014416565b5050600a80546001600160a01b0319166001600160a01b0383161790556200013d632711173360e11b62000144565b50620002ab565b6001600160e01b031980821614156200017a5760405162461bcd60e51b8152600401620001719062000274565b60405180910390fd5b6001600160e01b0319166000908152602081905260409020805460ff19166001179055565b828054600181600116156101000203166002900490600052602060002090601f016020900481019282601f10620001e257805160ff191683800117855562000212565b8280016001018555821562000212579182015b8281111562000212578251825591602001919060010190620001f5565b506200022092915062000224565b5090565b6200024191905b808211156200022057600081556001016200022b565b90565b60006020828403121562000256578081fd5b81516001600160a01b03811681146200026d578182fd5b9392505050565b6020808252601c908201527f4552433136353a20696e76616c696420696e7465726661636520696400000000604082015260600190565b61345680620002bb6000396000f3fe608060405234801561001057600080fd5b506004361061021c5760003560e01c80636c0360eb11610125578063b320f459116100ad578063e0fd045f1161007c578063e0fd045f14610476578063e985e9c514610489578063f6b630f01461049c578063f8ccd5de146104af578063fad32197146104c25761021c565b8063b320f4591461042a578063b88d4fde1461043d578063ba33939914610450578063c87b56dd146104635761021c565b806385f7c354116100f457806385f7c354146103d657806395d89b41146103e95780639d8e7260146103f1578063a22cb46514610404578063b1e130fc146104175761021c565b80636c0360eb1461039557806370a082311461039d57806375682e79146103b05780637ac2ff7b146103c35761021c565b806323b872dd116101a857806342966c681161017757806342966c681461033657806348adb7de146103495780634f6ccce71461035c5780635bf624221461036f5780636352211e146103825761021c565b806323b872dd146102ea57806328220f35146102fd5780632f745c591461031057806342842e0e146103235761021c565b8063095ea7b3116101ef578063095ea7b31461029f57806311dec40e146102b4578063157c3df9146102bc57806318160ddd146102cf57806318e97fd1146102d75761021c565b806301ddc3b51461022157806301ffc9a71461024a57806306fdde031461026a578063081812fc1461027f575b600080fd5b61023461022f366004612639565b6104d5565b60405161024191906129be565b60405180910390f35b61025d610258366004612601565b6104e7565b60405161024191906129b3565b61027261050a565b6040516102419190612a3d565b61029261028d366004612639565b6105a1565b604051610241919061293e565b6102b26102ad366004612578565b6105ed565b005b610292610685565b6102726102ca366004612639565b610694565b610234610761565b6102b26102e5366004612674565b610772565b6102b26102f83660046123ba565b610836565b6102b261030b366004612639565b61086e565b61023461031e366004612578565b6108fd565b6102b26103313660046123ba565b61092e565b6102b2610344366004612639565b610949565b6102b261035736600461249d565b6109ee565b61023461036a366004612639565b610bcb565b6102b261037d366004612722565b610be7565b610292610390366004612639565b610c76565b610272610ca4565b6102346103ab36600461236b565b610d05565b6102b26103be366004612674565b610d4e565b6102b26103d13660046125a2565b610e02565b6102b26103e43660046126b9565b611006565b610272611098565b6102926103ff366004612639565b6110f9565b6102b2610412366004612462565b611114565b6102b2610425366004612639565b6111e2565b6102b2610438366004612639565b611229565b6102b261044b3660046123fa565b6112bb565b6102b261045e366004612722565b6112fa565b610272610471366004612639565b611354565b610292610484366004612639565b6114a4565b61025d610497366004612386565b6114bf565b6102b26104aa366004612651565b6114ed565b6102346104bd366004612578565b611573565b6102346104d0366004612639565b611590565b600f6020526000908152604090205481565b6001600160e01b0319811660009081526020819052604090205460ff165b919050565b60068054604080516020601f60026000196101006001881615020190951694909404938401819004810282018101909252828152606093909290918301828280156105965780601f1061056b57610100808354040283529160200191610596565b820191906000526020600020905b81548152906001019060200180831161057957829003601f168201915b505050505090505b90565b60006105ac826115a2565b6105d15760405162461bcd60e51b81526004016105c890612f58565b60405180910390fd5b506000908152600460205260409020546001600160a01b031690565b60006105f882610c76565b9050806001600160a01b0316836001600160a01b0316141561062c5760405162461bcd60e51b81526004016105c890613107565b806001600160a01b031661063e6115b5565b6001600160a01b0316148061065a575061065a816104976115b5565b6106765760405162461bcd60e51b81526004016105c890612d77565b61068083836115b9565b505050565b600a546001600160a01b031681565b606081806106a26014611627565b10156106c05760405162461bcd60e51b81526004016105c890612a92565b60008381526010602090815260409182902080548351601f6002600019610100600186161502019093169290920491820184900484028101840190945280845290918301828280156107535780601f1061072857610100808354040283529160200191610753565b820191906000526020600020905b81548152906001019060200180831161073657829003601f168201915b505050505091505b50919050565b600061076d600261162b565b905090565b338261077e8282611636565b61079a5760405162461bcd60e51b81526004016105c890612ff0565b6000848152600e602052604090205484906107c75760405162461bcd60e51b81526004016105c8906130b5565b838051600014156107ea5760405162461bcd60e51b81526004016105c89061324e565b6107f486866116bb565b857f702fe2dc2dc0f68023540aa4a1e11811c0f29112f6ebf01e61b90538e4f29810338760405161082692919061298f565b60405180910390a2505050505050565b6108476108416115b5565b82611636565b6108635760405162461bcd60e51b81526004016105c890613148565b6106808383836116ff565b338161087a8282611636565b6108965760405162461bcd60e51b81526004016105c890612ff0565b600a546040516328220f3560e01b81526001600160a01b03909116906328220f35906108c69086906004016129be565b600060405180830381600087803b1580156108e057600080fd5b505af11580156108f4573d6000803e3d6000fd5b50505050505050565b6001600160a01b0382166000908152600160205260408120610925908363ffffffff61173a16565b90505b92915050565b610680838383604051806020016040528060008152506112bb565b80610953816115a2565b61096f5760405162461bcd60e51b81526004016105c890612d2b565b338261097b8282611636565b6109975760405162461bcd60e51b81526004016105c890612ff0565b60006109a285610c76565b6000868152600c60205260409020549091506001600160a01b038083169116146109de5760405162461bcd60e51b81526004016105c890612ce7565b6109e785611746565b5050505050565b84805160001415610a115760405162461bcd60e51b81526004016105c89061324e565b84805160001415610a345760405162461bcd60e51b81526004016105c89061324e565b84610a515760405162461bcd60e51b81526004016105c890613070565b60008581526011602052604090205460ff1615610a805760405162461bcd60e51b81526004016105c890612e4d565b83610a9d5760405162461bcd60e51b81526004016105c890613199565b6000610aa96014611627565b9050610ab589826117fb565b610abf6014611815565b610ac9818761181e565b610ad38186611857565b610add8188611890565b610ae781896116bb565b6001600160a01b0389166000908152600d60205260409020610b0f908263ffffffff6118d516565b506000868152601160209081526040808320805460ff19166001179055838352600c825280832080546001600160a01b03808f166001600160a01b03199283168117909355600b90945293829020805490941617909255600a549151638ca4ce1960e01b8152911690638ca4ce1990610b8e90849088906004016132dc565b600060405180830381600087803b158015610ba857600080fd5b505af1158015610bbc573d6000803e3d6000fd5b50505050505050505050505050565b600080610bdf60028463ffffffff6118e116565b509392505050565b81610bf1816115a2565b610c0d5760405162461bcd60e51b81526004016105c890612d2b565b81604001516001600160a01b0316336001600160a01b031614610c425760405162461bcd60e51b81526004016105c890612b9a565b600a546040516317b6b0d360e31b81526001600160a01b039091169063bdb58698906108c69086908690339060040161331a565b6000610928826040518060600160405280602981526020016133f8602991396002919063ffffffff6118fd16565b60098054604080516020601f60026000196101006001881615020190951694909404938401819004810282018101909252828152606093909290918301828280156105965780601f1061056b57610100808354040283529160200191610596565b60006001600160a01b038216610d2d5760405162461bcd60e51b81526004016105c890612dd4565b6001600160a01b03821660009081526001602052604090206109289061162b565b3382610d5a8282611636565b610d765760405162461bcd60e51b81526004016105c890612ff0565b6000848152600f60205260409020548490610da35760405162461bcd60e51b81526004016105c890612c98565b83805160001415610dc65760405162461bcd60e51b81526004016105c89061324e565b610dd08686611890565b857fe3df41127db820c79e5b8d541a63e40e3e97b9af96f7a50bded13091b70df9ae338760405161082692919061298f565b84610e0c816115a2565b610e285760405162461bcd60e51b81526004016105c890612d2b565b841580610e355750428510155b610e515760405162461bcd60e51b81526004016105c890612e1e565b6001600160a01b038716610e775760405162461bcd60e51b81526004016105c890612b2c565b6000610eb9604051806040016040528060058152602001644d6564696160d81b815250604051806040016040528060018152602001603160f81b815250611914565b90506000816012548a8a60136000610ed08e610c76565b6001600160a01b03168152602080820192909252604090810160009081208f825283528190208054600181019091559051610f10959493928e91016129c7565b60405160208183030381529060405280519060200120604051602001610f379291906128b9565b604051602081830303815290604052805190602001209050600060018288888860405160008152602001604052604051610f749493929190612a1f565b6020604051602081039080840390855afa158015610f96573d6000803e3d6000fd5b5050604051601f1901519150506001600160a01b03811615801590610fd45750806001600160a01b0316610fc98a610c76565b6001600160a01b0316145b610ff05760405162461bcd60e51b81526004016105c890613217565b610ffa8a8a6115b9565b50505050505050505050565b33826110128282611636565b61102e5760405162461bcd60e51b81526004016105c890612ff0565b600a5460405163217df0d560e21b81526001600160a01b03909116906385f7c3549061106090879087906004016132ab565b600060405180830381600087803b15801561107a57600080fd5b505af115801561108e573d6000803e3d6000fd5b5050505050505050565b60078054604080516020601f60026000196101006001881615020190951694909404938401819004810282018101909252828152606093909290918301828280156105965780601f1061056b57610100808354040283529160200191610596565b600b602052600090815260409020546001600160a01b031681565b61111c6115b5565b6001600160a01b0316826001600160a01b0316141561114d5760405162461bcd60e51b81526004016105c890612c61565b806005600061115a6115b5565b6001600160a01b03908116825260208083019390935260409182016000908120918716808252919093529120805460ff19169215159290921790915561119e6115b5565b6001600160a01b03167f17307eab39ab6107e8899845ad3d59bd9653f200f220920489ca2b5937696c31836040516111d691906129b3565b60405180910390a35050565b6111eb816105a1565b6001600160a01b0316336001600160a01b03161461121b5760405162461bcd60e51b81526004016105c890612bdb565b6112266000826115b9565b50565b80806112356014611627565b10156112535760405162461bcd60e51b81526004016105c890612a92565b600a5460405163776a083560e01b81526001600160a01b039091169063776a0835906112859085903390600401613294565b600060405180830381600087803b15801561129f57600080fd5b505af11580156112b3573d6000803e3d6000fd5b505050505050565b6112cc6112c66115b5565b83611636565b6112e85760405162461bcd60e51b81526004016105c890613148565b6112f484848484611972565b50505050565b33826113068282611636565b6113225760405162461bcd60e51b81526004016105c890612ff0565b600a5460405163ba33939960e01b81526001600160a01b039091169063ba339399906110609087908790600401613306565b606081806113626014611627565b10156113805760405162461bcd60e51b81526004016105c890612a92565b60008381526008602090815260409182902080548351601f60026000196101006001861615020190931692909204918201849004840281018401909452808452606093928301828280156114155780601f106113ea57610100808354040283529160200191611415565b820191906000526020600020905b8154815290600101906020018083116113f857829003601f168201915b50506009549394505050506002600019610100600184161502019091160461143e57915061075b565b80511561147057600981604051602001611459929190612838565b60405160208183030381529060405292505061075b565b600961147b856119a5565b60405160200161148c929190612838565b60405160208183030381529060405292505050919050565b600c602052600090815260409020546001600160a01b031681565b6001600160a01b03918216600090815260056020908152604080832093909416825291909152205460ff1690565b600a546001600160a01b031633146115175760405162461bcd60e51b81526004016105c890612eec565b61152082610c76565b6000838152600b6020526040902080546001600160a01b0319166001600160a01b039290921691909117905561156f61155883610c76565b828460405180602001604052806000815250611972565b5050565b601360209081526000928352604080842090915290825290205481565b600e6020526000908152604090205481565b600061092860028363ffffffff611a8016565b3390565b600081815260046020526040902080546001600160a01b0319166001600160a01b03841690811790915581906115ee82610c76565b6001600160a01b03167f8c5be1e5ebec7d5bd14f71427d1e84f3dd0314c0f7b2291e5b200ac8c7c3b92560405160405180910390a45050565b5490565b600061092882611627565b6000611641826115a2565b61165d5760405162461bcd60e51b81526004016105c890612d2b565b600061166883610c76565b9050806001600160a01b0316846001600160a01b031614806116a35750836001600160a01b0316611698846105a1565b6001600160a01b0316145b806116b357506116b381856114bf565b949350505050565b6116c4826115a2565b6116e05760405162461bcd60e51b81526004016105c890612fa4565b600082815260086020908152604090912082516106809284019061222e565b61170a838383611a8c565b600a546040516328220f3560e01b81526001600160a01b03909116906328220f35906108c69084906004016129be565b60006109258383611bac565b600061175182610c76565b905061175f81600084610680565b61176a6000836115b9565b6000828152600b6020908152604080832080546001600160a01b03191690556001600160a01b0384168352600190915290206117ac908363ffffffff611bf116565b506117be60028363ffffffff611bfd16565b5060405182906000906001600160a01b038416907fddf252ad1be2c89b69c2b068fc378daa952ba7f163c4a11628f55a4df523b3ef908390a45050565b61156f828260405180602001604052806000815250611c09565b80546001019055565b81611828816115a2565b6118445760405162461bcd60e51b81526004016105c890612d2b565b506000918252600e602052604090912055565b81611861816115a2565b61187d5760405162461bcd60e51b81526004016105c890612d2b565b506000918252600f602052604090912055565b8161189a816115a2565b6118b65760405162461bcd60e51b81526004016105c890612d2b565b600083815260106020908152604090912083516112f49285019061222e565b60006109258383611c3c565b60008080806118f08686611c86565b9097909650945050505050565b600061190a848484611ce2565b90505b9392505050565b6040516000904690611925906128d4565b60405180910390208480519060200120848051906020012083306040516020016119539594939291906129f3565b6040516020818303038152906040528051906020012091505092915050565b61197d8484846116ff565b61198984848484611d41565b6112f45760405162461bcd60e51b81526004016105c890612ada565b6060816119ca57506040805180820190915260018152600360fc1b6020820152610505565b8160005b81156119e257600101600a820491506119ce565b60608167ffffffffffffffff811180156119fb57600080fd5b506040519080825280601f01601f191660200182016040528015611a26576020820181803683370190505b50859350905060001982015b8315611a7757600a840660300160f81b82828060019003935081518110611a5557fe5b60200101906001600160f81b031916908160001a905350600a84049350611a32565b50949350505050565b60006109258383611e26565b826001600160a01b0316611a9f82610c76565b6001600160a01b031614611ac55760405162461bcd60e51b81526004016105c890613027565b6001600160a01b038216611aeb5760405162461bcd60e51b81526004016105c890612c1d565b611af6838383610680565b611b016000826115b9565b6001600160a01b0383166000908152600160205260409020611b29908263ffffffff611bf116565b506001600160a01b0382166000908152600160205260409020611b52908263ffffffff6118d516565b50611b656002828463ffffffff611e3e16565b5080826001600160a01b0316846001600160a01b03167fddf252ad1be2c89b69c2b068fc378daa952ba7f163c4a11628f55a4df523b3ef60405160405180910390a4505050565b81546000908210611bcf5760405162461bcd60e51b81526004016105c890612a50565b826000018281548110611bde57fe5b9060005260206000200154905092915050565b60006109258383611e54565b60006109258383611f1a565b611c138383611fee565b611c206000848484611d41565b6106805760405162461bcd60e51b81526004016105c890612ada565b6000611c488383611e26565b611c7e57508154600181810184556000848152602080822090930184905584548482528286019093526040902091909155610928565b506000610928565b815460009081908310611cab5760405162461bcd60e51b81526004016105c890612eaa565b6000846000018481548110611cbc57fe5b906000526020600020906002020190508060000154816001015492509250509250929050565b60008281526001840160205260408120548281611d125760405162461bcd60e51b81526004016105c89190612a3d565b50846000016001820381548110611d2557fe5b9060005260206000209060020201600101549150509392505050565b6000611d55846001600160a01b03166120be565b611d61575060016116b3565b6060611def630a85bd0160e11b611d766115b5565b888787604051602401611d8c9493929190612952565b604051602081830303815290604052906001600160e01b0319166020820180516001600160e01b0383818316178352505050506040518060600160405280603281526020016133c6603291396001600160a01b038816919063ffffffff6120c416565b9050600081806020019051810190611e07919061261d565b6001600160e01b031916630a85bd0160e11b1492505050949350505050565b60009081526001919091016020526040902054151590565b600061190a84846001600160a01b0385166120d3565b60008181526001830160205260408120548015611f105783546000198083019190810190600090879083908110611e8757fe5b9060005260206000200154905080876000018481548110611ea457fe5b600091825260208083209091019290925582815260018981019092526040902090840190558654879080611ed457fe5b60019003818190600052602060002001600090559055866001016000878152602001908152602001600020600090556001945050505050610928565b6000915050610928565b60008181526001830160205260408120548015611f105783546000198083019190810190600090879083908110611f4d57fe5b9060005260206000209060020201905080876000018481548110611f6d57fe5b600091825260208083208454600290930201918255600193840154918401919091558354825289830190526040902090840190558654879080611fac57fe5b60008281526020808220600260001990940193840201828155600190810183905592909355888152898201909252604082209190915594506109289350505050565b6001600160a01b0382166120145760405162461bcd60e51b81526004016105c890612f23565b61201d816115a2565b1561203a5760405162461bcd60e51b81526004016105c890612b63565b61204660008383610680565b6001600160a01b038216600090815260016020526040902061206e908263ffffffff6118d516565b506120816002828463ffffffff611e3e16565b5060405181906001600160a01b038416906000907fddf252ad1be2c89b69c2b068fc378daa952ba7f163c4a11628f55a4df523b3ef908290a45050565b3b151590565b606061190a848460008561216a565b60008281526001840160205260408120548061213857505060408051808201825283815260208082018481528654600181810189556000898152848120955160029093029095019182559151908201558654868452818801909252929091205561190d565b8285600001600183038154811061214b57fe5b906000526020600020906002020160010181905550600091505061190d565b6060612175856120be565b6121915760405162461bcd60e51b81526004016105c8906131e0565b60006060866001600160a01b031685876040516121ae919061281c565b60006040518083038185875af1925050503d80600081146121eb576040519150601f19603f3d011682016040523d82523d6000602084013e6121f0565b606091505b509150915081156122045791506116b39050565b8051156122145780518082602001fd5b8360405162461bcd60e51b81526004016105c89190612a3d565b828054600181600116156101000203166002900490600052602060002090601f016020900481019282601f1061226f57805160ff191683800117855561229c565b8280016001018555821561229c579182015b8281111561229c578251825591602001919060010190612281565b506122a89291506122ac565b5090565b61059e91905b808211156122a857600081556001016122b2565b80356001600160a01b038116811461092857600080fd5b600082601f8301126122ed578081fd5b813567ffffffffffffffff811115612303578182fd5b612316601f8201601f1916602001613347565b915080825283602082850101111561232d57600080fd5b8060208401602084013760009082016020015292915050565b600060208284031215612357578081fd5b6123616020613347565b9135825250919050565b60006020828403121561237c578081fd5b61092583836122c6565b60008060408385031215612398578081fd5b6123a284846122c6565b91506123b184602085016122c6565b90509250929050565b6000806000606084860312156123ce578081fd5b83356123d98161339a565b925060208401356123e98161339a565b929592945050506040919091013590565b6000806000806080858703121561240f578081fd5b61241986866122c6565b935061242886602087016122c6565b925060408501359150606085013567ffffffffffffffff81111561244a578182fd5b612456878288016122dd565b91505092959194509250565b60008060408385031215612474578182fd5b61247e84846122c6565b915060208301358015158114612492578182fd5b809150509250929050565b6000806000806000808688036101008112156124b7578283fd5b6124c189896122c6565b9650602088013567ffffffffffffffff808211156124dd578485fd5b6124e98b838c016122dd565b975060408a01359150808211156124fe578485fd5b5061250b8a828b016122dd565b955050606088810135945060808901359350609f198201121561252c578182fd5b506125376060613347565b6125448960a08a01612346565b81526125538960c08a01612346565b60208201526125658960e08a01612346565b6040820152809150509295509295509295565b6000806040838503121561258a578182fd5b61259484846122c6565b946020939093013593505050565b60008060008060008060c087890312156125ba578384fd5b6125c488886122c6565b95506020870135945060408701359350606087013560ff811681146125e7578283fd5b9598949750929560808101359460a0909101359350915050565b600060208284031215612612578081fd5b813561190d816133af565b60006020828403121561262e578081fd5b815161190d816133af565b60006020828403121561264a578081fd5b5035919050565b60008060408385031215612663578182fd5b823591506123b184602085016122c6565b60008060408385031215612686578182fd5b82359150602083013567ffffffffffffffff8111156126a3578182fd5b6126af858286016122dd565b9150509250929050565b60008082840360808112156126cc578283fd5b833592506060601f19820112156126e1578182fd5b506126ec6060613347565b6020840135815261270085604086016122c6565b60208201526127128560608601612346565b6040820152809150509250929050565b60008082840360c0811215612735578283fd5b8335925060a0601f198201121561274a578182fd5b5061275560a0613347565b6020840135815261276985604086016122c6565b602082015261277b85606086016122c6565b604082015261278d85608086016122c6565b606082015261279f8560a08601612346565b6080820152809150509250929050565b600081518084526127c781602086016020860161336e565b601f01601f19169290920160200192915050565b805182526020808201516001600160a01b03908116918401919091526040808301518216908401526060808301519091169083015260809081015151910152565b6000825161282e81846020870161336e565b9190910192915050565b6000808454600180821660008114612857576001811461286e5761289d565b60ff198316865260028304607f168601935061289d565b600283048886526020808720875b838110156128955781548a82015290850190820161287c565b505050860193505b50505083516128b081836020880161336e565b01949350505050565b61190160f01b81526002810192909252602282015260420190565b7f454950373132446f6d61696e28737472696e67206e616d652c737472696e672081527f76657273696f6e2c75696e7432353620636861696e49642c6164647265737320602082015271766572696679696e67436f6e74726163742960701b604082015260520190565b6001600160a01b0391909116815260200190565b6001600160a01b0385811682528416602082015260408101839052608060608201819052600090612985908301846127af565b9695505050505050565b6001600160a01b038316815260406020820181905260009061190a908301846127af565b901515815260200190565b90815260200190565b9485526001600160a01b0393909316602085015260408401919091526060830152608082015260a00190565b9485526020850193909352604084019190915260608301526001600160a01b0316608082015260a00190565b93845260ff9290921660208401526040830152606082015260800190565b60006020825261092560208301846127af565b60208082526022908201527f456e756d657261626c655365743a20696e646578206f7574206f6620626f756e604082015261647360f01b606082015260800190565b60208082526028908201527f4d656469613a20746f6b656e2077697468207468617420696420646f6573206e6040820152671bdd08195e1a5cdd60c21b606082015260800190565b60208082526032908201527f4552433732313a207472616e7366657220746f206e6f6e20455243373231526560408201527131b2b4bb32b91034b6b83632b6b2b73a32b960711b606082015260800190565b6020808252601c908201527f4d656469613a207370656e6465722063616e6e6f742062652030783000000000604082015260600190565b6020808252601c908201527f4552433732313a20746f6b656e20616c7265616479206d696e74656400000000604082015260600190565b60208082526021908201527f4d61726b65743a20426964646572206d757374206265206d73672073656e64656040820152603960f91b606082015260800190565b60208082526022908201527f4d656469613a2063616c6c6572206e6f7420617070726f766564206164647265604082015261737360f01b606082015260800190565b60208082526024908201527f4552433732313a207472616e7366657220746f20746865207a65726f206164646040820152637265737360e01b606082015260800190565b60208082526019908201527f4552433732313a20617070726f766520746f2063616c6c657200000000000000604082015260600190565b6020808252602f908201527f4d656469613a20746f6b656e20646f6573206e6f74206861766520686173682060408201526e6f6620697473206d6574616461746160881b606082015260800190565b60208082526024908201527f4d656469613a206f776e6572206973206e6f742063726561746f72206f66207460408201526337b5b2b760e11b606082015260800190565b6020808252602c908201527f4552433732313a206f70657261746f7220717565727920666f72206e6f6e657860408201526b34b9ba32b73a103a37b5b2b760a11b606082015260800190565b60208082526038908201527f4552433732313a20617070726f76652063616c6c6572206973206e6f74206f7760408201527f6e6572206e6f7220617070726f76656420666f7220616c6c0000000000000000606082015260800190565b6020808252602a908201527f4552433732313a2062616c616e636520717565727920666f7220746865207a65604082015269726f206164647265737360b01b606082015260800190565b6020808252601590820152741359591a584e8814195c9b5a5d08195e1c1a5c9959605a1b604082015260600190565b6020808252603e908201527f4d656469613a206120746f6b656e2068617320616c7265616479206265656e2060408201527f637265617465642077697468207468697320636f6e74656e7420686173680000606082015260800190565b60208082526022908201527f456e756d657261626c654d61703a20696e646578206f7574206f6620626f756e604082015261647360f01b606082015260800190565b6020808252601b908201527f4d656469613a206f6e6c79206d61726b657420636f6e74726163740000000000604082015260600190565b6020808252818101527f4552433732313a206d696e7420746f20746865207a65726f2061646472657373604082015260600190565b6020808252602c908201527f4552433732313a20617070726f76656420717565727920666f72206e6f6e657860408201526b34b9ba32b73a103a37b5b2b760a11b606082015260800190565b6020808252602c908201527f4552433732314d657461646174613a2055524920736574206f66206e6f6e657860408201526b34b9ba32b73a103a37b5b2b760a11b606082015260800190565b6020808252601d908201527f4d656469613a204f6e6c7920617070726f766564206f72206f776e6572000000604082015260600190565b60208082526029908201527f4552433732313a207472616e73666572206f6620746f6b656e2074686174206960408201526839903737ba1037bbb760b91b606082015260800190565b60208082526025908201527f4d656469613a20636f6e74656e742068617368206d757374206265206e6f6e2d604082015264656d70747960d81b606082015260800190565b60208082526032908201527f4d656469613a20746f6b656e20646f6573206e6f7420686176652068617368206040820152711bd98818dc99585d19590818dbdb9d195b9d60721b606082015260800190565b60208082526021908201527f4552433732313a20617070726f76616c20746f2063757272656e74206f776e656040820152603960f91b606082015260800190565b60208082526031908201527f4552433732313a207472616e736665722063616c6c6572206973206e6f74206f6040820152701ddb995c881b9bdc88185c1c1c9bdd9959607a1b606082015260800190565b60208082526027908201527f4d656469613a206d65746164617461206861736820206d757374206265206e6f6040820152666e2d656d70747960c81b606082015260800190565b6020808252601d908201527f416464726573733a2063616c6c20746f206e6f6e2d636f6e7472616374000000604082015260600190565b60208082526018908201527f4d656469613a205369676e617475726520696e76616c69640000000000000000604082015260600190565b60208082526026908201527f4d656469613a2073706563696669656420757269206d757374206265206e6f6e6040820152652d656d70747960d01b606082015260800190565b9182526001600160a01b0316602082015260400190565b91825280516020808401919091528101516001600160a01b0316604080840191909152015151606082015260800190565b91825280515160208084019190915281015151604080840191909152015151606082015260800190565b82815260c0810161190d60208301846127db565b83815260e0810161332e60208301856127db565b6001600160a01b039290921660c0919091015292915050565b60405181810167ffffffffffffffff8111828210171561336657600080fd5b604052919050565b60005b83811015613389578181015183820152602001613371565b838111156112f45750506000910152565b6001600160a01b038116811461122657600080fd5b6001600160e01b03198116811461122657600080fdfe4552433732313a207472616e7366657220746f206e6f6e20455243373231526563656976657220696d706c656d656e7465724552433732313a206f776e657220717565727920666f72206e6f6e6578697374656e7420746f6b656ea264697066735822122020eaffe56838f36085304cd5497e6ee963a510e205063c4d7c8b2ac86852bf6064736f6c63430006080033",
  "linkReferences": {},
  "deployedLinkReferences": {}
}