{
  "_format": "hh-sol-artifact-1",
  "contractName": "Media",
  "sourceName": "contracts/Media.sol",
  "abi": [
    {
      "inputs": [
        {
          "internalType": "address",
          "name": "marketContractAddr",
          "type": "address"
        }
      ],
      "stateMutability": "nonpayable",
      "type": "constructor"
    },
    {
      "anonymous": false,
      "inputs": [
        {
          "indexed": true,
          "internalType": "address",
          "name": "owner",
          "type": "address"
        },
        {
          "indexed": true,
          "internalType": "address",
          "name": "approved",
          "type": "address"
        },
        {
          "indexed": true,
          "internalType": "uint256",
          "name": "tokenId",
          "type": "uint256"
        }
      ],
      "name": "Approval",
      "type": "event"
    },
    {
      "anonymous": false,
      "inputs": [
        {
          "indexed": true,
          "internalType": "address",
          "name": "owner",
          "type": "address"
        },
        {
          "indexed": true,
          "internalType": "address",
          "name": "operator",
          "type": "address"
        },
        {
          "indexed": false,
          "internalType": "bool",
          "name": "approved",
          "type": "bool"
        }
      ],
      "name": "ApprovalForAll",
      "type": "event"
    },
    {
      "anonymous": false,
      "inputs": [
        {
          "indexed": true,
          "internalType": "uint256",
          "name": "_tokenId",
          "type": "uint256"
        },
        {
          "indexed": false,
          "internalType": "address",
          "name": "owner",
          "type": "address"
        },
        {
          "indexed": false,
          "internalType": "string",
          "name": "_uri",
          "type": "string"
        }
      ],
      "name": "TokenMetadataURIUpdated",
      "type": "event"
    },
    {
      "anonymous": false,
      "inputs": [
        {
          "indexed": true,
          "internalType": "uint256",
          "name": "_tokenId",
          "type": "uint256"
        },
        {
          "indexed": false,
          "internalType": "address",
          "name": "owner",
          "type": "address"
        },
        {
          "indexed": false,
          "internalType": "string",
          "name": "_uri",
          "type": "string"
        }
      ],
      "name": "TokenURIUpdated",
      "type": "event"
    },
    {
      "anonymous": false,
      "inputs": [
        {
          "indexed": true,
          "internalType": "address",
          "name": "from",
          "type": "address"
        },
        {
          "indexed": true,
          "internalType": "address",
          "name": "to",
          "type": "address"
        },
        {
          "indexed": true,
          "internalType": "uint256",
          "name": "tokenId",
          "type": "uint256"
        }
      ],
      "name": "Transfer",
      "type": "event"
    },
    {
      "inputs": [
        {
          "internalType": "uint256",
          "name": "tokenId",
          "type": "uint256"
        },
        {
          "components": [
            {
              "internalType": "uint256",
              "name": "amount",
              "type": "uint256"
            },
            {
              "internalType": "address",
              "name": "currency",
              "type": "address"
            },
            {
              "internalType": "address",
              "name": "bidder",
              "type": "address"
            },
            {
              "internalType": "address",
              "name": "recipient",
              "type": "address"
            },
            {
              "components": [
                {
                  "internalType": "uint256",
                  "name": "value",
                  "type": "uint256"
                }
              ],
              "internalType": "struct Decimal.D256",
              "name": "sellOnShare",
              "type": "tuple"
            }
          ],
          "internalType": "struct Market.Bid",
          "name": "bid",
          "type": "tuple"
        }
      ],
      "name": "acceptBid",
      "outputs": [],
      "stateMutability": "nonpayable",
      "type": "function"
    },
    {
      "inputs": [
        {
          "internalType": "address",
          "name": "to",
          "type": "address"
        },
        {
          "internalType": "uint256",
          "name": "tokenId",
          "type": "uint256"
        }
      ],
      "name": "approve",
      "outputs": [],
      "stateMutability": "nonpayable",
      "type": "function"
    },
    {
      "inputs": [
        {
          "internalType": "uint256",
          "name": "tokenId",
          "type": "uint256"
        },
        {
          "internalType": "address",
          "name": "recipient",
          "type": "address"
        }
      ],
      "name": "auctionTransfer",
      "outputs": [],
      "stateMutability": "nonpayable",
      "type": "function"
    },
    {
      "inputs": [
        {
          "internalType": "address",
          "name": "owner",
          "type": "address"
        }
      ],
      "name": "balanceOf",
      "outputs": [
        {
          "internalType": "uint256",
          "name": "",
          "type": "uint256"
        }
      ],
      "stateMutability": "view",
      "type": "function"
    },
    {
      "inputs": [],
      "name": "baseURI",
      "outputs": [
        {
          "internalType": "string",
          "name": "",
          "type": "string"
        }
      ],
      "stateMutability": "view",
      "type": "function"
    },
    {
      "inputs": [
        {
          "internalType": "uint256",
          "name": "tokenId",
          "type": "uint256"
        }
      ],
      "name": "burn",
      "outputs": [],
      "stateMutability": "nonpayable",
      "type": "function"
    },
    {
      "inputs": [
        {
          "internalType": "uint256",
          "name": "tokenId",
          "type": "uint256"
        }
      ],
      "name": "getApproved",
      "outputs": [
        {
          "internalType": "address",
          "name": "",
          "type": "address"
        }
      ],
      "stateMutability": "view",
      "type": "function"
    },
    {
      "inputs": [
        {
          "internalType": "address",
          "name": "owner",
          "type": "address"
        },
        {
          "internalType": "address",
          "name": "operator",
          "type": "address"
        }
      ],
      "name": "isApprovedForAll",
      "outputs": [
        {
          "internalType": "bool",
          "name": "",
          "type": "bool"
        }
      ],
      "stateMutability": "view",
      "type": "function"
    },
    {
      "inputs": [],
      "name": "marketContract",
      "outputs": [
        {
          "internalType": "address",
          "name": "",
          "type": "address"
        }
      ],
      "stateMutability": "view",
      "type": "function"
    },
    {
      "inputs": [
        {
          "components": [
            {
              "internalType": "string",
              "name": "tokenURI",
              "type": "string"
            },
            {
              "internalType": "string",
              "name": "metadataURI",
              "type": "string"
            },
            {
              "internalType": "bytes32",
              "name": "contentHash",
              "type": "bytes32"
            },
            {
              "internalType": "bytes32",
              "name": "metadataHash",
              "type": "bytes32"
            }
          ],
          "internalType": "struct Media.MediaData",
          "name": "data",
          "type": "tuple"
        },
        {
          "components": [
            {
              "components": [
                {
                  "internalType": "uint256",
                  "name": "value",
                  "type": "uint256"
                }
              ],
              "internalType": "struct Decimal.D256",
              "name": "prevOwner",
              "type": "tuple"
            },
            {
              "components": [
                {
                  "internalType": "uint256",
                  "name": "value",
                  "type": "uint256"
                }
              ],
              "internalType": "struct Decimal.D256",
              "name": "creator",
              "type": "tuple"
            },
            {
              "components": [
                {
                  "internalType": "uint256",
                  "name": "value",
                  "type": "uint256"
                }
              ],
              "internalType": "struct Decimal.D256",
              "name": "owner",
              "type": "tuple"
            }
          ],
          "internalType": "struct Market.BidShares",
          "name": "bidShares",
          "type": "tuple"
        }
      ],
      "name": "mint",
      "outputs": [],
      "stateMutability": "nonpayable",
      "type": "function"
    },
    {
      "inputs": [
        {
          "internalType": "address",
          "name": "creator",
          "type": "address"
        },
        {
          "components": [
            {
              "internalType": "string",
              "name": "tokenURI",
              "type": "string"
            },
            {
              "internalType": "string",
              "name": "metadataURI",
              "type": "string"
            },
            {
              "internalType": "bytes32",
              "name": "contentHash",
              "type": "bytes32"
            },
            {
              "internalType": "bytes32",
              "name": "metadataHash",
              "type": "bytes32"
            }
          ],
          "internalType": "struct Media.MediaData",
          "name": "data",
          "type": "tuple"
        },
        {
          "components": [
            {
              "components": [
                {
                  "internalType": "uint256",
                  "name": "value",
                  "type": "uint256"
                }
              ],
              "internalType": "struct Decimal.D256",
              "name": "prevOwner",
              "type": "tuple"
            },
            {
              "components": [
                {
                  "internalType": "uint256",
                  "name": "value",
                  "type": "uint256"
                }
              ],
              "internalType": "struct Decimal.D256",
              "name": "creator",
              "type": "tuple"
            },
            {
              "components": [
                {
                  "internalType": "uint256",
                  "name": "value",
                  "type": "uint256"
                }
              ],
              "internalType": "struct Decimal.D256",
              "name": "owner",
              "type": "tuple"
            }
          ],
          "internalType": "struct Market.BidShares",
          "name": "bidShares",
          "type": "tuple"
        },
        {
          "components": [
            {
              "internalType": "uint256",
              "name": "deadline",
              "type": "uint256"
            },
            {
              "internalType": "uint8",
              "name": "v",
              "type": "uint8"
            },
            {
              "internalType": "bytes32",
              "name": "r",
              "type": "bytes32"
            },
            {
              "internalType": "bytes32",
              "name": "s",
              "type": "bytes32"
            }
          ],
          "internalType": "struct Media.EIP712Signature",
          "name": "sig",
          "type": "tuple"
        }
      ],
      "name": "mintWithSig",
      "outputs": [],
      "stateMutability": "nonpayable",
      "type": "function"
    },
    {
      "inputs": [
        {
          "internalType": "address",
          "name": "",
          "type": "address"
        }
      ],
      "name": "mintWithSigNonces",
      "outputs": [
        {
          "internalType": "uint256",
          "name": "",
          "type": "uint256"
        }
      ],
      "stateMutability": "view",
      "type": "function"
    },
    {
      "inputs": [],
      "name": "name",
      "outputs": [
        {
          "internalType": "string",
          "name": "",
          "type": "string"
        }
      ],
      "stateMutability": "view",
      "type": "function"
    },
    {
      "inputs": [
        {
          "internalType": "uint256",
          "name": "tokenId",
          "type": "uint256"
        }
      ],
      "name": "ownerOf",
      "outputs": [
        {
          "internalType": "address",
          "name": "",
          "type": "address"
        }
      ],
      "stateMutability": "view",
      "type": "function"
    },
    {
      "inputs": [
        {
          "internalType": "address",
          "name": "spender",
          "type": "address"
        },
        {
          "internalType": "uint256",
          "name": "tokenId",
          "type": "uint256"
        },
        {
          "components": [
            {
              "internalType": "uint256",
              "name": "deadline",
              "type": "uint256"
            },
            {
              "internalType": "uint8",
              "name": "v",
              "type": "uint8"
            },
            {
              "internalType": "bytes32",
              "name": "r",
              "type": "bytes32"
            },
            {
              "internalType": "bytes32",
              "name": "s",
              "type": "bytes32"
            }
          ],
          "internalType": "struct Media.EIP712Signature",
          "name": "sig",
          "type": "tuple"
        }
      ],
      "name": "permit",
      "outputs": [],
      "stateMutability": "nonpayable",
      "type": "function"
    },
    {
      "inputs": [
        {
          "internalType": "address",
          "name": "",
          "type": "address"
        },
        {
          "internalType": "uint256",
          "name": "",
          "type": "uint256"
        }
      ],
      "name": "permitNonces",
      "outputs": [
        {
          "internalType": "uint256",
          "name": "",
          "type": "uint256"
        }
      ],
      "stateMutability": "view",
      "type": "function"
    },
    {
      "inputs": [
        {
          "internalType": "uint256",
          "name": "",
          "type": "uint256"
        }
      ],
      "name": "previousTokenOwners",
      "outputs": [
        {
          "internalType": "address",
          "name": "",
          "type": "address"
        }
      ],
      "stateMutability": "view",
      "type": "function"
    },
    {
      "inputs": [
        {
          "internalType": "uint256",
          "name": "tokenId",
          "type": "uint256"
        }
      ],
      "name": "removeAsk",
      "outputs": [],
      "stateMutability": "nonpayable",
      "type": "function"
    },
    {
      "inputs": [
        {
          "internalType": "uint256",
          "name": "tokenId",
          "type": "uint256"
        }
      ],
      "name": "removeBid",
      "outputs": [],
      "stateMutability": "nonpayable",
      "type": "function"
    },
    {
      "inputs": [
        {
          "internalType": "uint256",
          "name": "tokenId",
          "type": "uint256"
        }
      ],
      "name": "revokeApproval",
      "outputs": [],
      "stateMutability": "nonpayable",
      "type": "function"
    },
    {
      "inputs": [
        {
          "internalType": "address",
          "name": "from",
          "type": "address"
        },
        {
          "internalType": "address",
          "name": "to",
          "type": "address"
        },
        {
          "internalType": "uint256",
          "name": "tokenId",
          "type": "uint256"
        }
      ],
      "name": "safeTransferFrom",
      "outputs": [],
      "stateMutability": "nonpayable",
      "type": "function"
    },
    {
      "inputs": [
        {
          "internalType": "address",
          "name": "from",
          "type": "address"
        },
        {
          "internalType": "address",
          "name": "to",
          "type": "address"
        },
        {
          "internalType": "uint256",
          "name": "tokenId",
          "type": "uint256"
        },
        {
          "internalType": "bytes",
          "name": "_data",
          "type": "bytes"
        }
      ],
      "name": "safeTransferFrom",
      "outputs": [],
      "stateMutability": "nonpayable",
      "type": "function"
    },
    {
      "inputs": [
        {
          "internalType": "address",
          "name": "operator",
          "type": "address"
        },
        {
          "internalType": "bool",
          "name": "approved",
          "type": "bool"
        }
      ],
      "name": "setApprovalForAll",
      "outputs": [],
      "stateMutability": "nonpayable",
      "type": "function"
    },
    {
      "inputs": [
        {
          "internalType": "uint256",
          "name": "tokenId",
          "type": "uint256"
        },
        {
          "components": [
            {
              "internalType": "uint256",
              "name": "amount",
              "type": "uint256"
            },
            {
              "internalType": "address",
              "name": "currency",
              "type": "address"
            },
            {
              "components": [
                {
                  "internalType": "uint256",
                  "name": "value",
                  "type": "uint256"
                }
              ],
              "internalType": "struct Decimal.D256",
              "name": "sellOnShare",
              "type": "tuple"
            }
          ],
          "internalType": "struct Market.Ask",
          "name": "ask",
          "type": "tuple"
        }
      ],
      "name": "setAsk",
      "outputs": [],
      "stateMutability": "nonpayable",
      "type": "function"
    },
    {
      "inputs": [
        {
          "internalType": "uint256",
          "name": "tokenId",
          "type": "uint256"
        },
        {
          "components": [
            {
              "internalType": "uint256",
              "name": "amount",
              "type": "uint256"
            },
            {
              "internalType": "address",
              "name": "currency",
              "type": "address"
            },
            {
              "internalType": "address",
              "name": "bidder",
              "type": "address"
            },
            {
              "internalType": "address",
              "name": "recipient",
              "type": "address"
            },
            {
              "components": [
                {
                  "internalType": "uint256",
                  "name": "value",
                  "type": "uint256"
                }
              ],
              "internalType": "struct Decimal.D256",
              "name": "sellOnShare",
              "type": "tuple"
            }
          ],
          "internalType": "struct Market.Bid",
          "name": "bid",
          "type": "tuple"
        }
      ],
      "name": "setBid",
      "outputs": [],
      "stateMutability": "nonpayable",
      "type": "function"
    },
    {
      "inputs": [
        {
          "internalType": "bytes4",
          "name": "interfaceId",
          "type": "bytes4"
        }
      ],
      "name": "supportsInterface",
      "outputs": [
        {
          "internalType": "bool",
          "name": "",
          "type": "bool"
        }
      ],
      "stateMutability": "view",
      "type": "function"
    },
    {
      "inputs": [],
      "name": "symbol",
      "outputs": [
        {
          "internalType": "string",
          "name": "",
          "type": "string"
        }
      ],
      "stateMutability": "view",
      "type": "function"
    },
    {
      "inputs": [
        {
          "internalType": "uint256",
          "name": "index",
          "type": "uint256"
        }
      ],
      "name": "tokenByIndex",
      "outputs": [
        {
          "internalType": "uint256",
          "name": "",
          "type": "uint256"
        }
      ],
      "stateMutability": "view",
      "type": "function"
    },
    {
      "inputs": [
        {
          "internalType": "uint256",
          "name": "",
          "type": "uint256"
        }
      ],
      "name": "tokenContentHashes",
      "outputs": [
        {
          "internalType": "bytes32",
          "name": "",
          "type": "bytes32"
        }
      ],
      "stateMutability": "view",
      "type": "function"
    },
    {
      "inputs": [
        {
          "internalType": "uint256",
          "name": "",
          "type": "uint256"
        }
      ],
      "name": "tokenCreators",
      "outputs": [
        {
          "internalType": "address",
          "name": "",
          "type": "address"
        }
      ],
      "stateMutability": "view",
      "type": "function"
    },
    {
      "inputs": [
        {
          "internalType": "uint256",
          "name": "",
          "type": "uint256"
        }
      ],
      "name": "tokenMetadataHashes",
      "outputs": [
        {
          "internalType": "bytes32",
          "name": "",
          "type": "bytes32"
        }
      ],
      "stateMutability": "view",
      "type": "function"
    },
    {
      "inputs": [
        {
          "internalType": "uint256",
          "name": "tokenId",
          "type": "uint256"
        }
      ],
      "name": "tokenMetadataURI",
      "outputs": [
        {
          "internalType": "string",
          "name": "",
          "type": "string"
        }
      ],
      "stateMutability": "view",
      "type": "function"
    },
    {
      "inputs": [
        {
          "internalType": "address",
          "name": "owner",
          "type": "address"
        },
        {
          "internalType": "uint256",
          "name": "index",
          "type": "uint256"
        }
      ],
      "name": "tokenOfOwnerByIndex",
      "outputs": [
        {
          "internalType": "uint256",
          "name": "",
          "type": "uint256"
        }
      ],
      "stateMutability": "view",
      "type": "function"
    },
    {
      "inputs": [
        {
          "internalType": "uint256",
          "name": "tokenId",
          "type": "uint256"
        }
      ],
      "name": "tokenURI",
      "outputs": [
        {
          "internalType": "string",
          "name": "",
          "type": "string"
        }
      ],
      "stateMutability": "view",
      "type": "function"
    },
    {
      "inputs": [],
      "name": "totalSupply",
      "outputs": [
        {
          "internalType": "uint256",
          "name": "",
          "type": "uint256"
        }
      ],
      "stateMutability": "view",
      "type": "function"
    },
    {
      "inputs": [
        {
          "internalType": "address",
          "name": "from",
          "type": "address"
        },
        {
          "internalType": "address",
          "name": "to",
          "type": "address"
        },
        {
          "internalType": "uint256",
          "name": "tokenId",
          "type": "uint256"
        }
      ],
      "name": "transferFrom",
      "outputs": [],
      "stateMutability": "nonpayable",
      "type": "function"
    },
    {
      "inputs": [
        {
          "internalType": "uint256",
          "name": "tokenId",
          "type": "uint256"
        },
        {
          "internalType": "string",
          "name": "metadataURI",
          "type": "string"
        }
      ],
      "name": "updateTokenMetadataURI",
      "outputs": [],
      "stateMutability": "nonpayable",
      "type": "function"
    },
    {
      "inputs": [
        {
          "internalType": "uint256",
          "name": "tokenId",
          "type": "uint256"
        },
        {
          "internalType": "string",
          "name": "tokenURI",
          "type": "string"
        }
      ],
      "name": "updateTokenURI",
      "outputs": [],
      "stateMutability": "nonpayable",
      "type": "function"
    }
  ],
  "bytecode": "0x60806040527f49ecf333e5b8c95c40fdafc95c1ad136e8914a8fb55e9dc8bb01eaa83a2df9ad6013557f2952e482b8e2b192305f87374d7af45dc2eafafe4f50d26a0c02e90f2fdbe14b6014553480156200005957600080fd5b5060405162003d6238038062003d628339810160408190526200007c916200026b565b604051806040016040528060048152602001635a6f726160e01b815250604051806040016040528060048152602001635a4f524160e01b815250620000ce6301ffc9a760e01b6200016b60201b60201c565b8151620000e3906006906020850190620001c6565b508051620000f9906007906020840190620001c6565b50620001156380ac58cd60e01b6001600160e01b036200016b16565b6200013063780e9d6360e01b6001600160e01b036200016b16565b50506001600a55600b80546001600160a01b0319166001600160a01b03831617905562000164632711173360e11b6200016b565b50620002d2565b6001600160e01b03198082161415620001a15760405162461bcd60e51b815260040162000198906200029b565b60405180910390fd5b6001600160e01b0319166000908152602081905260409020805460ff19166001179055565b828054600181600116156101000203166002900490600052602060002090601f016020900481019282601f106200020957805160ff191683800117855562000239565b8280016001018555821562000239579182015b82811115620002395782518255916020019190600101906200021c565b50620002479291506200024b565b5090565b6200026891905b8082111562000247576000815560010162000252565b90565b6000602082840312156200027d578081fd5b81516001600160a01b038116811462000294578182fd5b9392505050565b6020808252601c908201527f4552433136353a20696e76616c696420696e7465726661636520696400000000604082015260600190565b613a8080620002e26000396000f3fe608060405234801561001057600080fd5b50600436106102325760003560e01c80636c0360eb11610130578063b1e130fc116100b8578063e0fd045f1161007c578063e0fd045f146104b2578063e985e9c5146104c5578063f6b630f0146104d8578063f8ccd5de146104eb578063fad32197146104fe57610232565b8063b1e130fc14610453578063b320f45914610466578063b88d4fde14610479578063ba3393991461048c578063c87b56dd1461049f57610232565b806385f7c354116100ff57806385f7c3541461040a57806395d89b411461041d5780639d8e726014610425578063a1794bcd14610438578063a22cb4651461044057610232565b80636c0360eb146103c957806370a08231146103d157806375682e79146103e45780637a7a1202146103f757610232565b806318e97fd1116101be57806342842e0e1161018257806342842e0e1461036a57806342966c681461037d5780634f6ccce7146103905780635bf62422146103a35780636352211e146103b657610232565b806318e97fd11461030b57806323b872dd1461031e57806328220f35146103315780632cca3237146103445780632f745c591461035757610232565b8063095ea7b311610205578063095ea7b3146102b55780630bcd899b146102ca5780630e2a1778146102dd578063157c3df9146102f057806318160ddd1461030357610232565b806301ddc3b51461023757806301ffc9a71461026057806306fdde0314610280578063081812fc14610295575b600080fd5b61024a610245366004612bcd565b610511565b6040516102579190612f52565b60405180910390f35b61027361026e366004612b51565b610523565b6040516102579190612f47565b610288610546565b6040516102579190612ff9565b6102a86102a3366004612bcd565b6105dd565b6040516102579190612ed2565b6102c86102c3366004612aea565b610629565b005b61024a6102d8366004612946565b6106c1565b6102c86102eb366004612b14565b6106d3565b6102886102fe366004612bcd565b6108ad565b61024a61097a565b6102c8610319366004612c08565b61098b565b6102c861032c366004612995565b610a4f565b6102c861033f366004612bcd565b610a87565b6102c8610352366004612b89565b610b0d565b61024a610365366004612aea565b610b61565b6102c8610378366004612995565b610b92565b6102c861038b366004612bcd565b610bad565b61024a61039e366004612bcd565b610c52565b6102c86103b1366004612cb6565b610c6e565b6102a86103c4366004612bcd565b610d61565b610288610d8f565b61024a6103df366004612946565b610df0565b6102c86103f2366004612c08565b610e39565b6102c8610405366004612a78565b610eed565b6102c8610418366004612c4d565b6110ae565b610288611140565b6102a8610433366004612bcd565b6111a1565b6102a86111bc565b6102c861044e366004612a3d565b6111cb565b6102c8610461366004612bcd565b611299565b6102c8610474366004612bcd565b6112e0565b6102c86104873660046129d5565b61139f565b6102c861049a366004612cb6565b6113d8565b6102886104ad366004612bcd565b611432565b6102a86104c0366004612bcd565b611582565b6102736104d3366004612961565b61159d565b6102c86104e6366004612be5565b6115cb565b61024a6104f9366004612aea565b611651565b61024a61050c366004612bcd565b61166e565b60106020526000908152604090205481565b6001600160e01b0319811660009081526020819052604090205460ff165b919050565b60068054604080516020601f60026000196101006001881615020190951694909404938401819004810282018101909252828152606093909290918301828280156105d25780601f106105a7576101008083540402835291602001916105d2565b820191906000526020600020905b8154815290600101906020018083116105b557829003601f168201915b505050505090505b90565b60006105e882611680565b61060d5760405162461bcd60e51b815260040161060490613514565b60405180910390fd5b506000908152600460205260409020546001600160a01b031690565b600061063482610d61565b9050806001600160a01b0316836001600160a01b031614156106685760405162461bcd60e51b8152600401610604906136c3565b806001600160a01b031661067a611693565b6001600160a01b031614806106965750610696816104d3611693565b6106b25760405162461bcd60e51b8152600401610604906132ef565b6106bc8383611697565b505050565b60166020526000908152604090205481565b816106dd81611680565b6106f95760405162461bcd60e51b8152600401610604906132a3565b81511580610708575081514211155b6107245760405162461bcd60e51b815260040161060490613396565b6001600160a01b03841661074a5760405162461bcd60e51b8152600401610604906130e8565b6000610754611705565b905060008160135487876015600061076b8b610d61565b6001600160a01b03168152602080820192909252604090810160009081208c825283528190208054600181019091558a5191516107ae9695949391929101612f5b565b604051602081830303815290604052805190602001206040516020016107d5929190612e4d565b60405160208183030381529060405280519060200120905060006001828660200151876040015188606001516040516000815260200160405260405161081e9493929190612fdb565b6020604051602081039080840390855afa158015610840573d6000803e3d6000fd5b5050604051601f1901519150506001600160a01b0381161580159061087e5750806001600160a01b031661087387610d61565b6001600160a01b0316145b61089a5760405162461bcd60e51b81526004016106049061380a565b6108a48787611697565b50505050505050565b606081806108bb60176117bb565b10156108d95760405162461bcd60e51b81526004016106049061304e565b60008381526011602090815260409182902080548351601f60026000196101006001861615020190931692909204918201849004840281018401909452808452909183018282801561096c5780601f106109415761010080835404028352916020019161096c565b820191906000526020600020905b81548152906001019060200180831161094f57829003601f168201915b505050505091505b50919050565b600061098660026117bf565b905090565b338261099782826117ca565b6109b35760405162461bcd60e51b8152600401610604906135ac565b6000848152600f602052604090205484906109e05760405162461bcd60e51b815260040161060490613671565b83805160001415610a035760405162461bcd60e51b815260040161060490613878565b610a0d868661184f565b857f702fe2dc2dc0f68023540aa4a1e11811c0f29112f6ebf01e61b90538e4f298103387604051610a3f929190612f23565b60405180910390a2505050505050565b610a60610a5a611693565b826117ca565b610a7c5760405162461bcd60e51b81526004016106049061373b565b6106bc838383611893565b3381610a9382826117ca565b610aaf5760405162461bcd60e51b8152600401610604906135ac565b600b546040516328220f3560e01b81526001600160a01b03909116906328220f3590610adf908690600401612f52565b600060405180830381600087803b158015610af957600080fd5b505af11580156108a4573d6000803e3d6000fd5b81518051610b2d5760405162461bcd60e51b815260040161060490613878565b60208301518051610b505760405162461bcd60e51b815260040161060490613878565b610b5b338585611900565b50505050565b6001600160a01b0382166000908152600160205260408120610b89908363ffffffff611af616565b90505b92915050565b6106bc8383836040518060200160405280600081525061139f565b80610bb781611680565b610bd35760405162461bcd60e51b8152600401610604906132a3565b3382610bdf82826117ca565b610bfb5760405162461bcd60e51b8152600401610604906135ac565b6000610c0685610d61565b6000868152600d60205260409020549091506001600160a01b03808316911614610c425760405162461bcd60e51b8152600401610604906134d0565b610c4b85611b02565b5050505050565b600080610c6660028463ffffffff611bee16565b509392505050565b6002600a541415610c915760405162461bcd60e51b815260040161060490613841565b6002600a5581610ca081611680565b610cbc5760405162461bcd60e51b8152600401610604906132a3565b81604001516001600160a01b0316336001600160a01b031614610cf15760405162461bcd60e51b815260040161060490613156565b600b546040516317b6b0d360e31b81526001600160a01b039091169063bdb5869890610d2590869086903390600401613944565b600060405180830381600087803b158015610d3f57600080fd5b505af1158015610d53573d6000803e3d6000fd5b50506001600a555050505050565b6000610b8c82604051806060016040528060298152602001613a22602991396002919063ffffffff611c0a16565b60098054604080516020601f60026000196101006001881615020190951694909404938401819004810282018101909252828152606093909290918301828280156105d25780601f106105a7576101008083540402835291602001916105d2565b60006001600160a01b038216610e185760405162461bcd60e51b81526004016106049061334c565b6001600160a01b0382166000908152600160205260409020610b8c906117bf565b3382610e4582826117ca565b610e615760405162461bcd60e51b8152600401610604906135ac565b6000848152601060205260409020548490610e8e5760405162461bcd60e51b815260040161060490613254565b83805160001415610eb15760405162461bcd60e51b815260040161060490613878565b610ebb8686611c21565b857fe3df41127db820c79e5b8d541a63e40e3e97b9af96f7a50bded13091b70df9ae3387604051610a3f929190612f23565b82518051610f0d5760405162461bcd60e51b815260040161060490613878565b60208401518051610f305760405162461bcd60e51b815260040161060490613878565b82511580610f3f575082514211155b610f5b5760405162461bcd60e51b815260040161060490613704565b6000610f65611705565b60145460408089015160608a01516020808b0151516001600160a01b038e166000908152601683528581208054600181019091558c51965198995090978997610fb49790969594909101612fb3565b60405160208183030381529060405280519060200120604051602001610fdb929190612e4d565b6040516020818303038152906040528051906020012090506000600182876020015188604001518960600151604051600081526020016040526040516110249493929190612fdb565b6020604051602081039080840390855afa158015611046573d6000803e3d6000fd5b5050604051601f1901519150506001600160a01b0381161580159061107c5750806001600160a01b0316896001600160a01b0316145b6110985760405162461bcd60e51b81526004016106049061380a565b6110a3818989611900565b505050505050505050565b33826110ba82826117ca565b6110d65760405162461bcd60e51b8152600401610604906135ac565b600b5460405163217df0d560e21b81526001600160a01b03909116906385f7c3549061110890879087906004016138d5565b600060405180830381600087803b15801561112257600080fd5b505af1158015611136573d6000803e3d6000fd5b5050505050505050565b60078054604080516020601f60026000196101006001881615020190951694909404938401819004810282018101909252828152606093909290918301828280156105d25780601f106105a7576101008083540402835291602001916105d2565b600c602052600090815260409020546001600160a01b031681565b600b546001600160a01b031681565b6111d3611693565b6001600160a01b0316826001600160a01b031614156112045760405162461bcd60e51b81526004016106049061321d565b8060056000611211611693565b6001600160a01b03908116825260208083019390935260409182016000908120918716808252919093529120805460ff191692151592909217909155611255611693565b6001600160a01b03167f17307eab39ab6107e8899845ad3d59bd9653f200f220920489ca2b5937696c318360405161128d9190612f47565b60405180910390a35050565b6112a2816105dd565b6001600160a01b0316336001600160a01b0316146112d25760405162461bcd60e51b815260040161060490613197565b6112dd600082611697565b50565b6002600a5414156113035760405162461bcd60e51b815260040161060490613841565b6002600a55808061131460176117bb565b10156113325760405162461bcd60e51b81526004016106049061304e565b600b5460405163776a083560e01b81526001600160a01b039091169063776a08359061136490859033906004016138be565b600060405180830381600087803b15801561137e57600080fd5b505af1158015611392573d6000803e3d6000fd5b50506001600a5550505050565b6113b06113aa611693565b836117ca565b6113cc5760405162461bcd60e51b81526004016106049061373b565b610b5b84848484611c66565b33826113e482826117ca565b6114005760405162461bcd60e51b8152600401610604906135ac565b600b5460405163ba33939960e01b81526001600160a01b039091169063ba339399906111089087908790600401613930565b6060818061144060176117bb565b101561145e5760405162461bcd60e51b81526004016106049061304e565b60008381526008602090815260409182902080548351601f60026000196101006001861615020190931692909204918201849004840281018401909452808452606093928301828280156114f35780601f106114c8576101008083540402835291602001916114f3565b820191906000526020600020905b8154815290600101906020018083116114d657829003601f168201915b50506009549394505050506002600019610100600184161502019091160461151c579150610974565b80511561154e57600981604051602001611537929190612dcc565b604051602081830303815290604052925050610974565b600961155985611c99565b60405160200161156a929190612dcc565b60405160208183030381529060405292505050919050565b600d602052600090815260409020546001600160a01b031681565b6001600160a01b03918216600090815260056020908152604080832093909416825291909152205460ff1690565b600b546001600160a01b031633146115f55760405162461bcd60e51b815260040161060490613464565b6115fe82610d61565b6000838152600c6020526040902080546001600160a01b0319166001600160a01b039290921691909117905561164d61163683610d61565b828460405180602001604052806000815250611c66565b5050565b601560209081526000928352604080842090915290825290205481565b600f6020526000908152604090205481565b6000610b8c60028363ffffffff611d7416565b3390565b600081815260046020526040902080546001600160a01b0319166001600160a01b03841690811790915581906116cc82610d61565b6001600160a01b03167f8c5be1e5ebec7d5bd14f71427d1e84f3dd0314c0f7b2291e5b200ac8c7c3b92560405160405180910390a45050565b604051600090469061171690612e68565b60408051918290038220828201825260048352635a6f726160e01b6020938401528151808301835260018152603160f81b90840152905161179f927f91beda2a71cae260ce24b7d0ba9253f7212b59cbe39b0f303ac34fac7c00047d917fc89efdaa54c0f20c7adf612882df0950f5a951637e0307cdcb4c672f298b8bc6918691309101612f87565b6040516020818303038152906040528051906020012091505090565b5490565b6000610b8c826117bb565b60006117d582611680565b6117f15760405162461bcd60e51b8152600401610604906132a3565b60006117fc83610d61565b9050806001600160a01b0316846001600160a01b031614806118375750836001600160a01b031661182c846105dd565b6001600160a01b0316145b806118475750611847818561159d565b949350505050565b61185882611680565b6118745760405162461bcd60e51b815260040161060490613560565b600082815260086020908152604090912082516106bc9284019061269c565b600b546040516328220f3560e01b81526001600160a01b03909116906328220f35906118c3908490600401612f52565b600060405180830381600087803b1580156118dd57600080fd5b505af11580156118f1573d6000803e3d6000fd5b505050506106bc838383611d80565b815180516119205760405162461bcd60e51b815260040161060490613878565b602083015180516119435760405162461bcd60e51b815260040161060490613878565b60408401516119645760405162461bcd60e51b81526004016106049061362c565b60408085015160009081526012602052205460ff16156119965760405162461bcd60e51b8152600401610604906133c5565b60608401516119b75760405162461bcd60e51b81526004016106049061378c565b60006119c360176117bb565b90506119cf8682611ea0565b6119d96017611eba565b6119e7818660400151611ec3565b6119f5818660600151611efc565b611a03818660200151611c21565b611a1181866000015161184f565b6001600160a01b0386166000908152600e60205260409020611a39908263ffffffff611f3516565b50604080860151600090815260126020908152828220805460ff19166001179055838252600d815282822080546001600160a01b03808c166001600160a01b03199283168117909355600c90935292849020805490931617909155600b5491516375aab41d60e11b815291169063eb55683a90611abc9084908890600401613906565b600060405180830381600087803b158015611ad657600080fd5b505af1158015611aea573d6000803e3d6000fd5b50505050505050505050565b6000610b898383611f41565b60008181526008602090815260409182902080548351601f6002600019610100600186161502019093169290920491820184900484028101840190945280845260609392830182828015611b975780601f10611b6c57610100808354040283529160200191611b97565b820191906000526020600020905b815481529060010190602001808311611b7a57829003601f168201915b50505050509050611ba782611f86565b805115611bcf5760008281526008602090815260409091208251611bcd9284019061269c565b505b506000908152600c6020526040902080546001600160a01b0319169055565b6000808080611bfd868661205f565b9097909650945050505050565b6000611c178484846120bb565b90505b9392505050565b81611c2b81611680565b611c475760405162461bcd60e51b8152600401610604906132a3565b60008381526011602090815260409091208351610b5b9285019061269c565b611c71848484611893565b611c7d8484848461211a565b610b5b5760405162461bcd60e51b815260040161060490613096565b606081611cbe57506040805180820190915260018152600360fc1b6020820152610541565b8160005b8115611cd657600101600a82049150611cc2565b60608167ffffffffffffffff81118015611cef57600080fd5b506040519080825280601f01601f191660200182016040528015611d1a576020820181803683370190505b50859350905060001982015b8315611d6b57600a840660300160f81b82828060019003935081518110611d4957fe5b60200101906001600160f81b031916908160001a905350600a84049350611d26565b50949350505050565b6000610b8983836121ff565b826001600160a01b0316611d9382610d61565b6001600160a01b031614611db95760405162461bcd60e51b8152600401610604906135e3565b6001600160a01b038216611ddf5760405162461bcd60e51b8152600401610604906131d9565b611dea8383836106bc565b611df5600082611697565b6001600160a01b0383166000908152600160205260409020611e1d908263ffffffff61221716565b506001600160a01b0382166000908152600160205260409020611e46908263ffffffff611f3516565b50611e596002828463ffffffff61222316565b5080826001600160a01b0316846001600160a01b03167fddf252ad1be2c89b69c2b068fc378daa952ba7f163c4a11628f55a4df523b3ef60405160405180910390a4505050565b61164d828260405180602001604052806000815250612239565b80546001019055565b81611ecd81611680565b611ee95760405162461bcd60e51b8152600401610604906132a3565b506000918252600f602052604090912055565b81611f0681611680565b611f225760405162461bcd60e51b8152600401610604906132a3565b5060009182526010602052604090912055565b6000610b89838361226c565b81546000908210611f645760405162461bcd60e51b81526004016106049061300c565b826000018281548110611f7357fe5b9060005260206000200154905092915050565b6000611f9182610d61565b9050611f9f816000846106bc565b611faa600083611697565b6000828152600860205260409020546002600019610100600184161502019091160415611fe8576000828152600860205260408120611fe89161271a565b6001600160a01b0381166000908152600160205260409020612010908363ffffffff61221716565b5061202260028363ffffffff6122b616565b5060405182906000906001600160a01b038416907fddf252ad1be2c89b69c2b068fc378daa952ba7f163c4a11628f55a4df523b3ef908390a45050565b8154600090819083106120845760405162461bcd60e51b815260040161060490613422565b600084600001848154811061209557fe5b906000526020600020906002020190508060000154816001015492509250509250929050565b600082815260018401602052604081205482816120eb5760405162461bcd60e51b81526004016106049190612ff9565b508460000160018203815481106120fe57fe5b9060005260206000209060020201600101549150509392505050565b600061212e846001600160a01b03166122c2565b61213a57506001611847565b60606121c8630a85bd0160e11b61214f611693565b8887876040516024016121659493929190612ee6565b604051602081830303815290604052906001600160e01b0319166020820180516001600160e01b0383818316178352505050506040518060600160405280603281526020016139f0603291396001600160a01b038816919063ffffffff6122c816565b90506000818060200190518101906121e09190612b6d565b6001600160e01b031916630a85bd0160e11b1492505050949350505050565b60009081526001919091016020526040902054151590565b6000610b8983836122d7565b6000611c1784846001600160a01b03851661239d565b6122438383612434565b612250600084848461211a565b6106bc5760405162461bcd60e51b815260040161060490613096565b600061227883836121ff565b6122ae57508154600181810184556000848152602080822090930184905584548482528286019093526040902091909155610b8c565b506000610b8c565b6000610b898383612504565b3b151590565b6060611c1784846000856125d8565b60008181526001830160205260408120548015612393578354600019808301919081019060009087908390811061230a57fe5b906000526020600020015490508087600001848154811061232757fe5b60009182526020808320909101929092558281526001898101909252604090209084019055865487908061235757fe5b60019003818190600052602060002001600090559055866001016000878152602001908152602001600020600090556001945050505050610b8c565b6000915050610b8c565b600082815260018401602052604081205480612402575050604080518082018252838152602080820184815286546001818101895560008981528481209551600290930290950191825591519082015586548684528188019092529290912055611c1a565b8285600001600183038154811061241557fe5b9060005260206000209060020201600101819055506000915050611c1a565b6001600160a01b03821661245a5760405162461bcd60e51b81526004016106049061349b565b61246381611680565b156124805760405162461bcd60e51b81526004016106049061311f565b61248c600083836106bc565b6001600160a01b03821660009081526001602052604090206124b4908263ffffffff611f3516565b506124c76002828463ffffffff61222316565b5060405181906001600160a01b038416906000907fddf252ad1be2c89b69c2b068fc378daa952ba7f163c4a11628f55a4df523b3ef908290a45050565b60008181526001830160205260408120548015612393578354600019808301919081019060009087908390811061253757fe5b906000526020600020906002020190508087600001848154811061255757fe5b60009182526020808320845460029093020191825560019384015491840191909155835482528983019052604090209084019055865487908061259657fe5b6000828152602080822060026000199094019384020182815560019081018390559290935588815289820190925260408220919091559450610b8c9350505050565b60606125e3856122c2565b6125ff5760405162461bcd60e51b8152600401610604906137d3565b60006060866001600160a01b0316858760405161261c9190612db0565b60006040518083038185875af1925050503d8060008114612659576040519150601f19603f3d011682016040523d82523d6000602084013e61265e565b606091505b509150915081156126725791506118479050565b8051156126825780518082602001fd5b8360405162461bcd60e51b81526004016106049190612ff9565b828054600181600116156101000203166002900490600052602060002090601f016020900481019282601f106126dd57805160ff191683800117855561270a565b8280016001018555821561270a579182015b8281111561270a5782518255916020019190600101906126ef565b5061271692915061275a565b5090565b50805460018160011615610100020316600290046000825580601f1061274057506112dd565b601f0160209004906000526020600020908101906112dd91905b6105da91905b808211156127165760008155600101612760565b80356001600160a01b0381168114610b8c57600080fd5b600082601f83011261279b578081fd5b813567ffffffffffffffff8111156127b1578182fd5b6127c4601f8201601f1916602001613971565b91508082528360208285010111156127db57600080fd5b8060208401602084013760009082016020015292915050565b600060608284031215612805578081fd5b61280f6060613971565b905061281b8383612847565b815261282a8360208401612847565b602082015261283c8360408401612847565b604082015292915050565b600060208284031215612858578081fd5b6128626020613971565b9135825250919050565b60006080828403121561287d578081fd5b6128876080613971565b905081358152602082013560ff811681146128a157600080fd5b80602083015250604082013560408201526060820135606082015292915050565b6000608082840312156128d3578081fd5b6128dd6080613971565b9050813567ffffffffffffffff808211156128f757600080fd5b6129038583860161278b565b8352602084013591508082111561291957600080fd5b506129268482850161278b565b602083015250604082013560408201526060820135606082015292915050565b600060208284031215612957578081fd5b610b898383612774565b60008060408385031215612973578081fd5b61297d8484612774565b915061298c8460208501612774565b90509250929050565b6000806000606084860312156129a9578081fd5b83356129b4816139c4565b925060208401356129c4816139c4565b929592945050506040919091013590565b600080600080608085870312156129ea578081fd5b6129f48686612774565b9350612a038660208701612774565b925060408501359150606085013567ffffffffffffffff811115612a25578182fd5b612a318782880161278b565b91505092959194509250565b60008060408385031215612a4f578182fd5b612a598484612774565b915060208301358015158114612a6d578182fd5b809150509250929050565b6000806000806101208587031215612a8e578384fd5b8435612a99816139c4565b9350602085013567ffffffffffffffff811115612ab4578384fd5b612ac0878288016128c2565b935050612ad086604087016127f4565b9150612adf8660a0870161286c565b905092959194509250565b60008060408385031215612afc578182fd5b612b068484612774565b946020939093013593505050565b600080600060c08486031215612b28578081fd5b612b328585612774565b925060208401359150612b48856040860161286c565b90509250925092565b600060208284031215612b62578081fd5b8135611c1a816139d9565b600060208284031215612b7e578081fd5b8151611c1a816139d9565b60008060808385031215612b9b578182fd5b823567ffffffffffffffff811115612bb1578283fd5b612bbd858286016128c2565b92505061298c84602085016127f4565b600060208284031215612bde578081fd5b5035919050565b60008060408385031215612bf7578182fd5b8235915061298c8460208501612774565b60008060408385031215612c1a578182fd5b82359150602083013567ffffffffffffffff811115612c37578182fd5b612c438582860161278b565b9150509250929050565b6000808284036080811215612c60578283fd5b833592506060601f1982011215612c75578182fd5b50612c806060613971565b60208401358152612c948560408601612774565b6020820152612ca68560608601612847565b6040820152809150509250929050565b60008082840360c0811215612cc9578283fd5b8335925060a0601f1982011215612cde578182fd5b50612ce960a0613971565b60208401358152612cfd8560408601612774565b6020820152612d0f8560608601612774565b6040820152612d218560808601612774565b6060820152612d338560a08601612847565b6080820152809150509250929050565b60008151808452612d5b816020860160208601613998565b601f01601f19169290920160200192915050565b805182526020808201516001600160a01b03908116918401919091526040808301518216908401526060808301519091169083015260809081015151910152565b60008251612dc2818460208701613998565b9190910192915050565b6000808454600180821660008114612deb5760018114612e0257612e31565b60ff198316865260028304607f1686019350612e31565b600283048886526020808720875b83811015612e295781548a820152908501908201612e10565b505050860193505b5050508351612e44818360208801613998565b01949350505050565b61190160f01b81526002810192909252602282015260420190565b7f454950373132446f6d61696e28737472696e67206e616d652c737472696e672081527f76657273696f6e2c75696e7432353620636861696e49642c6164647265737320602082015271766572696679696e67436f6e74726163742960701b604082015260520190565b6001600160a01b0391909116815260200190565b6001600160a01b0385811682528416602082015260408101839052608060608201819052600090612f1990830184612d43565b9695505050505050565b6001600160a01b0383168152604060208201819052600090611c1790830184612d43565b901515815260200190565b90815260200190565b9485526001600160a01b0393909316602085015260408401919091526060830152608082015260a00190565b9485526020850193909352604084019190915260608301526001600160a01b0316608082015260a00190565b958652602086019490945260408501929092526060840152608083015260a082015260c00190565b93845260ff9290921660208401526040830152606082015260800190565b600060208252610b896020830184612d43565b60208082526022908201527f456e756d657261626c655365743a20696e646578206f7574206f6620626f756e604082015261647360f01b606082015260800190565b60208082526028908201527f4d656469613a20746f6b656e2077697468207468617420696420646f6573206e6040820152671bdd08195e1a5cdd60c21b606082015260800190565b60208082526032908201527f4552433732313a207472616e7366657220746f206e6f6e20455243373231526560408201527131b2b4bb32b91034b6b83632b6b2b73a32b960711b606082015260800190565b6020808252601c908201527f4d656469613a207370656e6465722063616e6e6f742062652030783000000000604082015260600190565b6020808252601c908201527f4552433732313a20746f6b656e20616c7265616479206d696e74656400000000604082015260600190565b60208082526021908201527f4d61726b65743a20426964646572206d757374206265206d73672073656e64656040820152603960f91b606082015260800190565b60208082526022908201527f4d656469613a2063616c6c6572206e6f7420617070726f766564206164647265604082015261737360f01b606082015260800190565b60208082526024908201527f4552433732313a207472616e7366657220746f20746865207a65726f206164646040820152637265737360e01b606082015260800190565b60208082526019908201527f4552433732313a20617070726f766520746f2063616c6c657200000000000000604082015260600190565b6020808252602f908201527f4d656469613a20746f6b656e20646f6573206e6f74206861766520686173682060408201526e6f6620697473206d6574616461746160881b606082015260800190565b6020808252602c908201527f4552433732313a206f70657261746f7220717565727920666f72206e6f6e657860408201526b34b9ba32b73a103a37b5b2b760a11b606082015260800190565b60208082526038908201527f4552433732313a20617070726f76652063616c6c6572206973206e6f74206f7760408201527f6e6572206e6f7220617070726f76656420666f7220616c6c0000000000000000606082015260800190565b6020808252602a908201527f4552433732313a2062616c616e636520717565727920666f7220746865207a65604082015269726f206164647265737360b01b606082015260800190565b6020808252601590820152741359591a584e8814195c9b5a5d08195e1c1a5c9959605a1b604082015260600190565b6020808252603e908201527f4d656469613a206120746f6b656e2068617320616c7265616479206265656e2060408201527f637265617465642077697468207468697320636f6e74656e7420686173680000606082015260800190565b60208082526022908201527f456e756d657261626c654d61703a20696e646578206f7574206f6620626f756e604082015261647360f01b606082015260800190565b6020808252601b908201527f4d656469613a206f6e6c79206d61726b657420636f6e74726163740000000000604082015260600190565b6020808252818101527f4552433732313a206d696e7420746f20746865207a65726f2061646472657373604082015260600190565b60208082526024908201527f4d656469613a206f776e6572206973206e6f742063726561746f72206f66206d6040820152636564696160e01b606082015260800190565b6020808252602c908201527f4552433732313a20617070726f76656420717565727920666f72206e6f6e657860408201526b34b9ba32b73a103a37b5b2b760a11b606082015260800190565b6020808252602c908201527f4552433732314d657461646174613a2055524920736574206f66206e6f6e657860408201526b34b9ba32b73a103a37b5b2b760a11b606082015260800190565b6020808252601d908201527f4d656469613a204f6e6c7920617070726f766564206f72206f776e6572000000604082015260600190565b60208082526029908201527f4552433732313a207472616e73666572206f6620746f6b656e2074686174206960408201526839903737ba1037bbb760b91b606082015260800190565b60208082526025908201527f4d656469613a20636f6e74656e742068617368206d757374206265206e6f6e2d604082015264656d70747960d81b606082015260800190565b60208082526032908201527f4d656469613a20746f6b656e20646f6573206e6f7420686176652068617368206040820152711bd98818dc99585d19590818dbdb9d195b9d60721b606082015260800190565b60208082526021908201527f4552433732313a20617070726f76616c20746f2063757272656e74206f776e656040820152603960f91b606082015260800190565b6020808252601a908201527f4d656469613a206d696e74576974685369672065787069726564000000000000604082015260600190565b60208082526031908201527f4552433732313a207472616e736665722063616c6c6572206973206e6f74206f6040820152701ddb995c881b9bdc88185c1c1c9bdd9959607a1b606082015260800190565b60208082526027908201527f4d656469613a206d65746164617461206861736820206d757374206265206e6f6040820152666e2d656d70747960c81b606082015260800190565b6020808252601d908201527f416464726573733a2063616c6c20746f206e6f6e2d636f6e7472616374000000604082015260600190565b60208082526018908201527f4d656469613a205369676e617475726520696e76616c69640000000000000000604082015260600190565b6020808252601f908201527f5265656e7472616e637947756172643a207265656e7472616e742063616c6c00604082015260600190565b60208082526026908201527f4d656469613a2073706563696669656420757269206d757374206265206e6f6e6040820152652d656d70747960d01b606082015260800190565b9182526001600160a01b0316602082015260400190565b91825280516020808401919091528101516001600160a01b0316604080840191909152015151606082015260800190565b91825280515160208084019190915281015151604080840191909152015151606082015260800190565b82815260c08101611c1a6020830184612d6f565b83815260e081016139586020830185612d6f565b6001600160a01b039290921660c0919091015292915050565b60405181810167ffffffffffffffff8111828210171561399057600080fd5b604052919050565b60005b838110156139b357818101518382015260200161399b565b83811115610b5b5750506000910152565b6001600160a01b03811681146112dd57600080fd5b6001600160e01b0319811681146112dd57600080fdfe4552433732313a207472616e7366657220746f206e6f6e20455243373231526563656976657220696d706c656d656e7465724552433732313a206f776e657220717565727920666f72206e6f6e6578697374656e7420746f6b656ea26469706673582212200e4282e18f4ba4ae8845ce2863d76e860c61c46a394b8ca70f9d8fcb1c4ffd8a64736f6c63430006080033",
  "linkReferences": {},
  "deployedLinkReferences": {}
}