{
  "_format": "hh-sol-artifact-1",
  "contractName": "Media",
  "sourceName": "contracts/Media.sol",
  "abi": [
    {
      "inputs": [
        {
          "internalType": "address",
          "name": "auctionContract",
          "type": "address"
        }
      ],
      "stateMutability": "nonpayable",
      "type": "constructor"
    },
    {
      "anonymous": false,
      "inputs": [
        {
          "indexed": true,
          "internalType": "address",
          "name": "owner",
          "type": "address"
        },
        {
          "indexed": true,
          "internalType": "address",
          "name": "approved",
          "type": "address"
        },
        {
          "indexed": true,
          "internalType": "uint256",
          "name": "tokenId",
          "type": "uint256"
        }
      ],
      "name": "Approval",
      "type": "event"
    },
    {
      "anonymous": false,
      "inputs": [
        {
          "indexed": true,
          "internalType": "address",
          "name": "owner",
          "type": "address"
        },
        {
          "indexed": true,
          "internalType": "address",
          "name": "operator",
          "type": "address"
        },
        {
          "indexed": false,
          "internalType": "bool",
          "name": "approved",
          "type": "bool"
        }
      ],
      "name": "ApprovalForAll",
      "type": "event"
    },
    {
      "anonymous": false,
      "inputs": [
        {
          "indexed": true,
          "internalType": "uint256",
          "name": "_tokenId",
          "type": "uint256"
        },
        {
          "indexed": false,
          "internalType": "address",
          "name": "owner",
          "type": "address"
        },
        {
          "indexed": false,
          "internalType": "string",
          "name": "_uri",
          "type": "string"
        }
      ],
      "name": "TokenMetadataURIUpdated",
      "type": "event"
    },
    {
      "anonymous": false,
      "inputs": [
        {
          "indexed": true,
          "internalType": "uint256",
          "name": "_tokenId",
          "type": "uint256"
        },
        {
          "indexed": false,
          "internalType": "address",
          "name": "owner",
          "type": "address"
        },
        {
          "indexed": false,
          "internalType": "string",
          "name": "_uri",
          "type": "string"
        }
      ],
      "name": "TokenURIUpdated",
      "type": "event"
    },
    {
      "anonymous": false,
      "inputs": [
        {
          "indexed": true,
          "internalType": "address",
          "name": "from",
          "type": "address"
        },
        {
          "indexed": true,
          "internalType": "address",
          "name": "to",
          "type": "address"
        },
        {
          "indexed": true,
          "internalType": "uint256",
          "name": "tokenId",
          "type": "uint256"
        }
      ],
      "name": "Transfer",
      "type": "event"
    },
    {
      "inputs": [],
      "name": "_auctionContract",
      "outputs": [
        {
          "internalType": "address",
          "name": "",
          "type": "address"
        }
      ],
      "stateMutability": "view",
      "type": "function"
    },
    {
      "inputs": [
        {
          "internalType": "uint256",
          "name": "tokenId",
          "type": "uint256"
        },
        {
          "components": [
            {
              "internalType": "uint256",
              "name": "amount",
              "type": "uint256"
            },
            {
              "internalType": "address",
              "name": "currency",
              "type": "address"
            },
            {
              "internalType": "address",
              "name": "bidder",
              "type": "address"
            },
            {
              "internalType": "address",
              "name": "recipient",
              "type": "address"
            },
            {
              "components": [
                {
                  "internalType": "uint256",
                  "name": "value",
                  "type": "uint256"
                }
              ],
              "internalType": "struct Decimal.D256",
              "name": "sellOnFee",
              "type": "tuple"
            }
          ],
          "internalType": "struct Market.Bid",
          "name": "bid",
          "type": "tuple"
        }
      ],
      "name": "acceptBid",
      "outputs": [],
      "stateMutability": "nonpayable",
      "type": "function"
    },
    {
      "inputs": [
        {
          "internalType": "address",
          "name": "to",
          "type": "address"
        },
        {
          "internalType": "uint256",
          "name": "tokenId",
          "type": "uint256"
        }
      ],
      "name": "approve",
      "outputs": [],
      "stateMutability": "nonpayable",
      "type": "function"
    },
    {
      "inputs": [
        {
          "internalType": "uint256",
          "name": "tokenId",
          "type": "uint256"
        },
        {
          "internalType": "address",
          "name": "recipient",
          "type": "address"
        }
      ],
      "name": "auctionTransfer",
      "outputs": [],
      "stateMutability": "nonpayable",
      "type": "function"
    },
    {
      "inputs": [
        {
          "internalType": "address",
          "name": "owner",
          "type": "address"
        }
      ],
      "name": "balanceOf",
      "outputs": [
        {
          "internalType": "uint256",
          "name": "",
          "type": "uint256"
        }
      ],
      "stateMutability": "view",
      "type": "function"
    },
    {
      "inputs": [],
      "name": "baseURI",
      "outputs": [
        {
          "internalType": "string",
          "name": "",
          "type": "string"
        }
      ],
      "stateMutability": "view",
      "type": "function"
    },
    {
      "inputs": [
        {
          "internalType": "uint256",
          "name": "tokenId",
          "type": "uint256"
        }
      ],
      "name": "burn",
      "outputs": [],
      "stateMutability": "nonpayable",
      "type": "function"
    },
    {
      "inputs": [
        {
          "internalType": "uint256",
          "name": "tokenId",
          "type": "uint256"
        }
      ],
      "name": "getApproved",
      "outputs": [
        {
          "internalType": "address",
          "name": "",
          "type": "address"
        }
      ],
      "stateMutability": "view",
      "type": "function"
    },
    {
      "inputs": [
        {
          "internalType": "address",
          "name": "owner",
          "type": "address"
        },
        {
          "internalType": "address",
          "name": "operator",
          "type": "address"
        }
      ],
      "name": "isApprovedForAll",
      "outputs": [
        {
          "internalType": "bool",
          "name": "",
          "type": "bool"
        }
      ],
      "stateMutability": "view",
      "type": "function"
    },
    {
      "inputs": [
        {
          "internalType": "address",
          "name": "creator",
          "type": "address"
        },
        {
          "internalType": "string",
          "name": "tokenURI",
          "type": "string"
        },
        {
          "internalType": "string",
          "name": "metadataURI",
          "type": "string"
        },
        {
          "internalType": "bytes32",
          "name": "contentHash",
          "type": "bytes32"
        },
        {
          "internalType": "bytes32",
          "name": "metadataHash",
          "type": "bytes32"
        },
        {
          "components": [
            {
              "components": [
                {
                  "internalType": "uint256",
                  "name": "value",
                  "type": "uint256"
                }
              ],
              "internalType": "struct Decimal.D256",
              "name": "prevOwner",
              "type": "tuple"
            },
            {
              "components": [
                {
                  "internalType": "uint256",
                  "name": "value",
                  "type": "uint256"
                }
              ],
              "internalType": "struct Decimal.D256",
              "name": "creator",
              "type": "tuple"
            },
            {
              "components": [
                {
                  "internalType": "uint256",
                  "name": "value",
                  "type": "uint256"
                }
              ],
              "internalType": "struct Decimal.D256",
              "name": "owner",
              "type": "tuple"
            }
          ],
          "internalType": "struct Market.BidShares",
          "name": "bidShares",
          "type": "tuple"
        }
      ],
      "name": "mint",
      "outputs": [],
      "stateMutability": "nonpayable",
      "type": "function"
    },
    {
      "inputs": [],
      "name": "name",
      "outputs": [
        {
          "internalType": "string",
          "name": "",
          "type": "string"
        }
      ],
      "stateMutability": "view",
      "type": "function"
    },
    {
      "inputs": [
        {
          "internalType": "uint256",
          "name": "tokenId",
          "type": "uint256"
        }
      ],
      "name": "ownerOf",
      "outputs": [
        {
          "internalType": "address",
          "name": "",
          "type": "address"
        }
      ],
      "stateMutability": "view",
      "type": "function"
    },
    {
      "inputs": [
        {
          "internalType": "address",
          "name": "spender",
          "type": "address"
        },
        {
          "internalType": "uint256",
          "name": "tokenId",
          "type": "uint256"
        },
        {
          "internalType": "uint256",
          "name": "deadline",
          "type": "uint256"
        },
        {
          "internalType": "uint8",
          "name": "v",
          "type": "uint8"
        },
        {
          "internalType": "bytes32",
          "name": "r",
          "type": "bytes32"
        },
        {
          "internalType": "bytes32",
          "name": "s",
          "type": "bytes32"
        }
      ],
      "name": "permit",
      "outputs": [],
      "stateMutability": "nonpayable",
      "type": "function"
    },
    {
      "inputs": [
        {
          "internalType": "address",
          "name": "",
          "type": "address"
        },
        {
          "internalType": "uint256",
          "name": "",
          "type": "uint256"
        }
      ],
      "name": "permitNonces",
      "outputs": [
        {
          "internalType": "uint256",
          "name": "",
          "type": "uint256"
        }
      ],
      "stateMutability": "view",
      "type": "function"
    },
    {
      "inputs": [
        {
          "internalType": "uint256",
          "name": "",
          "type": "uint256"
        }
      ],
      "name": "previousTokenOwners",
      "outputs": [
        {
          "internalType": "address",
          "name": "",
          "type": "address"
        }
      ],
      "stateMutability": "view",
      "type": "function"
    },
    {
      "inputs": [
        {
          "internalType": "uint256",
          "name": "tokenId",
          "type": "uint256"
        }
      ],
      "name": "removeBid",
      "outputs": [],
      "stateMutability": "nonpayable",
      "type": "function"
    },
    {
      "inputs": [
        {
          "internalType": "uint256",
          "name": "tokenId",
          "type": "uint256"
        }
      ],
      "name": "revokeApproval",
      "outputs": [],
      "stateMutability": "nonpayable",
      "type": "function"
    },
    {
      "inputs": [
        {
          "internalType": "address",
          "name": "from",
          "type": "address"
        },
        {
          "internalType": "address",
          "name": "to",
          "type": "address"
        },
        {
          "internalType": "uint256",
          "name": "tokenId",
          "type": "uint256"
        }
      ],
      "name": "safeTransferFrom",
      "outputs": [],
      "stateMutability": "nonpayable",
      "type": "function"
    },
    {
      "inputs": [
        {
          "internalType": "address",
          "name": "from",
          "type": "address"
        },
        {
          "internalType": "address",
          "name": "to",
          "type": "address"
        },
        {
          "internalType": "uint256",
          "name": "tokenId",
          "type": "uint256"
        },
        {
          "internalType": "bytes",
          "name": "_data",
          "type": "bytes"
        }
      ],
      "name": "safeTransferFrom",
      "outputs": [],
      "stateMutability": "nonpayable",
      "type": "function"
    },
    {
      "inputs": [
        {
          "internalType": "address",
          "name": "operator",
          "type": "address"
        },
        {
          "internalType": "bool",
          "name": "approved",
          "type": "bool"
        }
      ],
      "name": "setApprovalForAll",
      "outputs": [],
      "stateMutability": "nonpayable",
      "type": "function"
    },
    {
      "inputs": [
        {
          "internalType": "uint256",
          "name": "tokenId",
          "type": "uint256"
        },
        {
          "components": [
            {
              "internalType": "uint256",
              "name": "amount",
              "type": "uint256"
            },
            {
              "internalType": "address",
              "name": "currency",
              "type": "address"
            },
            {
              "components": [
                {
                  "internalType": "uint256",
                  "name": "value",
                  "type": "uint256"
                }
              ],
              "internalType": "struct Decimal.D256",
              "name": "sellOnFee",
              "type": "tuple"
            }
          ],
          "internalType": "struct Market.Ask",
          "name": "ask",
          "type": "tuple"
        }
      ],
      "name": "setAsk",
      "outputs": [],
      "stateMutability": "nonpayable",
      "type": "function"
    },
    {
      "inputs": [
        {
          "internalType": "uint256",
          "name": "tokenId",
          "type": "uint256"
        },
        {
          "components": [
            {
              "internalType": "uint256",
              "name": "amount",
              "type": "uint256"
            },
            {
              "internalType": "address",
              "name": "currency",
              "type": "address"
            },
            {
              "internalType": "address",
              "name": "bidder",
              "type": "address"
            },
            {
              "internalType": "address",
              "name": "recipient",
              "type": "address"
            },
            {
              "components": [
                {
                  "internalType": "uint256",
                  "name": "value",
                  "type": "uint256"
                }
              ],
              "internalType": "struct Decimal.D256",
              "name": "sellOnFee",
              "type": "tuple"
            }
          ],
          "internalType": "struct Market.Bid",
          "name": "bid",
          "type": "tuple"
        }
      ],
      "name": "setBid",
      "outputs": [],
      "stateMutability": "nonpayable",
      "type": "function"
    },
    {
      "inputs": [
        {
          "internalType": "bytes4",
          "name": "interfaceId",
          "type": "bytes4"
        }
      ],
      "name": "supportsInterface",
      "outputs": [
        {
          "internalType": "bool",
          "name": "",
          "type": "bool"
        }
      ],
      "stateMutability": "view",
      "type": "function"
    },
    {
      "inputs": [],
      "name": "symbol",
      "outputs": [
        {
          "internalType": "string",
          "name": "",
          "type": "string"
        }
      ],
      "stateMutability": "view",
      "type": "function"
    },
    {
      "inputs": [
        {
          "internalType": "uint256",
          "name": "index",
          "type": "uint256"
        }
      ],
      "name": "tokenByIndex",
      "outputs": [
        {
          "internalType": "uint256",
          "name": "",
          "type": "uint256"
        }
      ],
      "stateMutability": "view",
      "type": "function"
    },
    {
      "inputs": [
        {
          "internalType": "uint256",
          "name": "",
          "type": "uint256"
        }
      ],
      "name": "tokenContentHashes",
      "outputs": [
        {
          "internalType": "bytes32",
          "name": "",
          "type": "bytes32"
        }
      ],
      "stateMutability": "view",
      "type": "function"
    },
    {
      "inputs": [
        {
          "internalType": "uint256",
          "name": "",
          "type": "uint256"
        }
      ],
      "name": "tokenCreators",
      "outputs": [
        {
          "internalType": "address",
          "name": "",
          "type": "address"
        }
      ],
      "stateMutability": "view",
      "type": "function"
    },
    {
      "inputs": [
        {
          "internalType": "uint256",
          "name": "",
          "type": "uint256"
        }
      ],
      "name": "tokenMetadataHashes",
      "outputs": [
        {
          "internalType": "bytes32",
          "name": "",
          "type": "bytes32"
        }
      ],
      "stateMutability": "view",
      "type": "function"
    },
    {
      "inputs": [
        {
          "internalType": "uint256",
          "name": "tokenId",
          "type": "uint256"
        }
      ],
      "name": "tokenMetadataURI",
      "outputs": [
        {
          "internalType": "string",
          "name": "",
          "type": "string"
        }
      ],
      "stateMutability": "view",
      "type": "function"
    },
    {
      "inputs": [
        {
          "internalType": "address",
          "name": "owner",
          "type": "address"
        },
        {
          "internalType": "uint256",
          "name": "index",
          "type": "uint256"
        }
      ],
      "name": "tokenOfOwnerByIndex",
      "outputs": [
        {
          "internalType": "uint256",
          "name": "",
          "type": "uint256"
        }
      ],
      "stateMutability": "view",
      "type": "function"
    },
    {
      "inputs": [
        {
          "internalType": "uint256",
          "name": "tokenId",
          "type": "uint256"
        }
      ],
      "name": "tokenURI",
      "outputs": [
        {
          "internalType": "string",
          "name": "",
          "type": "string"
        }
      ],
      "stateMutability": "view",
      "type": "function"
    },
    {
      "inputs": [],
      "name": "totalSupply",
      "outputs": [
        {
          "internalType": "uint256",
          "name": "",
          "type": "uint256"
        }
      ],
      "stateMutability": "view",
      "type": "function"
    },
    {
      "inputs": [
        {
          "internalType": "address",
          "name": "from",
          "type": "address"
        },
        {
          "internalType": "address",
          "name": "to",
          "type": "address"
        },
        {
          "internalType": "uint256",
          "name": "tokenId",
          "type": "uint256"
        }
      ],
      "name": "transferFrom",
      "outputs": [],
      "stateMutability": "nonpayable",
      "type": "function"
    },
    {
      "inputs": [
        {
          "internalType": "uint256",
          "name": "tokenId",
          "type": "uint256"
        },
        {
          "internalType": "string",
          "name": "metadataURI",
          "type": "string"
        }
      ],
      "name": "updateTokenMetadataURI",
      "outputs": [],
      "stateMutability": "nonpayable",
      "type": "function"
    },
    {
      "inputs": [
        {
          "internalType": "uint256",
          "name": "tokenId",
          "type": "uint256"
        },
        {
          "internalType": "string",
          "name": "tokenURI",
          "type": "string"
        }
      ],
      "name": "updateTokenURI",
      "outputs": [],
      "stateMutability": "nonpayable",
      "type": "function"
    }
  ],
  "bytecode": "0x60806040527f49ecf333e5b8c95c40fdafc95c1ad136e8914a8fb55e9dc8bb01eaa83a2df9ad6012553480156200003557600080fd5b506040516200364138038062003641833981016040819052620000589162000244565b604051806040016040528060058152602001644d6564696160d81b815250604051806040016040528060058152602001644d4544494160d81b815250620000ac6301ffc9a760e01b6200014460201b60201c565b8151620000c19060069060208501906200019f565b508051620000d79060079060208401906200019f565b50620000f36380ac58cd60e01b6001600160e01b036200014416565b6200010e63780e9d6360e01b6001600160e01b036200014416565b5050600a80546001600160a01b0319166001600160a01b0383161790556200013d632711173360e11b62000144565b50620002ab565b6001600160e01b031980821614156200017a5760405162461bcd60e51b8152600401620001719062000274565b60405180910390fd5b6001600160e01b0319166000908152602081905260409020805460ff19166001179055565b828054600181600116156101000203166002900490600052602060002090601f016020900481019282601f10620001e257805160ff191683800117855562000212565b8280016001018555821562000212579182015b8281111562000212578251825591602001919060010190620001f5565b506200022092915062000224565b5090565b6200024191905b808211156200022057600081556001016200022b565b90565b60006020828403121562000256578081fd5b81516001600160a01b03811681146200026d578182fd5b9392505050565b6020808252601c908201527f4552433136353a20696e76616c696420696e7465726661636520696400000000604082015260600190565b61338680620002bb6000396000f3fe608060405234801561001057600080fd5b50600436106102115760003560e01c80636c0360eb11610125578063b320f459116100ad578063e0fd045f1161007c578063e0fd045f14610458578063e985e9c51461046b578063f6b630f01461047e578063f8ccd5de14610491578063fad32197146104a457610211565b8063b320f4591461040c578063b88d4fde1461041f578063ba33939914610432578063c87b56dd1461044557610211565b806385f7c354116100f457806385f7c354146103b857806395d89b41146103cb5780639d8e7260146103d3578063a22cb465146103e6578063b1e130fc146103f957610211565b80636c0360eb1461037757806370a082311461037f57806375682e79146103925780637ac2ff7b146103a557610211565b806318e97fd1116101a857806342966c681161017757806342966c681461031857806348adb7de1461032b5780634f6ccce71461033e5780635bf62422146103515780636352211e1461036457610211565b806318e97fd1146102cc57806323b872dd146102df5780632f745c59146102f257806342842e0e1461030557610211565b8063095ea7b3116101e4578063095ea7b31461029457806311dec40e146102a9578063157c3df9146102b157806318160ddd146102c457610211565b806301ddc3b51461021657806301ffc9a71461023f57806306fdde031461025f578063081812fc14610274575b600080fd5b610229610224366004612569565b6104b7565b60405161023691906128ee565b60405180910390f35b61025261024d366004612531565b6104c9565b60405161023691906128e3565b6102676104ec565b604051610236919061296d565b610287610282366004612569565b610583565b604051610236919061286e565b6102a76102a23660046124a8565b6105cf565b005b610287610667565b6102676102bf366004612569565b610676565b610229610743565b6102a76102da3660046125a4565b610754565b6102a76102ed3660046122ea565b610818565b6102296103003660046124a8565b610850565b6102a76103133660046122ea565b610881565b6102a7610326366004612569565b61089c565b6102a76103393660046123cd565b610941565b61022961034c366004612569565b610b1e565b6102a761035f366004612652565b610b3a565b610287610372366004612569565b610c00565b610267610c2e565b61022961038d36600461229b565b610c8f565b6102a76103a03660046125a4565b610cd8565b6102a76103b33660046124d2565b610d8c565b6102a76103c63660046125e9565b610f90565b610267611022565b6102876103e1366004612569565b611083565b6102a76103f4366004612392565b61109e565b6102a7610407366004612569565b61116c565b6102a761041a366004612569565b6111b3565b6102a761042d36600461232a565b611245565b6102a7610440366004612652565b611284565b610267610453366004612569565b6112de565b610287610466366004612569565b61142e565b6102526104793660046122b6565b611449565b6102a761048c366004612581565b611477565b61022961049f3660046124a8565b6114fd565b6102296104b2366004612569565b61151a565b600f6020526000908152604090205481565b6001600160e01b0319811660009081526020819052604090205460ff165b919050565b60068054604080516020601f60026000196101006001881615020190951694909404938401819004810282018101909252828152606093909290918301828280156105785780601f1061054d57610100808354040283529160200191610578565b820191906000526020600020905b81548152906001019060200180831161055b57829003601f168201915b505050505090505b90565b600061058e8261152c565b6105b35760405162461bcd60e51b81526004016105aa90612e88565b60405180910390fd5b506000908152600460205260409020546001600160a01b031690565b60006105da82610c00565b9050806001600160a01b0316836001600160a01b0316141561060e5760405162461bcd60e51b81526004016105aa90613037565b806001600160a01b031661062061153f565b6001600160a01b0316148061063c575061063c8161047961153f565b6106585760405162461bcd60e51b81526004016105aa90612ca7565b6106628383611543565b505050565b600a546001600160a01b031681565b6060818061068460146115b1565b10156106a25760405162461bcd60e51b81526004016105aa906129c2565b60008381526010602090815260409182902080548351601f6002600019610100600186161502019093169290920491820184900484028101840190945280845290918301828280156107355780601f1061070a57610100808354040283529160200191610735565b820191906000526020600020905b81548152906001019060200180831161071857829003601f168201915b505050505091505b50919050565b600061074f60026115b5565b905090565b338261076082826115c0565b61077c5760405162461bcd60e51b81526004016105aa90612f20565b6000848152600e602052604090205484906107a95760405162461bcd60e51b81526004016105aa90612fe5565b838051600014156107cc5760405162461bcd60e51b81526004016105aa9061317e565b6107d68686611645565b857f702fe2dc2dc0f68023540aa4a1e11811c0f29112f6ebf01e61b90538e4f2981033876040516108089291906128bf565b60405180910390a2505050505050565b61082961082361153f565b826115c0565b6108455760405162461bcd60e51b81526004016105aa90613078565b610662838383611689565b6001600160a01b0382166000908152600160205260408120610878908363ffffffff6117a916565b90505b92915050565b61066283838360405180602001604052806000815250611245565b806108a68161152c565b6108c25760405162461bcd60e51b81526004016105aa90612c5b565b33826108ce82826115c0565b6108ea5760405162461bcd60e51b81526004016105aa90612f20565b60006108f585610c00565b6000868152600c60205260409020549091506001600160a01b038083169116146109315760405162461bcd60e51b81526004016105aa90612c17565b61093a856117b5565b5050505050565b848051600014156109645760405162461bcd60e51b81526004016105aa9061317e565b848051600014156109875760405162461bcd60e51b81526004016105aa9061317e565b846109a45760405162461bcd60e51b81526004016105aa90612fa0565b60008581526011602052604090205460ff16156109d35760405162461bcd60e51b81526004016105aa90612d7d565b836109f05760405162461bcd60e51b81526004016105aa906130c9565b60006109fc60146115b1565b9050610a088982611850565b610a12601461186a565b610a1c8187611873565b610a2681866118ac565b610a3081886118e5565b610a3a8189611645565b6001600160a01b0389166000908152600d60205260409020610a62908263ffffffff61192a16565b506000868152601160209081526040808320805460ff19166001179055838352600c825280832080546001600160a01b03808f166001600160a01b03199283168117909355600b90945293829020805490941617909255600a549151638ca4ce1960e01b8152911690638ca4ce1990610ae1908490889060040161320c565b600060405180830381600087803b158015610afb57600080fd5b505af1158015610b0f573d6000803e3d6000fd5b50505050505050505050505050565b600080610b3260028463ffffffff61193616565b509392505050565b81610b448161152c565b610b605760405162461bcd60e51b81526004016105aa90612c5b565b81604001516001600160a01b0316336001600160a01b031614610b955760405162461bcd60e51b81526004016105aa90612aca565b600a546040516317b6b0d360e31b81526001600160a01b039091169063bdb5869890610bc99086908690339060040161324a565b600060405180830381600087803b158015610be357600080fd5b505af1158015610bf7573d6000803e3d6000fd5b50505050505050565b600061087b82604051806060016040528060298152602001613328602991396002919063ffffffff61195216565b60098054604080516020601f60026000196101006001881615020190951694909404938401819004810282018101909252828152606093909290918301828280156105785780601f1061054d57610100808354040283529160200191610578565b60006001600160a01b038216610cb75760405162461bcd60e51b81526004016105aa90612d04565b6001600160a01b038216600090815260016020526040902061087b906115b5565b3382610ce482826115c0565b610d005760405162461bcd60e51b81526004016105aa90612f20565b6000848152600f60205260409020548490610d2d5760405162461bcd60e51b81526004016105aa90612bc8565b83805160001415610d505760405162461bcd60e51b81526004016105aa9061317e565b610d5a86866118e5565b857fe3df41127db820c79e5b8d541a63e40e3e97b9af96f7a50bded13091b70df9ae33876040516108089291906128bf565b84610d968161152c565b610db25760405162461bcd60e51b81526004016105aa90612c5b565b841580610dbf5750428510155b610ddb5760405162461bcd60e51b81526004016105aa90612d4e565b6001600160a01b038716610e015760405162461bcd60e51b81526004016105aa90612a5c565b6000610e43604051806040016040528060058152602001644d6564696160d81b815250604051806040016040528060018152602001603160f81b815250611969565b90506000816012548a8a60136000610e5a8e610c00565b6001600160a01b03168152602080820192909252604090810160009081208f825283528190208054600181019091559051610e9a959493928e91016128f7565b60405160208183030381529060405280519060200120604051602001610ec19291906127e9565b604051602081830303815290604052805190602001209050600060018288888860405160008152602001604052604051610efe949392919061294f565b6020604051602081039080840390855afa158015610f20573d6000803e3d6000fd5b5050604051601f1901519150506001600160a01b03811615801590610f5e5750806001600160a01b0316610f538a610c00565b6001600160a01b0316145b610f7a5760405162461bcd60e51b81526004016105aa90613147565b610f848a8a611543565b50505050505050505050565b3382610f9c82826115c0565b610fb85760405162461bcd60e51b81526004016105aa90612f20565b600a5460405163217df0d560e21b81526001600160a01b03909116906385f7c35490610fea90879087906004016131db565b600060405180830381600087803b15801561100457600080fd5b505af1158015611018573d6000803e3d6000fd5b5050505050505050565b60078054604080516020601f60026000196101006001881615020190951694909404938401819004810282018101909252828152606093909290918301828280156105785780601f1061054d57610100808354040283529160200191610578565b600b602052600090815260409020546001600160a01b031681565b6110a661153f565b6001600160a01b0316826001600160a01b031614156110d75760405162461bcd60e51b81526004016105aa90612b91565b80600560006110e461153f565b6001600160a01b03908116825260208083019390935260409182016000908120918716808252919093529120805460ff19169215159290921790915561112861153f565b6001600160a01b03167f17307eab39ab6107e8899845ad3d59bd9653f200f220920489ca2b5937696c318360405161116091906128e3565b60405180910390a35050565b61117581610583565b6001600160a01b0316336001600160a01b0316146111a55760405162461bcd60e51b81526004016105aa90612b0b565b6111b0600082611543565b50565b80806111bf60146115b1565b10156111dd5760405162461bcd60e51b81526004016105aa906129c2565b600a5460405163776a083560e01b81526001600160a01b039091169063776a08359061120f90859033906004016131c4565b600060405180830381600087803b15801561122957600080fd5b505af115801561123d573d6000803e3d6000fd5b505050505050565b61125661125061153f565b836115c0565b6112725760405162461bcd60e51b81526004016105aa90613078565b61127e848484846119c7565b50505050565b338261129082826115c0565b6112ac5760405162461bcd60e51b81526004016105aa90612f20565b600a5460405163ba33939960e01b81526001600160a01b039091169063ba33939990610fea9087908790600401613236565b606081806112ec60146115b1565b101561130a5760405162461bcd60e51b81526004016105aa906129c2565b60008381526008602090815260409182902080548351601f600260001961010060018616150201909316929092049182018490048402810184019094528084526060939283018282801561139f5780601f106113745761010080835404028352916020019161139f565b820191906000526020600020905b81548152906001019060200180831161138257829003601f168201915b5050600954939450505050600260001961010060018416150201909116046113c857915061073d565b8051156113fa576009816040516020016113e3929190612768565b60405160208183030381529060405292505061073d565b6009611405856119fa565b604051602001611416929190612768565b60405160208183030381529060405292505050919050565b600c602052600090815260409020546001600160a01b031681565b6001600160a01b03918216600090815260056020908152604080832093909416825291909152205460ff1690565b600a546001600160a01b031633146114a15760405162461bcd60e51b81526004016105aa90612e1c565b6114aa82610c00565b6000838152600b6020526040902080546001600160a01b0319166001600160a01b03929092169190911790556114f96114e283610c00565b8284604051806020016040528060008152506119c7565b5050565b601360209081526000928352604080842090915290825290205481565b600e6020526000908152604090205481565b600061087b60028363ffffffff611ad516565b3390565b600081815260046020526040902080546001600160a01b0319166001600160a01b038416908117909155819061157882610c00565b6001600160a01b03167f8c5be1e5ebec7d5bd14f71427d1e84f3dd0314c0f7b2291e5b200ac8c7c3b92560405160405180910390a45050565b5490565b600061087b826115b1565b60006115cb8261152c565b6115e75760405162461bcd60e51b81526004016105aa90612c5b565b60006115f283610c00565b9050806001600160a01b0316846001600160a01b0316148061162d5750836001600160a01b031661162284610583565b6001600160a01b0316145b8061163d575061163d8185611449565b949350505050565b61164e8261152c565b61166a5760405162461bcd60e51b81526004016105aa90612ed4565b600082815260086020908152604090912082516106629284019061215e565b826001600160a01b031661169c82610c00565b6001600160a01b0316146116c25760405162461bcd60e51b81526004016105aa90612f57565b6001600160a01b0382166116e85760405162461bcd60e51b81526004016105aa90612b4d565b6116f3838383610662565b6116fe600082611543565b6001600160a01b0383166000908152600160205260409020611726908263ffffffff611ae116565b506001600160a01b038216600090815260016020526040902061174f908263ffffffff61192a16565b506117626002828463ffffffff611aed16565b5080826001600160a01b0316846001600160a01b03167fddf252ad1be2c89b69c2b068fc378daa952ba7f163c4a11628f55a4df523b3ef60405160405180910390a4505050565b60006108788383611b03565b60006117c082610c00565b90506117ce81600084610662565b6117d9600083611543565b6001600160a01b0381166000908152600160205260409020611801908363ffffffff611ae116565b5061181360028363ffffffff611b4816565b5060405182906000906001600160a01b038416907fddf252ad1be2c89b69c2b068fc378daa952ba7f163c4a11628f55a4df523b3ef908390a45050565b6114f9828260405180602001604052806000815250611b54565b80546001019055565b8161187d8161152c565b6118995760405162461bcd60e51b81526004016105aa90612c5b565b506000918252600e602052604090912055565b816118b68161152c565b6118d25760405162461bcd60e51b81526004016105aa90612c5b565b506000918252600f602052604090912055565b816118ef8161152c565b61190b5760405162461bcd60e51b81526004016105aa90612c5b565b6000838152601060209081526040909120835161127e9285019061215e565b60006108788383611b87565b60008080806119458686611bd1565b9097909650945050505050565b600061195f848484611c2d565b90505b9392505050565b604051600090469061197a90612804565b60405180910390208480519060200120848051906020012083306040516020016119a8959493929190612923565b6040516020818303038152906040528051906020012091505092915050565b6119d2848484611689565b6119de84848484611c8c565b61127e5760405162461bcd60e51b81526004016105aa90612a0a565b606081611a1f57506040805180820190915260018152600360fc1b60208201526104e7565b8160005b8115611a3757600101600a82049150611a23565b60608167ffffffffffffffff81118015611a5057600080fd5b506040519080825280601f01601f191660200182016040528015611a7b576020820181803683370190505b50859350905060001982015b8315611acc57600a840660300160f81b82828060019003935081518110611aaa57fe5b60200101906001600160f81b031916908160001a905350600a84049350611a87565b50949350505050565b60006108788383611d71565b60006108788383611d89565b600061195f84846001600160a01b038516611e4f565b81546000908210611b265760405162461bcd60e51b81526004016105aa90612980565b826000018281548110611b3557fe5b9060005260206000200154905092915050565b60006108788383611ee6565b611b5e8383611fba565b611b6b6000848484611c8c565b6106625760405162461bcd60e51b81526004016105aa90612a0a565b6000611b938383611d71565b611bc95750815460018181018455600084815260208082209093018490558454848252828601909352604090209190915561087b565b50600061087b565b815460009081908310611bf65760405162461bcd60e51b81526004016105aa90612dda565b6000846000018481548110611c0757fe5b906000526020600020906002020190508060000154816001015492509250509250929050565b60008281526001840160205260408120548281611c5d5760405162461bcd60e51b81526004016105aa919061296d565b50846000016001820381548110611c7057fe5b9060005260206000209060020201600101549150509392505050565b6000611ca0846001600160a01b031661208a565b611cac5750600161163d565b6060611d3a630a85bd0160e11b611cc161153f565b888787604051602401611cd79493929190612882565b604051602081830303815290604052906001600160e01b0319166020820180516001600160e01b0383818316178352505050506040518060600160405280603281526020016132f6603291396001600160a01b038816919063ffffffff61209016565b9050600081806020019051810190611d52919061254d565b6001600160e01b031916630a85bd0160e11b1492505050949350505050565b60009081526001919091016020526040902054151590565b60008181526001830160205260408120548015611e455783546000198083019190810190600090879083908110611dbc57fe5b9060005260206000200154905080876000018481548110611dd957fe5b600091825260208083209091019290925582815260018981019092526040902090840190558654879080611e0957fe5b6001900381819060005260206000200160009055905586600101600087815260200190815260200160002060009055600194505050505061087b565b600091505061087b565b600082815260018401602052604081205480611eb4575050604080518082018252838152602080820184815286546001818101895560008981528481209551600290930290950191825591519082015586548684528188019092529290912055611962565b82856000016001830381548110611ec757fe5b9060005260206000209060020201600101819055506000915050611962565b60008181526001830160205260408120548015611e455783546000198083019190810190600090879083908110611f1957fe5b9060005260206000209060020201905080876000018481548110611f3957fe5b600091825260208083208454600290930201918255600193840154918401919091558354825289830190526040902090840190558654879080611f7857fe5b600082815260208082206002600019909401938402018281556001908101839055929093558881528982019092526040822091909155945061087b9350505050565b6001600160a01b038216611fe05760405162461bcd60e51b81526004016105aa90612e53565b611fe98161152c565b156120065760405162461bcd60e51b81526004016105aa90612a93565b61201260008383610662565b6001600160a01b038216600090815260016020526040902061203a908263ffffffff61192a16565b5061204d6002828463ffffffff611aed16565b5060405181906001600160a01b038416906000907fddf252ad1be2c89b69c2b068fc378daa952ba7f163c4a11628f55a4df523b3ef908290a45050565b3b151590565b606061195f848460008560606120a58561208a565b6120c15760405162461bcd60e51b81526004016105aa90613110565b60006060866001600160a01b031685876040516120de919061274c565b60006040518083038185875af1925050503d806000811461211b576040519150601f19603f3d011682016040523d82523d6000602084013e612120565b606091505b5091509150811561213457915061163d9050565b8051156121445780518082602001fd5b8360405162461bcd60e51b81526004016105aa919061296d565b828054600181600116156101000203166002900490600052602060002090601f016020900481019282601f1061219f57805160ff19168380011785556121cc565b828001600101855582156121cc579182015b828111156121cc5782518255916020019190600101906121b1565b506121d89291506121dc565b5090565b61058091905b808211156121d857600081556001016121e2565b80356001600160a01b038116811461087b57600080fd5b600082601f83011261221d578081fd5b813567ffffffffffffffff811115612233578182fd5b612246601f8201601f1916602001613277565b915080825283602082850101111561225d57600080fd5b8060208401602084013760009082016020015292915050565b600060208284031215612287578081fd5b6122916020613277565b9135825250919050565b6000602082840312156122ac578081fd5b61087883836121f6565b600080604083850312156122c8578081fd5b6122d284846121f6565b91506122e184602085016121f6565b90509250929050565b6000806000606084860312156122fe578081fd5b8335612309816132ca565b92506020840135612319816132ca565b929592945050506040919091013590565b6000806000806080858703121561233f578081fd5b61234986866121f6565b935061235886602087016121f6565b925060408501359150606085013567ffffffffffffffff81111561237a578182fd5b6123868782880161220d565b91505092959194509250565b600080604083850312156123a4578182fd5b6123ae84846121f6565b9150602083013580151581146123c2578182fd5b809150509250929050565b6000806000806000808688036101008112156123e7578283fd5b6123f189896121f6565b9650602088013567ffffffffffffffff8082111561240d578485fd5b6124198b838c0161220d565b975060408a013591508082111561242e578485fd5b5061243b8a828b0161220d565b955050606088810135945060808901359350609f198201121561245c578182fd5b506124676060613277565b6124748960a08a01612276565b81526124838960c08a01612276565b60208201526124958960e08a01612276565b6040820152809150509295509295509295565b600080604083850312156124ba578182fd5b6124c484846121f6565b946020939093013593505050565b60008060008060008060c087890312156124ea578384fd5b6124f488886121f6565b95506020870135945060408701359350606087013560ff81168114612517578283fd5b9598949750929560808101359460a0909101359350915050565b600060208284031215612542578081fd5b8135611962816132df565b60006020828403121561255e578081fd5b8151611962816132df565b60006020828403121561257a578081fd5b5035919050565b60008060408385031215612593578182fd5b823591506122e184602085016121f6565b600080604083850312156125b6578182fd5b82359150602083013567ffffffffffffffff8111156125d3578182fd5b6125df8582860161220d565b9150509250929050565b60008082840360808112156125fc578283fd5b833592506060601f1982011215612611578182fd5b5061261c6060613277565b6020840135815261263085604086016121f6565b60208201526126428560608601612276565b6040820152809150509250929050565b60008082840360c0811215612665578283fd5b8335925060a0601f198201121561267a578182fd5b5061268560a0613277565b6020840135815261269985604086016121f6565b60208201526126ab85606086016121f6565b60408201526126bd85608086016121f6565b60608201526126cf8560a08601612276565b6080820152809150509250929050565b600081518084526126f781602086016020860161329e565b601f01601f19169290920160200192915050565b805182526020808201516001600160a01b03908116918401919091526040808301518216908401526060808301519091169083015260809081015151910152565b6000825161275e81846020870161329e565b9190910192915050565b6000808454600180821660008114612787576001811461279e576127cd565b60ff198316865260028304607f16860193506127cd565b600283048886526020808720875b838110156127c55781548a8201529085019082016127ac565b505050860193505b50505083516127e081836020880161329e565b01949350505050565b61190160f01b81526002810192909252602282015260420190565b7f454950373132446f6d61696e28737472696e67206e616d652c737472696e672081527f76657273696f6e2c75696e7432353620636861696e49642c6164647265737320602082015271766572696679696e67436f6e74726163742960701b604082015260520190565b6001600160a01b0391909116815260200190565b6001600160a01b03858116825284166020820152604081018390526080606082018190526000906128b5908301846126df565b9695505050505050565b6001600160a01b038316815260406020820181905260009061195f908301846126df565b901515815260200190565b90815260200190565b9485526001600160a01b0393909316602085015260408401919091526060830152608082015260a00190565b9485526020850193909352604084019190915260608301526001600160a01b0316608082015260a00190565b93845260ff9290921660208401526040830152606082015260800190565b60006020825261087860208301846126df565b60208082526022908201527f456e756d657261626c655365743a20696e646578206f7574206f6620626f756e604082015261647360f01b606082015260800190565b60208082526028908201527f4d656469613a20746f6b656e2077697468207468617420696420646f6573206e6040820152671bdd08195e1a5cdd60c21b606082015260800190565b60208082526032908201527f4552433732313a207472616e7366657220746f206e6f6e20455243373231526560408201527131b2b4bb32b91034b6b83632b6b2b73a32b960711b606082015260800190565b6020808252601c908201527f4d656469613a207370656e6465722063616e6e6f742062652030783000000000604082015260600190565b6020808252601c908201527f4552433732313a20746f6b656e20616c7265616479206d696e74656400000000604082015260600190565b60208082526021908201527f4d61726b65743a20426964646572206d757374206265206d73672073656e64656040820152603960f91b606082015260800190565b60208082526022908201527f4d656469613a2063616c6c6572206e6f7420617070726f766564206164647265604082015261737360f01b606082015260800190565b60208082526024908201527f4552433732313a207472616e7366657220746f20746865207a65726f206164646040820152637265737360e01b606082015260800190565b60208082526019908201527f4552433732313a20617070726f766520746f2063616c6c657200000000000000604082015260600190565b6020808252602f908201527f4d656469613a20746f6b656e20646f6573206e6f74206861766520686173682060408201526e6f6620697473206d6574616461746160881b606082015260800190565b60208082526024908201527f4d656469613a206f776e6572206973206e6f742063726561746f72206f66207460408201526337b5b2b760e11b606082015260800190565b6020808252602c908201527f4552433732313a206f70657261746f7220717565727920666f72206e6f6e657860408201526b34b9ba32b73a103a37b5b2b760a11b606082015260800190565b60208082526038908201527f4552433732313a20617070726f76652063616c6c6572206973206e6f74206f7760408201527f6e6572206e6f7220617070726f76656420666f7220616c6c0000000000000000606082015260800190565b6020808252602a908201527f4552433732313a2062616c616e636520717565727920666f7220746865207a65604082015269726f206164647265737360b01b606082015260800190565b6020808252601590820152741359591a584e8814195c9b5a5d08195e1c1a5c9959605a1b604082015260600190565b6020808252603e908201527f4d656469613a206120746f6b656e2068617320616c7265616479206265656e2060408201527f637265617465642077697468207468697320636f6e74656e7420686173680000606082015260800190565b60208082526022908201527f456e756d657261626c654d61703a20696e646578206f7574206f6620626f756e604082015261647360f01b606082015260800190565b6020808252601b908201527f4d656469613a206f6e6c79206d61726b657420636f6e74726163740000000000604082015260600190565b6020808252818101527f4552433732313a206d696e7420746f20746865207a65726f2061646472657373604082015260600190565b6020808252602c908201527f4552433732313a20617070726f76656420717565727920666f72206e6f6e657860408201526b34b9ba32b73a103a37b5b2b760a11b606082015260800190565b6020808252602c908201527f4552433732314d657461646174613a2055524920736574206f66206e6f6e657860408201526b34b9ba32b73a103a37b5b2b760a11b606082015260800190565b6020808252601d908201527f4d656469613a204f6e6c7920617070726f766564206f72206f776e6572000000604082015260600190565b60208082526029908201527f4552433732313a207472616e73666572206f6620746f6b656e2074686174206960408201526839903737ba1037bbb760b91b606082015260800190565b60208082526025908201527f4d656469613a20636f6e74656e742068617368206d757374206265206e6f6e2d604082015264656d70747960d81b606082015260800190565b60208082526032908201527f4d656469613a20746f6b656e20646f6573206e6f7420686176652068617368206040820152711bd98818dc99585d19590818dbdb9d195b9d60721b606082015260800190565b60208082526021908201527f4552433732313a20617070726f76616c20746f2063757272656e74206f776e656040820152603960f91b606082015260800190565b60208082526031908201527f4552433732313a207472616e736665722063616c6c6572206973206e6f74206f6040820152701ddb995c881b9bdc88185c1c1c9bdd9959607a1b606082015260800190565b60208082526027908201527f4d656469613a206d65746164617461206861736820206d757374206265206e6f6040820152666e2d656d70747960c81b606082015260800190565b6020808252601d908201527f416464726573733a2063616c6c20746f206e6f6e2d636f6e7472616374000000604082015260600190565b60208082526018908201527f4d656469613a205369676e617475726520696e76616c69640000000000000000604082015260600190565b60208082526026908201527f4d656469613a2073706563696669656420757269206d757374206265206e6f6e6040820152652d656d70747960d01b606082015260800190565b9182526001600160a01b0316602082015260400190565b91825280516020808401919091528101516001600160a01b0316604080840191909152015151606082015260800190565b91825280515160208084019190915281015151604080840191909152015151606082015260800190565b82815260c08101611962602083018461270b565b83815260e0810161325e602083018561270b565b6001600160a01b039290921660c0919091015292915050565b60405181810167ffffffffffffffff8111828210171561329657600080fd5b604052919050565b60005b838110156132b95781810151838201526020016132a1565b8381111561127e5750506000910152565b6001600160a01b03811681146111b057600080fd5b6001600160e01b0319811681146111b057600080fdfe4552433732313a207472616e7366657220746f206e6f6e20455243373231526563656976657220696d706c656d656e7465724552433732313a206f776e657220717565727920666f72206e6f6e6578697374656e7420746f6b656ea26469706673582212208daf181164f579b3dbc0bb53094bea73f654a3736301bd0bca7a34ba7cc76e1c64736f6c63430006080033",
  "linkReferences": {},
  "deployedLinkReferences": {}
}